{
	"contracts/Lottery-App.sol": {
		"Lottery": {
			"abi": [
				{
					"inputs": [],
					"stateMutability": "nonpayable",
					"type": "constructor"
				},
				{
					"inputs": [],
					"name": "announceWinner",
					"outputs": [],
					"stateMutability": "nonpayable",
					"type": "function"
				},
				{
					"inputs": [],
					"name": "getBalance",
					"outputs": [
						{
							"internalType": "uint256",
							"name": "",
							"type": "uint256"
						}
					],
					"stateMutability": "view",
					"type": "function"
				},
				{
					"inputs": [],
					"name": "owner",
					"outputs": [
						{
							"internalType": "address",
							"name": "",
							"type": "address"
						}
					],
					"stateMutability": "view",
					"type": "function"
				},
				{
					"inputs": [
						{
							"internalType": "uint256",
							"name": "",
							"type": "uint256"
						}
					],
					"name": "players",
					"outputs": [
						{
							"internalType": "address payable",
							"name": "",
							"type": "address"
						}
					],
					"stateMutability": "view",
					"type": "function"
				},
				{
					"inputs": [],
					"name": "random",
					"outputs": [
						{
							"internalType": "uint256",
							"name": "",
							"type": "uint256"
						}
					],
					"stateMutability": "view",
					"type": "function"
				},
				{
					"stateMutability": "payable",
					"type": "receive"
				}
			],
			"devdoc": {
				"kind": "dev",
				"methods": {},
				"version": 1
			},
			"evm": {
				"assembly": "    /* \"contracts/Lottery-App.sol\":70:1390  contract Lottery {... */\n  mstore(0x40, 0x80)\n    /* \"contracts/Lottery-App.sol\":164:215  constructor() {... */\n  callvalue\n  dup1\n  iszero\n  tag_1\n  jumpi\n  0x00\n  dup1\n  revert\ntag_1:\n  pop\n    /* \"contracts/Lottery-App.sol\":197:207  msg.sender */\n  caller\n    /* \"contracts/Lottery-App.sol\":189:194  owner */\n  0x00\n  dup1\n    /* \"contracts/Lottery-App.sol\":189:207  owner = msg.sender */\n  0x0100\n  exp\n  dup2\n  sload\n  dup2\n  0xffffffffffffffffffffffffffffffffffffffff\n  mul\n  not\n  and\n  swap1\n  dup4\n  0xffffffffffffffffffffffffffffffffffffffff\n  and\n  mul\n  or\n  swap1\n  sstore\n  pop\n    /* \"contracts/Lottery-App.sol\":70:1390  contract Lottery {... */\n  dataSize(sub_0)\n  dup1\n  dataOffset(sub_0)\n  0x00\n  codecopy\n  0x00\n  return\nstop\n\nsub_0: assembly {\n        /* \"contracts/Lottery-App.sol\":70:1390  contract Lottery {... */\n      mstore(0x40, 0x80)\n      jumpi(tag_1, lt(calldatasize, 0x04))\n      shr(0xe0, calldataload(0x00))\n      dup1\n      0x12065fe0\n      eq\n      tag_3\n      jumpi\n      dup1\n      0x2d8cd096\n      eq\n      tag_4\n      jumpi\n      dup1\n      0x5ec01e4d\n      eq\n      tag_5\n      jumpi\n      dup1\n      0x8da5cb5b\n      eq\n      tag_6\n      jumpi\n      dup1\n      0xf71d96cb\n      eq\n      tag_7\n      jumpi\n      jump(tag_2)\n    tag_1:\n      jumpi(tag_2, calldatasize)\n        /* \"contracts/Lottery-App.sol\":341:348  500 wei */\n      0x01f4\n        /* \"contracts/Lottery-App.sol\":328:337  msg.value */\n      callvalue\n        /* \"contracts/Lottery-App.sol\":328:348  msg.value >= 500 wei */\n      lt\n      iszero\n        /* \"contracts/Lottery-App.sol\":320:392  require(msg.value >= 500 wei, \"You cannot participate with low balance\") */\n      tag_10\n      jumpi\n      mload(0x40)\n      0x08c379a000000000000000000000000000000000000000000000000000000000\n      dup2\n      mstore\n      0x04\n      add\n      tag_11\n      swap1\n      tag_12\n      jump\t// in\n    tag_11:\n      mload(0x40)\n      dup1\n      swap2\n      sub\n      swap1\n      revert\n    tag_10:\n        /* \"contracts/Lottery-App.sol\":403:410  players */\n      0x01\n        /* \"contracts/Lottery-App.sol\":424:434  msg.sender */\n      caller\n        /* \"contracts/Lottery-App.sol\":403:436  players.push(payable(msg.sender)) */\n      swap1\n      dup1\n      0x01\n      dup2\n      sload\n      add\n      dup1\n      dup3\n      sstore\n      dup1\n      swap2\n      pop\n      pop\n      0x01\n      swap1\n      sub\n      swap1\n      0x00\n      mstore\n      keccak256(0x00, 0x20)\n      add\n      0x00\n      swap1\n      swap2\n      swap1\n      swap2\n      swap1\n      swap2\n      0x0100\n      exp\n      dup2\n      sload\n      dup2\n      0xffffffffffffffffffffffffffffffffffffffff\n      mul\n      not\n      and\n      swap1\n      dup4\n      0xffffffffffffffffffffffffffffffffffffffff\n      and\n      mul\n      or\n      swap1\n      sstore\n      stop\n        /* \"contracts/Lottery-App.sol\":70:1390  contract Lottery {... */\n    tag_2:\n      0x00\n      dup1\n      revert\n        /* \"contracts/Lottery-App.sol\":500:674  function getBalance() public view returns(uint) {... */\n    tag_3:\n      callvalue\n      dup1\n      iszero\n      tag_14\n      jumpi\n      0x00\n      dup1\n      revert\n    tag_14:\n      pop\n      tag_15\n      tag_16\n      jump\t// in\n    tag_15:\n      mload(0x40)\n      tag_17\n      swap2\n      swap1\n      tag_18\n      jump\t// in\n    tag_17:\n      mload(0x40)\n      dup1\n      swap2\n      sub\n      swap1\n      return\n        /* \"contracts/Lottery-App.sol\":874:1385  function announceWinner() public {... */\n    tag_4:\n      callvalue\n      dup1\n      iszero\n      tag_19\n      jumpi\n      0x00\n      dup1\n      revert\n    tag_19:\n      pop\n      tag_20\n      tag_21\n      jump\t// in\n    tag_20:\n      stop\n        /* \"contracts/Lottery-App.sol\":714:866  function random() public view returns(uint) {... */\n    tag_5:\n      callvalue\n      dup1\n      iszero\n      tag_22\n      jumpi\n      0x00\n      dup1\n      revert\n    tag_22:\n      pop\n      tag_23\n      tag_24\n      jump\t// in\n    tag_23:\n      mload(0x40)\n      tag_25\n      swap2\n      swap1\n      tag_18\n      jump\t// in\n    tag_25:\n      mload(0x40)\n      dup1\n      swap2\n      sub\n      swap1\n      return\n        /* \"contracts/Lottery-App.sol\":96:116  address public owner */\n    tag_6:\n      callvalue\n      dup1\n      iszero\n      tag_26\n      jumpi\n      0x00\n      dup1\n      revert\n    tag_26:\n      pop\n      tag_27\n      tag_28\n      jump\t// in\n    tag_27:\n      mload(0x40)\n      tag_29\n      swap2\n      swap1\n      tag_30\n      jump\t// in\n    tag_29:\n      mload(0x40)\n      dup1\n      swap2\n      sub\n      swap1\n      return\n        /* \"contracts/Lottery-App.sol\":123:155  address payable[] public players */\n    tag_7:\n      callvalue\n      dup1\n      iszero\n      tag_31\n      jumpi\n      0x00\n      dup1\n      revert\n    tag_31:\n      pop\n      tag_32\n      0x04\n      dup1\n      calldatasize\n      sub\n      dup2\n      add\n      swap1\n      tag_33\n      swap2\n      swap1\n      tag_34\n      jump\t// in\n    tag_33:\n      tag_35\n      jump\t// in\n    tag_32:\n      mload(0x40)\n      tag_36\n      swap2\n      swap1\n      tag_37\n      jump\t// in\n    tag_36:\n      mload(0x40)\n      dup1\n      swap2\n      sub\n      swap1\n      return\n        /* \"contracts/Lottery-App.sol\":500:674  function getBalance() public view returns(uint) {... */\n    tag_16:\n        /* \"contracts/Lottery-App.sol\":542:546  uint */\n      0x00\n        /* \"contracts/Lottery-App.sol\":581:586  owner */\n      dup1\n      0x00\n      swap1\n      sload\n      swap1\n      0x0100\n      exp\n      swap1\n      div\n      0xffffffffffffffffffffffffffffffffffffffff\n      and\n        /* \"contracts/Lottery-App.sol\":567:586  msg.sender == owner */\n      0xffffffffffffffffffffffffffffffffffffffff\n      and\n        /* \"contracts/Lottery-App.sol\":567:577  msg.sender */\n      caller\n        /* \"contracts/Lottery-App.sol\":567:586  msg.sender == owner */\n      0xffffffffffffffffffffffffffffffffffffffff\n      and\n      eq\n        /* \"contracts/Lottery-App.sol\":559:627  require(msg.sender == owner, \"You are not the owner of the Lottery\") */\n      tag_39\n      jumpi\n      mload(0x40)\n      0x08c379a000000000000000000000000000000000000000000000000000000000\n      dup2\n      mstore\n      0x04\n      add\n      tag_40\n      swap1\n      tag_41\n      jump\t// in\n    tag_40:\n      mload(0x40)\n      dup1\n      swap2\n      sub\n      swap1\n      revert\n    tag_39:\n        /* \"contracts/Lottery-App.sol\":645:666  address(this).balance */\n      selfbalance\n        /* \"contracts/Lottery-App.sol\":638:666  return address(this).balance */\n      swap1\n      pop\n        /* \"contracts/Lottery-App.sol\":500:674  function getBalance() public view returns(uint) {... */\n      swap1\n      jump\t// out\n        /* \"contracts/Lottery-App.sol\":874:1385  function announceWinner() public {... */\n    tag_21:\n        /* \"contracts/Lottery-App.sol\":941:946  owner */\n      0x00\n      dup1\n      sload\n      swap1\n      0x0100\n      exp\n      swap1\n      div\n      0xffffffffffffffffffffffffffffffffffffffff\n      and\n        /* \"contracts/Lottery-App.sol\":927:946  msg.sender == owner */\n      0xffffffffffffffffffffffffffffffffffffffff\n      and\n        /* \"contracts/Lottery-App.sol\":927:937  msg.sender */\n      caller\n        /* \"contracts/Lottery-App.sol\":927:946  msg.sender == owner */\n      0xffffffffffffffffffffffffffffffffffffffff\n      and\n      eq\n        /* \"contracts/Lottery-App.sol\":919:987  require(msg.sender == owner, \"You are not the owner of the Lottery\") */\n      tag_43\n      jumpi\n      mload(0x40)\n      0x08c379a000000000000000000000000000000000000000000000000000000000\n      dup2\n      mstore\n      0x04\n      add\n      tag_44\n      swap1\n      tag_41\n      jump\t// in\n    tag_44:\n      mload(0x40)\n      dup1\n      swap2\n      sub\n      swap1\n      revert\n    tag_43:\n        /* \"contracts/Lottery-App.sol\":1025:1026  3 */\n      0x03\n        /* \"contracts/Lottery-App.sol\":1007:1014  players */\n      0x01\n        /* \"contracts/Lottery-App.sol\":1007:1021  players.length */\n      dup1\n      sload\n      swap1\n      pop\n        /* \"contracts/Lottery-App.sol\":1007:1026  players.length >= 3 */\n      lt\n      iszero\n        /* \"contracts/Lottery-App.sol\":999:1068  require(players.length >= 3, \"Players must be at least 3 or greater\") */\n      tag_45\n      jumpi\n      mload(0x40)\n      0x08c379a000000000000000000000000000000000000000000000000000000000\n      dup2\n      mstore\n      0x04\n      add\n      tag_46\n      swap1\n      tag_47\n      jump\t// in\n    tag_46:\n      mload(0x40)\n      dup1\n      swap2\n      sub\n      swap1\n      revert\n    tag_45:\n        /* \"contracts/Lottery-App.sol\":1080:1102  address payable winner */\n      0x00\n        /* \"contracts/Lottery-App.sol\":1114:1129  uint callRandom */\n      dup1\n        /* \"contracts/Lottery-App.sol\":1132:1140  random() */\n      tag_48\n        /* \"contracts/Lottery-App.sol\":1132:1138  random */\n      tag_24\n        /* \"contracts/Lottery-App.sol\":1132:1140  random() */\n      jump\t// in\n    tag_48:\n        /* \"contracts/Lottery-App.sol\":1114:1140  uint callRandom = random() */\n      swap1\n      pop\n        /* \"contracts/Lottery-App.sol\":1152:1162  uint index */\n      0x00\n        /* \"contracts/Lottery-App.sol\":1178:1185  players */\n      0x01\n        /* \"contracts/Lottery-App.sol\":1178:1192  players.length */\n      dup1\n      sload\n      swap1\n      pop\n        /* \"contracts/Lottery-App.sol\":1165:1175  callRandom */\n      dup3\n        /* \"contracts/Lottery-App.sol\":1165:1192  callRandom % players.length */\n      tag_49\n      swap2\n      swap1\n      tag_50\n      jump\t// in\n    tag_49:\n        /* \"contracts/Lottery-App.sol\":1152:1192  uint index = callRandom % players.length */\n      swap1\n      pop\n        /* \"contracts/Lottery-App.sol\":1213:1220  players */\n      0x01\n        /* \"contracts/Lottery-App.sol\":1221:1226  index */\n      dup2\n        /* \"contracts/Lottery-App.sol\":1213:1227  players[index] */\n      dup2\n      sload\n      dup2\n      lt\n      tag_51\n      jumpi\n      tag_52\n      tag_53\n      jump\t// in\n    tag_52:\n    tag_51:\n      swap1\n      0x00\n      mstore\n      keccak256(0x00, 0x20)\n      add\n      0x00\n      swap1\n      sload\n      swap1\n      0x0100\n      exp\n      swap1\n      div\n      0xffffffffffffffffffffffffffffffffffffffff\n      and\n        /* \"contracts/Lottery-App.sol\":1204:1227  winner = players[index] */\n      swap3\n      pop\n        /* \"contracts/Lottery-App.sol\":1239:1245  winner */\n      dup3\n        /* \"contracts/Lottery-App.sol\":1239:1254  winner.transfer */\n      0xffffffffffffffffffffffffffffffffffffffff\n      and\n        /* \"contracts/Lottery-App.sol\":1239:1268  winner.transfer(getBalance()) */\n      0x08fc\n        /* \"contracts/Lottery-App.sol\":1255:1267  getBalance() */\n      tag_55\n        /* \"contracts/Lottery-App.sol\":1255:1265  getBalance */\n      tag_16\n        /* \"contracts/Lottery-App.sol\":1255:1267  getBalance() */\n      jump\t// in\n    tag_55:\n        /* \"contracts/Lottery-App.sol\":1239:1268  winner.transfer(getBalance()) */\n      swap1\n      dup2\n      iszero\n      mul\n      swap1\n      mload(0x40)\n      0x00\n      mload(0x40)\n      dup1\n      dup4\n      sub\n      dup2\n      dup6\n      dup9\n      dup9\n      call\n      swap4\n      pop\n      pop\n      pop\n      pop\n      iszero\n      dup1\n      iszero\n      tag_57\n      jumpi\n      returndatasize\n      0x00\n      dup1\n      returndatacopy\n      revert(0x00, returndatasize)\n    tag_57:\n      pop\n        /* \"contracts/Lottery-App.sol\":1375:1376  0 */\n      0x00\n        /* \"contracts/Lottery-App.sol\":1353:1377  new address payable[](0) */\n      0xffffffffffffffff\n      dup2\n      gt\n      iszero\n      tag_58\n      jumpi\n      tag_59\n      tag_60\n      jump\t// in\n    tag_59:\n    tag_58:\n      mload(0x40)\n      swap1\n      dup1\n      dup3\n      mstore\n      dup1\n      0x20\n      mul\n      0x20\n      add\n      dup3\n      add\n      0x40\n      mstore\n      dup1\n      iszero\n      tag_61\n      jumpi\n      dup2\n      0x20\n      add\n      0x20\n      dup3\n      mul\n      dup1\n      calldatasize\n      dup4\n      calldatacopy\n      dup1\n      dup3\n      add\n      swap2\n      pop\n      pop\n      swap1\n      pop\n    tag_61:\n      pop\n        /* \"contracts/Lottery-App.sol\":1343:1350  players */\n      0x01\n        /* \"contracts/Lottery-App.sol\":1343:1377  players = new address payable[](0) */\n      swap1\n      dup1\n      mload\n      swap1\n      0x20\n      add\n      swap1\n      tag_62\n      swap3\n      swap2\n      swap1\n      tag_63\n      jump\t// in\n    tag_62:\n      pop\n        /* \"contracts/Lottery-App.sol\":907:1385  {... */\n      pop\n      pop\n      pop\n        /* \"contracts/Lottery-App.sol\":874:1385  function announceWinner() public {... */\n      jump\t// out\n        /* \"contracts/Lottery-App.sol\":714:866  function random() public view returns(uint) {... */\n    tag_24:\n        /* \"contracts/Lottery-App.sol\":752:756  uint */\n      0x00\n        /* \"contracts/Lottery-App.sol\":807:823  block.difficulty */\n      difficulty\n        /* \"contracts/Lottery-App.sol\":824:839  block.timestamp */\n      timestamp\n        /* \"contracts/Lottery-App.sol\":841:848  players */\n      0x01\n        /* \"contracts/Lottery-App.sol\":841:855  players.length */\n      dup1\n      sload\n      swap1\n      pop\n        /* \"contracts/Lottery-App.sol\":790:856  abi.encodePacked(block.difficulty,block.timestamp, players.length) */\n      add(0x20, mload(0x40))\n      tag_65\n      swap4\n      swap3\n      swap2\n      swap1\n      tag_66\n      jump\t// in\n    tag_65:\n      mload(0x40)\n      0x20\n      dup2\n      dup4\n      sub\n      sub\n      dup2\n      mstore\n      swap1\n      0x40\n      mstore\n        /* \"contracts/Lottery-App.sol\":780:857  keccak256(abi.encodePacked(block.difficulty,block.timestamp, players.length)) */\n      dup1\n      mload\n      swap1\n      0x20\n      add\n      keccak256\n        /* \"contracts/Lottery-App.sol\":775:858  uint(keccak256(abi.encodePacked(block.difficulty,block.timestamp, players.length))) */\n      0x00\n      shr\n        /* \"contracts/Lottery-App.sol\":768:858  return uint(keccak256(abi.encodePacked(block.difficulty,block.timestamp, players.length))) */\n      swap1\n      pop\n        /* \"contracts/Lottery-App.sol\":714:866  function random() public view returns(uint) {... */\n      swap1\n      jump\t// out\n        /* \"contracts/Lottery-App.sol\":96:116  address public owner */\n    tag_28:\n      0x00\n      dup1\n      sload\n      swap1\n      0x0100\n      exp\n      swap1\n      div\n      0xffffffffffffffffffffffffffffffffffffffff\n      and\n      dup2\n      jump\t// out\n        /* \"contracts/Lottery-App.sol\":123:155  address payable[] public players */\n    tag_35:\n      0x01\n      dup2\n      dup2\n      sload\n      dup2\n      lt\n      tag_67\n      jumpi\n      0x00\n      dup1\n      revert\n    tag_67:\n      swap1\n      0x00\n      mstore\n      keccak256(0x00, 0x20)\n      add\n      0x00\n      swap2\n      pop\n      sload\n      swap1\n      0x0100\n      exp\n      swap1\n      div\n      0xffffffffffffffffffffffffffffffffffffffff\n      and\n      dup2\n      jump\t// out\n    tag_63:\n      dup3\n      dup1\n      sload\n      dup3\n      dup3\n      sstore\n      swap1\n      0x00\n      mstore\n      keccak256(0x00, 0x20)\n      swap1\n      dup2\n      add\n      swap3\n      dup3\n      iszero\n      tag_69\n      jumpi\n      swap2\n      0x20\n      mul\n      dup3\n      add\n    tag_70:\n      dup3\n      dup2\n      gt\n      iszero\n      tag_71\n      jumpi\n      dup3\n      mload\n      dup3\n      exp(0x0100, 0x00)\n      dup2\n      sload\n      dup2\n      0xffffffffffffffffffffffffffffffffffffffff\n      mul\n      not\n      and\n      swap1\n      dup4\n      0xffffffffffffffffffffffffffffffffffffffff\n      and\n      mul\n      or\n      swap1\n      sstore\n      pop\n      swap2\n      0x20\n      add\n      swap2\n      swap1\n      0x01\n      add\n      swap1\n      jump(tag_70)\n    tag_71:\n    tag_69:\n      pop\n      swap1\n      pop\n      tag_72\n      swap2\n      swap1\n      tag_73\n      jump\t// in\n    tag_72:\n      pop\n      swap1\n      jump\t// out\n    tag_73:\n    tag_74:\n      dup1\n      dup3\n      gt\n      iszero\n      tag_75\n      jumpi\n      0x00\n      dup2\n      0x00\n      swap1\n      sstore\n      pop\n      0x01\n      add\n      jump(tag_74)\n    tag_75:\n      pop\n      swap1\n      jump\t// out\n        /* \"#utility.yul\":7:176   */\n    tag_76:\n        /* \"#utility.yul\":91:102   */\n      0x00\n        /* \"#utility.yul\":125:131   */\n      dup3\n        /* \"#utility.yul\":120:123   */\n      dup3\n        /* \"#utility.yul\":113:132   */\n      mstore\n        /* \"#utility.yul\":165:169   */\n      0x20\n        /* \"#utility.yul\":160:163   */\n      dup3\n        /* \"#utility.yul\":156:170   */\n      add\n        /* \"#utility.yul\":141:170   */\n      swap1\n      pop\n        /* \"#utility.yul\":7:176   */\n      swap3\n      swap2\n      pop\n      pop\n      jump\t// out\n        /* \"#utility.yul\":182:408   */\n    tag_77:\n        /* \"#utility.yul\":322:356   */\n      0x596f752063616e6e6f742070617274696369706174652077697468206c6f7720\n        /* \"#utility.yul\":318:319   */\n      0x00\n        /* \"#utility.yul\":310:316   */\n      dup3\n        /* \"#utility.yul\":306:320   */\n      add\n        /* \"#utility.yul\":299:357   */\n      mstore\n        /* \"#utility.yul\":391:400   */\n      0x62616c616e636500000000000000000000000000000000000000000000000000\n        /* \"#utility.yul\":386:388   */\n      0x20\n        /* \"#utility.yul\":378:384   */\n      dup3\n        /* \"#utility.yul\":374:389   */\n      add\n        /* \"#utility.yul\":367:401   */\n      mstore\n        /* \"#utility.yul\":182:408   */\n      pop\n      jump\t// out\n        /* \"#utility.yul\":414:780   */\n    tag_78:\n        /* \"#utility.yul\":556:559   */\n      0x00\n        /* \"#utility.yul\":577:644   */\n      tag_102\n        /* \"#utility.yul\":641:643   */\n      0x27\n        /* \"#utility.yul\":636:639   */\n      dup4\n        /* \"#utility.yul\":577:644   */\n      tag_76\n      jump\t// in\n    tag_102:\n        /* \"#utility.yul\":570:644   */\n      swap2\n      pop\n        /* \"#utility.yul\":653:746   */\n      tag_103\n        /* \"#utility.yul\":742:745   */\n      dup3\n        /* \"#utility.yul\":653:746   */\n      tag_77\n      jump\t// in\n    tag_103:\n        /* \"#utility.yul\":771:773   */\n      0x40\n        /* \"#utility.yul\":766:769   */\n      dup3\n        /* \"#utility.yul\":762:774   */\n      add\n        /* \"#utility.yul\":755:774   */\n      swap1\n      pop\n        /* \"#utility.yul\":414:780   */\n      swap2\n      swap1\n      pop\n      jump\t// out\n        /* \"#utility.yul\":786:1205   */\n    tag_12:\n        /* \"#utility.yul\":952:956   */\n      0x00\n        /* \"#utility.yul\":990:992   */\n      0x20\n        /* \"#utility.yul\":979:988   */\n      dup3\n        /* \"#utility.yul\":975:993   */\n      add\n        /* \"#utility.yul\":967:993   */\n      swap1\n      pop\n        /* \"#utility.yul\":1039:1048   */\n      dup2\n        /* \"#utility.yul\":1033:1037   */\n      dup2\n        /* \"#utility.yul\":1029:1049   */\n      sub\n        /* \"#utility.yul\":1025:1026   */\n      0x00\n        /* \"#utility.yul\":1014:1023   */\n      dup4\n        /* \"#utility.yul\":1010:1027   */\n      add\n        /* \"#utility.yul\":1003:1050   */\n      mstore\n        /* \"#utility.yul\":1067:1198   */\n      tag_105\n        /* \"#utility.yul\":1193:1197   */\n      dup2\n        /* \"#utility.yul\":1067:1198   */\n      tag_78\n      jump\t// in\n    tag_105:\n        /* \"#utility.yul\":1059:1198   */\n      swap1\n      pop\n        /* \"#utility.yul\":786:1205   */\n      swap2\n      swap1\n      pop\n      jump\t// out\n        /* \"#utility.yul\":1211:1288   */\n    tag_79:\n        /* \"#utility.yul\":1248:1255   */\n      0x00\n        /* \"#utility.yul\":1277:1282   */\n      dup2\n        /* \"#utility.yul\":1266:1282   */\n      swap1\n      pop\n        /* \"#utility.yul\":1211:1288   */\n      swap2\n      swap1\n      pop\n      jump\t// out\n        /* \"#utility.yul\":1294:1412   */\n    tag_80:\n        /* \"#utility.yul\":1381:1405   */\n      tag_108\n        /* \"#utility.yul\":1399:1404   */\n      dup2\n        /* \"#utility.yul\":1381:1405   */\n      tag_79\n      jump\t// in\n    tag_108:\n        /* \"#utility.yul\":1376:1379   */\n      dup3\n        /* \"#utility.yul\":1369:1406   */\n      mstore\n        /* \"#utility.yul\":1294:1412   */\n      pop\n      pop\n      jump\t// out\n        /* \"#utility.yul\":1418:1640   */\n    tag_18:\n        /* \"#utility.yul\":1511:1515   */\n      0x00\n        /* \"#utility.yul\":1549:1551   */\n      0x20\n        /* \"#utility.yul\":1538:1547   */\n      dup3\n        /* \"#utility.yul\":1534:1552   */\n      add\n        /* \"#utility.yul\":1526:1552   */\n      swap1\n      pop\n        /* \"#utility.yul\":1562:1633   */\n      tag_110\n        /* \"#utility.yul\":1630:1631   */\n      0x00\n        /* \"#utility.yul\":1619:1628   */\n      dup4\n        /* \"#utility.yul\":1615:1632   */\n      add\n        /* \"#utility.yul\":1606:1612   */\n      dup5\n        /* \"#utility.yul\":1562:1633   */\n      tag_80\n      jump\t// in\n    tag_110:\n        /* \"#utility.yul\":1418:1640   */\n      swap3\n      swap2\n      pop\n      pop\n      jump\t// out\n        /* \"#utility.yul\":1646:1772   */\n    tag_81:\n        /* \"#utility.yul\":1683:1690   */\n      0x00\n        /* \"#utility.yul\":1723:1765   */\n      0xffffffffffffffffffffffffffffffffffffffff\n        /* \"#utility.yul\":1716:1721   */\n      dup3\n        /* \"#utility.yul\":1712:1766   */\n      and\n        /* \"#utility.yul\":1701:1766   */\n      swap1\n      pop\n        /* \"#utility.yul\":1646:1772   */\n      swap2\n      swap1\n      pop\n      jump\t// out\n        /* \"#utility.yul\":1778:1874   */\n    tag_82:\n        /* \"#utility.yul\":1815:1822   */\n      0x00\n        /* \"#utility.yul\":1844:1868   */\n      tag_113\n        /* \"#utility.yul\":1862:1867   */\n      dup3\n        /* \"#utility.yul\":1844:1868   */\n      tag_81\n      jump\t// in\n    tag_113:\n        /* \"#utility.yul\":1833:1868   */\n      swap1\n      pop\n        /* \"#utility.yul\":1778:1874   */\n      swap2\n      swap1\n      pop\n      jump\t// out\n        /* \"#utility.yul\":1880:1998   */\n    tag_83:\n        /* \"#utility.yul\":1967:1991   */\n      tag_115\n        /* \"#utility.yul\":1985:1990   */\n      dup2\n        /* \"#utility.yul\":1967:1991   */\n      tag_82\n      jump\t// in\n    tag_115:\n        /* \"#utility.yul\":1962:1965   */\n      dup3\n        /* \"#utility.yul\":1955:1992   */\n      mstore\n        /* \"#utility.yul\":1880:1998   */\n      pop\n      pop\n      jump\t// out\n        /* \"#utility.yul\":2004:2226   */\n    tag_30:\n        /* \"#utility.yul\":2097:2101   */\n      0x00\n        /* \"#utility.yul\":2135:2137   */\n      0x20\n        /* \"#utility.yul\":2124:2133   */\n      dup3\n        /* \"#utility.yul\":2120:2138   */\n      add\n        /* \"#utility.yul\":2112:2138   */\n      swap1\n      pop\n        /* \"#utility.yul\":2148:2219   */\n      tag_117\n        /* \"#utility.yul\":2216:2217   */\n      0x00\n        /* \"#utility.yul\":2205:2214   */\n      dup4\n        /* \"#utility.yul\":2201:2218   */\n      add\n        /* \"#utility.yul\":2192:2198   */\n      dup5\n        /* \"#utility.yul\":2148:2219   */\n      tag_83\n      jump\t// in\n    tag_117:\n        /* \"#utility.yul\":2004:2226   */\n      swap3\n      swap2\n      pop\n      pop\n      jump\t// out\n        /* \"#utility.yul\":2313:2430   */\n    tag_85:\n        /* \"#utility.yul\":2422:2423   */\n      0x00\n        /* \"#utility.yul\":2419:2420   */\n      dup1\n        /* \"#utility.yul\":2412:2424   */\n      revert\n        /* \"#utility.yul\":2559:2681   */\n    tag_87:\n        /* \"#utility.yul\":2632:2656   */\n      tag_122\n        /* \"#utility.yul\":2650:2655   */\n      dup2\n        /* \"#utility.yul\":2632:2656   */\n      tag_79\n      jump\t// in\n    tag_122:\n        /* \"#utility.yul\":2625:2630   */\n      dup2\n        /* \"#utility.yul\":2622:2657   */\n      eq\n        /* \"#utility.yul\":2612:2675   */\n      tag_123\n      jumpi\n        /* \"#utility.yul\":2671:2672   */\n      0x00\n        /* \"#utility.yul\":2668:2669   */\n      dup1\n        /* \"#utility.yul\":2661:2673   */\n      revert\n        /* \"#utility.yul\":2612:2675   */\n    tag_123:\n        /* \"#utility.yul\":2559:2681   */\n      pop\n      jump\t// out\n        /* \"#utility.yul\":2687:2826   */\n    tag_88:\n        /* \"#utility.yul\":2733:2738   */\n      0x00\n        /* \"#utility.yul\":2771:2777   */\n      dup2\n        /* \"#utility.yul\":2758:2778   */\n      calldataload\n        /* \"#utility.yul\":2749:2778   */\n      swap1\n      pop\n        /* \"#utility.yul\":2787:2820   */\n      tag_125\n        /* \"#utility.yul\":2814:2819   */\n      dup2\n        /* \"#utility.yul\":2787:2820   */\n      tag_87\n      jump\t// in\n    tag_125:\n        /* \"#utility.yul\":2687:2826   */\n      swap3\n      swap2\n      pop\n      pop\n      jump\t// out\n        /* \"#utility.yul\":2832:3161   */\n    tag_34:\n        /* \"#utility.yul\":2891:2897   */\n      0x00\n        /* \"#utility.yul\":2940:2942   */\n      0x20\n        /* \"#utility.yul\":2928:2937   */\n      dup3\n        /* \"#utility.yul\":2919:2926   */\n      dup5\n        /* \"#utility.yul\":2915:2938   */\n      sub\n        /* \"#utility.yul\":2911:2943   */\n      slt\n        /* \"#utility.yul\":2908:3027   */\n      iszero\n      tag_127\n      jumpi\n        /* \"#utility.yul\":2946:3025   */\n      tag_128\n      tag_85\n      jump\t// in\n    tag_128:\n        /* \"#utility.yul\":2908:3027   */\n    tag_127:\n        /* \"#utility.yul\":3066:3067   */\n      0x00\n        /* \"#utility.yul\":3091:3144   */\n      tag_129\n        /* \"#utility.yul\":3136:3143   */\n      dup5\n        /* \"#utility.yul\":3127:3133   */\n      dup3\n        /* \"#utility.yul\":3116:3125   */\n      dup6\n        /* \"#utility.yul\":3112:3134   */\n      add\n        /* \"#utility.yul\":3091:3144   */\n      tag_88\n      jump\t// in\n    tag_129:\n        /* \"#utility.yul\":3081:3144   */\n      swap2\n      pop\n        /* \"#utility.yul\":3037:3154   */\n      pop\n        /* \"#utility.yul\":2832:3161   */\n      swap3\n      swap2\n      pop\n      pop\n      jump\t// out\n        /* \"#utility.yul\":3167:3271   */\n    tag_89:\n        /* \"#utility.yul\":3212:3219   */\n      0x00\n        /* \"#utility.yul\":3241:3265   */\n      tag_131\n        /* \"#utility.yul\":3259:3264   */\n      dup3\n        /* \"#utility.yul\":3241:3265   */\n      tag_81\n      jump\t// in\n    tag_131:\n        /* \"#utility.yul\":3230:3265   */\n      swap1\n      pop\n        /* \"#utility.yul\":3167:3271   */\n      swap2\n      swap1\n      pop\n      jump\t// out\n        /* \"#utility.yul\":3277:3419   */\n    tag_90:\n        /* \"#utility.yul\":3380:3412   */\n      tag_133\n        /* \"#utility.yul\":3406:3411   */\n      dup2\n        /* \"#utility.yul\":3380:3412   */\n      tag_89\n      jump\t// in\n    tag_133:\n        /* \"#utility.yul\":3375:3378   */\n      dup3\n        /* \"#utility.yul\":3368:3413   */\n      mstore\n        /* \"#utility.yul\":3277:3419   */\n      pop\n      pop\n      jump\t// out\n        /* \"#utility.yul\":3425:3679   */\n    tag_37:\n        /* \"#utility.yul\":3534:3538   */\n      0x00\n        /* \"#utility.yul\":3572:3574   */\n      0x20\n        /* \"#utility.yul\":3561:3570   */\n      dup3\n        /* \"#utility.yul\":3557:3575   */\n      add\n        /* \"#utility.yul\":3549:3575   */\n      swap1\n      pop\n        /* \"#utility.yul\":3585:3672   */\n      tag_135\n        /* \"#utility.yul\":3669:3670   */\n      0x00\n        /* \"#utility.yul\":3658:3667   */\n      dup4\n        /* \"#utility.yul\":3654:3671   */\n      add\n        /* \"#utility.yul\":3645:3651   */\n      dup5\n        /* \"#utility.yul\":3585:3672   */\n      tag_90\n      jump\t// in\n    tag_135:\n        /* \"#utility.yul\":3425:3679   */\n      swap3\n      swap2\n      pop\n      pop\n      jump\t// out\n        /* \"#utility.yul\":3685:3908   */\n    tag_91:\n        /* \"#utility.yul\":3825:3859   */\n      0x596f7520617265206e6f7420746865206f776e6572206f6620746865204c6f74\n        /* \"#utility.yul\":3821:3822   */\n      0x00\n        /* \"#utility.yul\":3813:3819   */\n      dup3\n        /* \"#utility.yul\":3809:3823   */\n      add\n        /* \"#utility.yul\":3802:3860   */\n      mstore\n        /* \"#utility.yul\":3894:3900   */\n      0x7465727900000000000000000000000000000000000000000000000000000000\n        /* \"#utility.yul\":3889:3891   */\n      0x20\n        /* \"#utility.yul\":3881:3887   */\n      dup3\n        /* \"#utility.yul\":3877:3892   */\n      add\n        /* \"#utility.yul\":3870:3901   */\n      mstore\n        /* \"#utility.yul\":3685:3908   */\n      pop\n      jump\t// out\n        /* \"#utility.yul\":3914:4280   */\n    tag_92:\n        /* \"#utility.yul\":4056:4059   */\n      0x00\n        /* \"#utility.yul\":4077:4144   */\n      tag_138\n        /* \"#utility.yul\":4141:4143   */\n      0x24\n        /* \"#utility.yul\":4136:4139   */\n      dup4\n        /* \"#utility.yul\":4077:4144   */\n      tag_76\n      jump\t// in\n    tag_138:\n        /* \"#utility.yul\":4070:4144   */\n      swap2\n      pop\n        /* \"#utility.yul\":4153:4246   */\n      tag_139\n        /* \"#utility.yul\":4242:4245   */\n      dup3\n        /* \"#utility.yul\":4153:4246   */\n      tag_91\n      jump\t// in\n    tag_139:\n        /* \"#utility.yul\":4271:4273   */\n      0x40\n        /* \"#utility.yul\":4266:4269   */\n      dup3\n        /* \"#utility.yul\":4262:4274   */\n      add\n        /* \"#utility.yul\":4255:4274   */\n      swap1\n      pop\n        /* \"#utility.yul\":3914:4280   */\n      swap2\n      swap1\n      pop\n      jump\t// out\n        /* \"#utility.yul\":4286:4705   */\n    tag_41:\n        /* \"#utility.yul\":4452:4456   */\n      0x00\n        /* \"#utility.yul\":4490:4492   */\n      0x20\n        /* \"#utility.yul\":4479:4488   */\n      dup3\n        /* \"#utility.yul\":4475:4493   */\n      add\n        /* \"#utility.yul\":4467:4493   */\n      swap1\n      pop\n        /* \"#utility.yul\":4539:4548   */\n      dup2\n        /* \"#utility.yul\":4533:4537   */\n      dup2\n        /* \"#utility.yul\":4529:4549   */\n      sub\n        /* \"#utility.yul\":4525:4526   */\n      0x00\n        /* \"#utility.yul\":4514:4523   */\n      dup4\n        /* \"#utility.yul\":4510:4527   */\n      add\n        /* \"#utility.yul\":4503:4550   */\n      mstore\n        /* \"#utility.yul\":4567:4698   */\n      tag_141\n        /* \"#utility.yul\":4693:4697   */\n      dup2\n        /* \"#utility.yul\":4567:4698   */\n      tag_92\n      jump\t// in\n    tag_141:\n        /* \"#utility.yul\":4559:4698   */\n      swap1\n      pop\n        /* \"#utility.yul\":4286:4705   */\n      swap2\n      swap1\n      pop\n      jump\t// out\n        /* \"#utility.yul\":4711:4935   */\n    tag_93:\n        /* \"#utility.yul\":4851:4885   */\n      0x506c6179657273206d757374206265206174206c656173742033206f72206772\n        /* \"#utility.yul\":4847:4848   */\n      0x00\n        /* \"#utility.yul\":4839:4845   */\n      dup3\n        /* \"#utility.yul\":4835:4849   */\n      add\n        /* \"#utility.yul\":4828:4886   */\n      mstore\n        /* \"#utility.yul\":4920:4927   */\n      0x6561746572000000000000000000000000000000000000000000000000000000\n        /* \"#utility.yul\":4915:4917   */\n      0x20\n        /* \"#utility.yul\":4907:4913   */\n      dup3\n        /* \"#utility.yul\":4903:4918   */\n      add\n        /* \"#utility.yul\":4896:4928   */\n      mstore\n        /* \"#utility.yul\":4711:4935   */\n      pop\n      jump\t// out\n        /* \"#utility.yul\":4941:5307   */\n    tag_94:\n        /* \"#utility.yul\":5083:5086   */\n      0x00\n        /* \"#utility.yul\":5104:5171   */\n      tag_144\n        /* \"#utility.yul\":5168:5170   */\n      0x25\n        /* \"#utility.yul\":5163:5166   */\n      dup4\n        /* \"#utility.yul\":5104:5171   */\n      tag_76\n      jump\t// in\n    tag_144:\n        /* \"#utility.yul\":5097:5171   */\n      swap2\n      pop\n        /* \"#utility.yul\":5180:5273   */\n      tag_145\n        /* \"#utility.yul\":5269:5272   */\n      dup3\n        /* \"#utility.yul\":5180:5273   */\n      tag_93\n      jump\t// in\n    tag_145:\n        /* \"#utility.yul\":5298:5300   */\n      0x40\n        /* \"#utility.yul\":5293:5296   */\n      dup3\n        /* \"#utility.yul\":5289:5301   */\n      add\n        /* \"#utility.yul\":5282:5301   */\n      swap1\n      pop\n        /* \"#utility.yul\":4941:5307   */\n      swap2\n      swap1\n      pop\n      jump\t// out\n        /* \"#utility.yul\":5313:5732   */\n    tag_47:\n        /* \"#utility.yul\":5479:5483   */\n      0x00\n        /* \"#utility.yul\":5517:5519   */\n      0x20\n        /* \"#utility.yul\":5506:5515   */\n      dup3\n        /* \"#utility.yul\":5502:5520   */\n      add\n        /* \"#utility.yul\":5494:5520   */\n      swap1\n      pop\n        /* \"#utility.yul\":5566:5575   */\n      dup2\n        /* \"#utility.yul\":5560:5564   */\n      dup2\n        /* \"#utility.yul\":5556:5576   */\n      sub\n        /* \"#utility.yul\":5552:5553   */\n      0x00\n        /* \"#utility.yul\":5541:5550   */\n      dup4\n        /* \"#utility.yul\":5537:5554   */\n      add\n        /* \"#utility.yul\":5530:5577   */\n      mstore\n        /* \"#utility.yul\":5594:5725   */\n      tag_147\n        /* \"#utility.yul\":5720:5724   */\n      dup2\n        /* \"#utility.yul\":5594:5725   */\n      tag_94\n      jump\t// in\n    tag_147:\n        /* \"#utility.yul\":5586:5725   */\n      swap1\n      pop\n        /* \"#utility.yul\":5313:5732   */\n      swap2\n      swap1\n      pop\n      jump\t// out\n        /* \"#utility.yul\":5738:5918   */\n    tag_95:\n        /* \"#utility.yul\":5786:5863   */\n      0x4e487b7100000000000000000000000000000000000000000000000000000000\n        /* \"#utility.yul\":5783:5784   */\n      0x00\n        /* \"#utility.yul\":5776:5864   */\n      mstore\n        /* \"#utility.yul\":5883:5887   */\n      0x12\n        /* \"#utility.yul\":5880:5881   */\n      0x04\n        /* \"#utility.yul\":5873:5888   */\n      mstore\n        /* \"#utility.yul\":5907:5911   */\n      0x24\n        /* \"#utility.yul\":5904:5905   */\n      0x00\n        /* \"#utility.yul\":5897:5912   */\n      revert\n        /* \"#utility.yul\":5924:6100   */\n    tag_50:\n        /* \"#utility.yul\":5956:5957   */\n      0x00\n        /* \"#utility.yul\":5973:5993   */\n      tag_150\n        /* \"#utility.yul\":5991:5992   */\n      dup3\n        /* \"#utility.yul\":5973:5993   */\n      tag_79\n      jump\t// in\n    tag_150:\n        /* \"#utility.yul\":5968:5993   */\n      swap2\n      pop\n        /* \"#utility.yul\":6007:6027   */\n      tag_151\n        /* \"#utility.yul\":6025:6026   */\n      dup4\n        /* \"#utility.yul\":6007:6027   */\n      tag_79\n      jump\t// in\n    tag_151:\n        /* \"#utility.yul\":6002:6027   */\n      swap3\n      pop\n        /* \"#utility.yul\":6046:6047   */\n      dup3\n        /* \"#utility.yul\":6036:6071   */\n      tag_152\n      jumpi\n        /* \"#utility.yul\":6051:6069   */\n      tag_153\n      tag_95\n      jump\t// in\n    tag_153:\n        /* \"#utility.yul\":6036:6071   */\n    tag_152:\n        /* \"#utility.yul\":6092:6093   */\n      dup3\n        /* \"#utility.yul\":6089:6090   */\n      dup3\n        /* \"#utility.yul\":6085:6094   */\n      mod\n        /* \"#utility.yul\":6080:6094   */\n      swap1\n      pop\n        /* \"#utility.yul\":5924:6100   */\n      swap3\n      swap2\n      pop\n      pop\n      jump\t// out\n        /* \"#utility.yul\":6106:6286   */\n    tag_53:\n        /* \"#utility.yul\":6154:6231   */\n      0x4e487b7100000000000000000000000000000000000000000000000000000000\n        /* \"#utility.yul\":6151:6152   */\n      0x00\n        /* \"#utility.yul\":6144:6232   */\n      mstore\n        /* \"#utility.yul\":6251:6255   */\n      0x32\n        /* \"#utility.yul\":6248:6249   */\n      0x04\n        /* \"#utility.yul\":6241:6256   */\n      mstore\n        /* \"#utility.yul\":6275:6279   */\n      0x24\n        /* \"#utility.yul\":6272:6273   */\n      0x00\n        /* \"#utility.yul\":6265:6280   */\n      revert\n        /* \"#utility.yul\":6292:6472   */\n    tag_60:\n        /* \"#utility.yul\":6340:6417   */\n      0x4e487b7100000000000000000000000000000000000000000000000000000000\n        /* \"#utility.yul\":6337:6338   */\n      0x00\n        /* \"#utility.yul\":6330:6418   */\n      mstore\n        /* \"#utility.yul\":6437:6441   */\n      0x41\n        /* \"#utility.yul\":6434:6435   */\n      0x04\n        /* \"#utility.yul\":6427:6442   */\n      mstore\n        /* \"#utility.yul\":6461:6465   */\n      0x24\n        /* \"#utility.yul\":6458:6459   */\n      0x00\n        /* \"#utility.yul\":6451:6466   */\n      revert\n        /* \"#utility.yul\":6478:6557   */\n    tag_96:\n        /* \"#utility.yul\":6517:6524   */\n      0x00\n        /* \"#utility.yul\":6546:6551   */\n      dup2\n        /* \"#utility.yul\":6535:6551   */\n      swap1\n      pop\n        /* \"#utility.yul\":6478:6557   */\n      swap2\n      swap1\n      pop\n      jump\t// out\n        /* \"#utility.yul\":6563:6720   */\n    tag_97:\n        /* \"#utility.yul\":6668:6713   */\n      tag_158\n        /* \"#utility.yul\":6688:6712   */\n      tag_159\n        /* \"#utility.yul\":6706:6711   */\n      dup3\n        /* \"#utility.yul\":6688:6712   */\n      tag_79\n      jump\t// in\n    tag_159:\n        /* \"#utility.yul\":6668:6713   */\n      tag_96\n      jump\t// in\n    tag_158:\n        /* \"#utility.yul\":6663:6666   */\n      dup3\n        /* \"#utility.yul\":6656:6714   */\n      mstore\n        /* \"#utility.yul\":6563:6720   */\n      pop\n      pop\n      jump\t// out\n        /* \"#utility.yul\":6726:7264   */\n    tag_66:\n        /* \"#utility.yul\":6894:6897   */\n      0x00\n        /* \"#utility.yul\":6909:6984   */\n      tag_161\n        /* \"#utility.yul\":6980:6983   */\n      dup3\n        /* \"#utility.yul\":6971:6977   */\n      dup7\n        /* \"#utility.yul\":6909:6984   */\n      tag_97\n      jump\t// in\n    tag_161:\n        /* \"#utility.yul\":7009:7011   */\n      0x20\n        /* \"#utility.yul\":7004:7007   */\n      dup3\n        /* \"#utility.yul\":7000:7012   */\n      add\n        /* \"#utility.yul\":6993:7012   */\n      swap2\n      pop\n        /* \"#utility.yul\":7022:7097   */\n      tag_162\n        /* \"#utility.yul\":7093:7096   */\n      dup3\n        /* \"#utility.yul\":7084:7090   */\n      dup6\n        /* \"#utility.yul\":7022:7097   */\n      tag_97\n      jump\t// in\n    tag_162:\n        /* \"#utility.yul\":7122:7124   */\n      0x20\n        /* \"#utility.yul\":7117:7120   */\n      dup3\n        /* \"#utility.yul\":7113:7125   */\n      add\n        /* \"#utility.yul\":7106:7125   */\n      swap2\n      pop\n        /* \"#utility.yul\":7135:7210   */\n      tag_163\n        /* \"#utility.yul\":7206:7209   */\n      dup3\n        /* \"#utility.yul\":7197:7203   */\n      dup5\n        /* \"#utility.yul\":7135:7210   */\n      tag_97\n      jump\t// in\n    tag_163:\n        /* \"#utility.yul\":7235:7237   */\n      0x20\n        /* \"#utility.yul\":7230:7233   */\n      dup3\n        /* \"#utility.yul\":7226:7238   */\n      add\n        /* \"#utility.yul\":7219:7238   */\n      swap2\n      pop\n        /* \"#utility.yul\":7255:7258   */\n      dup2\n        /* \"#utility.yul\":7248:7258   */\n      swap1\n      pop\n        /* \"#utility.yul\":6726:7264   */\n      swap5\n      swap4\n      pop\n      pop\n      pop\n      pop\n      jump\t// out\n\n    auxdata: 0xa2646970667358221220576dd6e7ef2b81e95483f216758b978a39536a2de461e94610cc84365a74f13264736f6c634300080d0033\n}\n",
				"bytecode": {
					"linkReferences": {},
					"object": "608060405234801561001057600080fd5b50336000806101000a81548173ffffffffffffffffffffffffffffffffffffffff021916908373ffffffffffffffffffffffffffffffffffffffff1602179055506109e1806100606000396000f3fe60806040526004361061004e5760003560e01c806312065fe0146101015780632d8cd0961461012c5780635ec01e4d146101435780638da5cb5b1461016e578063f71d96cb14610199576100fc565b366100fc576101f4341015610098576040517f08c379a000000000000000000000000000000000000000000000000000000000815260040161008f90610621565b60405180910390fd5b6001339080600181540180825580915050600190039060005260206000200160009091909190916101000a81548173ffffffffffffffffffffffffffffffffffffffff021916908373ffffffffffffffffffffffffffffffffffffffff1602179055005b600080fd5b34801561010d57600080fd5b506101166101d6565b604051610123919061065a565b60405180910390f35b34801561013857600080fd5b5061014161026d565b005b34801561014f57600080fd5b5061015861045a565b604051610165919061065a565b60405180910390f35b34801561017a57600080fd5b50610183610494565b60405161019091906106b6565b60405180910390f35b3480156101a557600080fd5b506101c060048036038101906101bb9190610702565b6104b8565b6040516101cd9190610750565b60405180910390f35b60008060009054906101000a900473ffffffffffffffffffffffffffffffffffffffff1673ffffffffffffffffffffffffffffffffffffffff163373ffffffffffffffffffffffffffffffffffffffff1614610267576040517f08c379a000000000000000000000000000000000000000000000000000000000815260040161025e906107dd565b60405180910390fd5b47905090565b60008054906101000a900473ffffffffffffffffffffffffffffffffffffffff1673ffffffffffffffffffffffffffffffffffffffff163373ffffffffffffffffffffffffffffffffffffffff16146102fb576040517f08c379a00000000000000000000000000000000000000000000000000000000081526004016102f2906107dd565b60405180910390fd5b60036001805490501015610344576040517f08c379a000000000000000000000000000000000000000000000000000000000815260040161033b9061086f565b60405180910390fd5b60008061034f61045a565b905060006001805490508261036491906108be565b90506001818154811061037a576103796108ef565b5b9060005260206000200160009054906101000a900473ffffffffffffffffffffffffffffffffffffffff1692508273ffffffffffffffffffffffffffffffffffffffff166108fc6103c96101d6565b9081150290604051600060405180830381858888f193505050501580156103f4573d6000803e3d6000fd5b50600067ffffffffffffffff8111156104105761040f61091e565b5b60405190808252806020026020018201604052801561043e5781602001602082028036833780820191505090505b50600190805190602001906104549291906104f7565b50505050565b600044426001805490506040516020016104769392919061096e565b6040516020818303038152906040528051906020012060001c905090565b60008054906101000a900473ffffffffffffffffffffffffffffffffffffffff1681565b600181815481106104c857600080fd5b906000526020600020016000915054906101000a900473ffffffffffffffffffffffffffffffffffffffff1681565b828054828255906000526020600020908101928215610570579160200282015b8281111561056f5782518260006101000a81548173ffffffffffffffffffffffffffffffffffffffff021916908373ffffffffffffffffffffffffffffffffffffffff16021790555091602001919060010190610517565b5b50905061057d9190610581565b5090565b5b8082111561059a576000816000905550600101610582565b5090565b600082825260208201905092915050565b7f596f752063616e6e6f742070617274696369706174652077697468206c6f772060008201527f62616c616e636500000000000000000000000000000000000000000000000000602082015250565b600061060b60278361059e565b9150610616826105af565b604082019050919050565b6000602082019050818103600083015261063a816105fe565b9050919050565b6000819050919050565b61065481610641565b82525050565b600060208201905061066f600083018461064b565b92915050565b600073ffffffffffffffffffffffffffffffffffffffff82169050919050565b60006106a082610675565b9050919050565b6106b081610695565b82525050565b60006020820190506106cb60008301846106a7565b92915050565b600080fd5b6106df81610641565b81146106ea57600080fd5b50565b6000813590506106fc816106d6565b92915050565b600060208284031215610718576107176106d1565b5b6000610726848285016106ed565b91505092915050565b600061073a82610675565b9050919050565b61074a8161072f565b82525050565b60006020820190506107656000830184610741565b92915050565b7f596f7520617265206e6f7420746865206f776e6572206f6620746865204c6f7460008201527f7465727900000000000000000000000000000000000000000000000000000000602082015250565b60006107c760248361059e565b91506107d28261076b565b604082019050919050565b600060208201905081810360008301526107f6816107ba565b9050919050565b7f506c6179657273206d757374206265206174206c656173742033206f7220677260008201527f6561746572000000000000000000000000000000000000000000000000000000602082015250565b600061085960258361059e565b9150610864826107fd565b604082019050919050565b600060208201905081810360008301526108888161084c565b9050919050565b7f4e487b7100000000000000000000000000000000000000000000000000000000600052601260045260246000fd5b60006108c982610641565b91506108d483610641565b9250826108e4576108e361088f565b5b828206905092915050565b7f4e487b7100000000000000000000000000000000000000000000000000000000600052603260045260246000fd5b7f4e487b7100000000000000000000000000000000000000000000000000000000600052604160045260246000fd5b6000819050919050565b61096861096382610641565b61094d565b82525050565b600061097a8286610957565b60208201915061098a8285610957565b60208201915061099a8284610957565b60208201915081905094935050505056fea2646970667358221220576dd6e7ef2b81e95483f216758b978a39536a2de461e94610cc84365a74f13264736f6c634300080d0033",
					"opcodes": "PUSH1 0x80 PUSH1 0x40 MSTORE CALLVALUE DUP1 ISZERO PUSH2 0x10 JUMPI PUSH1 0x0 DUP1 REVERT JUMPDEST POP CALLER PUSH1 0x0 DUP1 PUSH2 0x100 EXP DUP2 SLOAD DUP2 PUSH20 0xFFFFFFFFFFFFFFFFFFFFFFFFFFFFFFFFFFFFFFFF MUL NOT AND SWAP1 DUP4 PUSH20 0xFFFFFFFFFFFFFFFFFFFFFFFFFFFFFFFFFFFFFFFF AND MUL OR SWAP1 SSTORE POP PUSH2 0x9E1 DUP1 PUSH2 0x60 PUSH1 0x0 CODECOPY PUSH1 0x0 RETURN INVALID PUSH1 0x80 PUSH1 0x40 MSTORE PUSH1 0x4 CALLDATASIZE LT PUSH2 0x4E JUMPI PUSH1 0x0 CALLDATALOAD PUSH1 0xE0 SHR DUP1 PUSH4 0x12065FE0 EQ PUSH2 0x101 JUMPI DUP1 PUSH4 0x2D8CD096 EQ PUSH2 0x12C JUMPI DUP1 PUSH4 0x5EC01E4D EQ PUSH2 0x143 JUMPI DUP1 PUSH4 0x8DA5CB5B EQ PUSH2 0x16E JUMPI DUP1 PUSH4 0xF71D96CB EQ PUSH2 0x199 JUMPI PUSH2 0xFC JUMP JUMPDEST CALLDATASIZE PUSH2 0xFC JUMPI PUSH2 0x1F4 CALLVALUE LT ISZERO PUSH2 0x98 JUMPI PUSH1 0x40 MLOAD PUSH32 0x8C379A000000000000000000000000000000000000000000000000000000000 DUP2 MSTORE PUSH1 0x4 ADD PUSH2 0x8F SWAP1 PUSH2 0x621 JUMP JUMPDEST PUSH1 0x40 MLOAD DUP1 SWAP2 SUB SWAP1 REVERT JUMPDEST PUSH1 0x1 CALLER SWAP1 DUP1 PUSH1 0x1 DUP2 SLOAD ADD DUP1 DUP3 SSTORE DUP1 SWAP2 POP POP PUSH1 0x1 SWAP1 SUB SWAP1 PUSH1 0x0 MSTORE PUSH1 0x20 PUSH1 0x0 KECCAK256 ADD PUSH1 0x0 SWAP1 SWAP2 SWAP1 SWAP2 SWAP1 SWAP2 PUSH2 0x100 EXP DUP2 SLOAD DUP2 PUSH20 0xFFFFFFFFFFFFFFFFFFFFFFFFFFFFFFFFFFFFFFFF MUL NOT AND SWAP1 DUP4 PUSH20 0xFFFFFFFFFFFFFFFFFFFFFFFFFFFFFFFFFFFFFFFF AND MUL OR SWAP1 SSTORE STOP JUMPDEST PUSH1 0x0 DUP1 REVERT JUMPDEST CALLVALUE DUP1 ISZERO PUSH2 0x10D JUMPI PUSH1 0x0 DUP1 REVERT JUMPDEST POP PUSH2 0x116 PUSH2 0x1D6 JUMP JUMPDEST PUSH1 0x40 MLOAD PUSH2 0x123 SWAP2 SWAP1 PUSH2 0x65A JUMP JUMPDEST PUSH1 0x40 MLOAD DUP1 SWAP2 SUB SWAP1 RETURN JUMPDEST CALLVALUE DUP1 ISZERO PUSH2 0x138 JUMPI PUSH1 0x0 DUP1 REVERT JUMPDEST POP PUSH2 0x141 PUSH2 0x26D JUMP JUMPDEST STOP JUMPDEST CALLVALUE DUP1 ISZERO PUSH2 0x14F JUMPI PUSH1 0x0 DUP1 REVERT JUMPDEST POP PUSH2 0x158 PUSH2 0x45A JUMP JUMPDEST PUSH1 0x40 MLOAD PUSH2 0x165 SWAP2 SWAP1 PUSH2 0x65A JUMP JUMPDEST PUSH1 0x40 MLOAD DUP1 SWAP2 SUB SWAP1 RETURN JUMPDEST CALLVALUE DUP1 ISZERO PUSH2 0x17A JUMPI PUSH1 0x0 DUP1 REVERT JUMPDEST POP PUSH2 0x183 PUSH2 0x494 JUMP JUMPDEST PUSH1 0x40 MLOAD PUSH2 0x190 SWAP2 SWAP1 PUSH2 0x6B6 JUMP JUMPDEST PUSH1 0x40 MLOAD DUP1 SWAP2 SUB SWAP1 RETURN JUMPDEST CALLVALUE DUP1 ISZERO PUSH2 0x1A5 JUMPI PUSH1 0x0 DUP1 REVERT JUMPDEST POP PUSH2 0x1C0 PUSH1 0x4 DUP1 CALLDATASIZE SUB DUP2 ADD SWAP1 PUSH2 0x1BB SWAP2 SWAP1 PUSH2 0x702 JUMP JUMPDEST PUSH2 0x4B8 JUMP JUMPDEST PUSH1 0x40 MLOAD PUSH2 0x1CD SWAP2 SWAP1 PUSH2 0x750 JUMP JUMPDEST PUSH1 0x40 MLOAD DUP1 SWAP2 SUB SWAP1 RETURN JUMPDEST PUSH1 0x0 DUP1 PUSH1 0x0 SWAP1 SLOAD SWAP1 PUSH2 0x100 EXP SWAP1 DIV PUSH20 0xFFFFFFFFFFFFFFFFFFFFFFFFFFFFFFFFFFFFFFFF AND PUSH20 0xFFFFFFFFFFFFFFFFFFFFFFFFFFFFFFFFFFFFFFFF AND CALLER PUSH20 0xFFFFFFFFFFFFFFFFFFFFFFFFFFFFFFFFFFFFFFFF AND EQ PUSH2 0x267 JUMPI PUSH1 0x40 MLOAD PUSH32 0x8C379A000000000000000000000000000000000000000000000000000000000 DUP2 MSTORE PUSH1 0x4 ADD PUSH2 0x25E SWAP1 PUSH2 0x7DD JUMP JUMPDEST PUSH1 0x40 MLOAD DUP1 SWAP2 SUB SWAP1 REVERT JUMPDEST SELFBALANCE SWAP1 POP SWAP1 JUMP JUMPDEST PUSH1 0x0 DUP1 SLOAD SWAP1 PUSH2 0x100 EXP SWAP1 DIV PUSH20 0xFFFFFFFFFFFFFFFFFFFFFFFFFFFFFFFFFFFFFFFF AND PUSH20 0xFFFFFFFFFFFFFFFFFFFFFFFFFFFFFFFFFFFFFFFF AND CALLER PUSH20 0xFFFFFFFFFFFFFFFFFFFFFFFFFFFFFFFFFFFFFFFF AND EQ PUSH2 0x2FB JUMPI PUSH1 0x40 MLOAD PUSH32 0x8C379A000000000000000000000000000000000000000000000000000000000 DUP2 MSTORE PUSH1 0x4 ADD PUSH2 0x2F2 SWAP1 PUSH2 0x7DD JUMP JUMPDEST PUSH1 0x40 MLOAD DUP1 SWAP2 SUB SWAP1 REVERT JUMPDEST PUSH1 0x3 PUSH1 0x1 DUP1 SLOAD SWAP1 POP LT ISZERO PUSH2 0x344 JUMPI PUSH1 0x40 MLOAD PUSH32 0x8C379A000000000000000000000000000000000000000000000000000000000 DUP2 MSTORE PUSH1 0x4 ADD PUSH2 0x33B SWAP1 PUSH2 0x86F JUMP JUMPDEST PUSH1 0x40 MLOAD DUP1 SWAP2 SUB SWAP1 REVERT JUMPDEST PUSH1 0x0 DUP1 PUSH2 0x34F PUSH2 0x45A JUMP JUMPDEST SWAP1 POP PUSH1 0x0 PUSH1 0x1 DUP1 SLOAD SWAP1 POP DUP3 PUSH2 0x364 SWAP2 SWAP1 PUSH2 0x8BE JUMP JUMPDEST SWAP1 POP PUSH1 0x1 DUP2 DUP2 SLOAD DUP2 LT PUSH2 0x37A JUMPI PUSH2 0x379 PUSH2 0x8EF JUMP JUMPDEST JUMPDEST SWAP1 PUSH1 0x0 MSTORE PUSH1 0x20 PUSH1 0x0 KECCAK256 ADD PUSH1 0x0 SWAP1 SLOAD SWAP1 PUSH2 0x100 EXP SWAP1 DIV PUSH20 0xFFFFFFFFFFFFFFFFFFFFFFFFFFFFFFFFFFFFFFFF AND SWAP3 POP DUP3 PUSH20 0xFFFFFFFFFFFFFFFFFFFFFFFFFFFFFFFFFFFFFFFF AND PUSH2 0x8FC PUSH2 0x3C9 PUSH2 0x1D6 JUMP JUMPDEST SWAP1 DUP2 ISZERO MUL SWAP1 PUSH1 0x40 MLOAD PUSH1 0x0 PUSH1 0x40 MLOAD DUP1 DUP4 SUB DUP2 DUP6 DUP9 DUP9 CALL SWAP4 POP POP POP POP ISZERO DUP1 ISZERO PUSH2 0x3F4 JUMPI RETURNDATASIZE PUSH1 0x0 DUP1 RETURNDATACOPY RETURNDATASIZE PUSH1 0x0 REVERT JUMPDEST POP PUSH1 0x0 PUSH8 0xFFFFFFFFFFFFFFFF DUP2 GT ISZERO PUSH2 0x410 JUMPI PUSH2 0x40F PUSH2 0x91E JUMP JUMPDEST JUMPDEST PUSH1 0x40 MLOAD SWAP1 DUP1 DUP3 MSTORE DUP1 PUSH1 0x20 MUL PUSH1 0x20 ADD DUP3 ADD PUSH1 0x40 MSTORE DUP1 ISZERO PUSH2 0x43E JUMPI DUP2 PUSH1 0x20 ADD PUSH1 0x20 DUP3 MUL DUP1 CALLDATASIZE DUP4 CALLDATACOPY DUP1 DUP3 ADD SWAP2 POP POP SWAP1 POP JUMPDEST POP PUSH1 0x1 SWAP1 DUP1 MLOAD SWAP1 PUSH1 0x20 ADD SWAP1 PUSH2 0x454 SWAP3 SWAP2 SWAP1 PUSH2 0x4F7 JUMP JUMPDEST POP POP POP POP JUMP JUMPDEST PUSH1 0x0 DIFFICULTY TIMESTAMP PUSH1 0x1 DUP1 SLOAD SWAP1 POP PUSH1 0x40 MLOAD PUSH1 0x20 ADD PUSH2 0x476 SWAP4 SWAP3 SWAP2 SWAP1 PUSH2 0x96E JUMP JUMPDEST PUSH1 0x40 MLOAD PUSH1 0x20 DUP2 DUP4 SUB SUB DUP2 MSTORE SWAP1 PUSH1 0x40 MSTORE DUP1 MLOAD SWAP1 PUSH1 0x20 ADD KECCAK256 PUSH1 0x0 SHR SWAP1 POP SWAP1 JUMP JUMPDEST PUSH1 0x0 DUP1 SLOAD SWAP1 PUSH2 0x100 EXP SWAP1 DIV PUSH20 0xFFFFFFFFFFFFFFFFFFFFFFFFFFFFFFFFFFFFFFFF AND DUP2 JUMP JUMPDEST PUSH1 0x1 DUP2 DUP2 SLOAD DUP2 LT PUSH2 0x4C8 JUMPI PUSH1 0x0 DUP1 REVERT JUMPDEST SWAP1 PUSH1 0x0 MSTORE PUSH1 0x20 PUSH1 0x0 KECCAK256 ADD PUSH1 0x0 SWAP2 POP SLOAD SWAP1 PUSH2 0x100 EXP SWAP1 DIV PUSH20 0xFFFFFFFFFFFFFFFFFFFFFFFFFFFFFFFFFFFFFFFF AND DUP2 JUMP JUMPDEST DUP3 DUP1 SLOAD DUP3 DUP3 SSTORE SWAP1 PUSH1 0x0 MSTORE PUSH1 0x20 PUSH1 0x0 KECCAK256 SWAP1 DUP2 ADD SWAP3 DUP3 ISZERO PUSH2 0x570 JUMPI SWAP2 PUSH1 0x20 MUL DUP3 ADD JUMPDEST DUP3 DUP2 GT ISZERO PUSH2 0x56F JUMPI DUP3 MLOAD DUP3 PUSH1 0x0 PUSH2 0x100 EXP DUP2 SLOAD DUP2 PUSH20 0xFFFFFFFFFFFFFFFFFFFFFFFFFFFFFFFFFFFFFFFF MUL NOT AND SWAP1 DUP4 PUSH20 0xFFFFFFFFFFFFFFFFFFFFFFFFFFFFFFFFFFFFFFFF AND MUL OR SWAP1 SSTORE POP SWAP2 PUSH1 0x20 ADD SWAP2 SWAP1 PUSH1 0x1 ADD SWAP1 PUSH2 0x517 JUMP JUMPDEST JUMPDEST POP SWAP1 POP PUSH2 0x57D SWAP2 SWAP1 PUSH2 0x581 JUMP JUMPDEST POP SWAP1 JUMP JUMPDEST JUMPDEST DUP1 DUP3 GT ISZERO PUSH2 0x59A JUMPI PUSH1 0x0 DUP2 PUSH1 0x0 SWAP1 SSTORE POP PUSH1 0x1 ADD PUSH2 0x582 JUMP JUMPDEST POP SWAP1 JUMP JUMPDEST PUSH1 0x0 DUP3 DUP3 MSTORE PUSH1 0x20 DUP3 ADD SWAP1 POP SWAP3 SWAP2 POP POP JUMP JUMPDEST PUSH32 0x596F752063616E6E6F742070617274696369706174652077697468206C6F7720 PUSH1 0x0 DUP3 ADD MSTORE PUSH32 0x62616C616E636500000000000000000000000000000000000000000000000000 PUSH1 0x20 DUP3 ADD MSTORE POP JUMP JUMPDEST PUSH1 0x0 PUSH2 0x60B PUSH1 0x27 DUP4 PUSH2 0x59E JUMP JUMPDEST SWAP2 POP PUSH2 0x616 DUP3 PUSH2 0x5AF JUMP JUMPDEST PUSH1 0x40 DUP3 ADD SWAP1 POP SWAP2 SWAP1 POP JUMP JUMPDEST PUSH1 0x0 PUSH1 0x20 DUP3 ADD SWAP1 POP DUP2 DUP2 SUB PUSH1 0x0 DUP4 ADD MSTORE PUSH2 0x63A DUP2 PUSH2 0x5FE JUMP JUMPDEST SWAP1 POP SWAP2 SWAP1 POP JUMP JUMPDEST PUSH1 0x0 DUP2 SWAP1 POP SWAP2 SWAP1 POP JUMP JUMPDEST PUSH2 0x654 DUP2 PUSH2 0x641 JUMP JUMPDEST DUP3 MSTORE POP POP JUMP JUMPDEST PUSH1 0x0 PUSH1 0x20 DUP3 ADD SWAP1 POP PUSH2 0x66F PUSH1 0x0 DUP4 ADD DUP5 PUSH2 0x64B JUMP JUMPDEST SWAP3 SWAP2 POP POP JUMP JUMPDEST PUSH1 0x0 PUSH20 0xFFFFFFFFFFFFFFFFFFFFFFFFFFFFFFFFFFFFFFFF DUP3 AND SWAP1 POP SWAP2 SWAP1 POP JUMP JUMPDEST PUSH1 0x0 PUSH2 0x6A0 DUP3 PUSH2 0x675 JUMP JUMPDEST SWAP1 POP SWAP2 SWAP1 POP JUMP JUMPDEST PUSH2 0x6B0 DUP2 PUSH2 0x695 JUMP JUMPDEST DUP3 MSTORE POP POP JUMP JUMPDEST PUSH1 0x0 PUSH1 0x20 DUP3 ADD SWAP1 POP PUSH2 0x6CB PUSH1 0x0 DUP4 ADD DUP5 PUSH2 0x6A7 JUMP JUMPDEST SWAP3 SWAP2 POP POP JUMP JUMPDEST PUSH1 0x0 DUP1 REVERT JUMPDEST PUSH2 0x6DF DUP2 PUSH2 0x641 JUMP JUMPDEST DUP2 EQ PUSH2 0x6EA JUMPI PUSH1 0x0 DUP1 REVERT JUMPDEST POP JUMP JUMPDEST PUSH1 0x0 DUP2 CALLDATALOAD SWAP1 POP PUSH2 0x6FC DUP2 PUSH2 0x6D6 JUMP JUMPDEST SWAP3 SWAP2 POP POP JUMP JUMPDEST PUSH1 0x0 PUSH1 0x20 DUP3 DUP5 SUB SLT ISZERO PUSH2 0x718 JUMPI PUSH2 0x717 PUSH2 0x6D1 JUMP JUMPDEST JUMPDEST PUSH1 0x0 PUSH2 0x726 DUP5 DUP3 DUP6 ADD PUSH2 0x6ED JUMP JUMPDEST SWAP2 POP POP SWAP3 SWAP2 POP POP JUMP JUMPDEST PUSH1 0x0 PUSH2 0x73A DUP3 PUSH2 0x675 JUMP JUMPDEST SWAP1 POP SWAP2 SWAP1 POP JUMP JUMPDEST PUSH2 0x74A DUP2 PUSH2 0x72F JUMP JUMPDEST DUP3 MSTORE POP POP JUMP JUMPDEST PUSH1 0x0 PUSH1 0x20 DUP3 ADD SWAP1 POP PUSH2 0x765 PUSH1 0x0 DUP4 ADD DUP5 PUSH2 0x741 JUMP JUMPDEST SWAP3 SWAP2 POP POP JUMP JUMPDEST PUSH32 0x596F7520617265206E6F7420746865206F776E6572206F6620746865204C6F74 PUSH1 0x0 DUP3 ADD MSTORE PUSH32 0x7465727900000000000000000000000000000000000000000000000000000000 PUSH1 0x20 DUP3 ADD MSTORE POP JUMP JUMPDEST PUSH1 0x0 PUSH2 0x7C7 PUSH1 0x24 DUP4 PUSH2 0x59E JUMP JUMPDEST SWAP2 POP PUSH2 0x7D2 DUP3 PUSH2 0x76B JUMP JUMPDEST PUSH1 0x40 DUP3 ADD SWAP1 POP SWAP2 SWAP1 POP JUMP JUMPDEST PUSH1 0x0 PUSH1 0x20 DUP3 ADD SWAP1 POP DUP2 DUP2 SUB PUSH1 0x0 DUP4 ADD MSTORE PUSH2 0x7F6 DUP2 PUSH2 0x7BA JUMP JUMPDEST SWAP1 POP SWAP2 SWAP1 POP JUMP JUMPDEST PUSH32 0x506C6179657273206D757374206265206174206C656173742033206F72206772 PUSH1 0x0 DUP3 ADD MSTORE PUSH32 0x6561746572000000000000000000000000000000000000000000000000000000 PUSH1 0x20 DUP3 ADD MSTORE POP JUMP JUMPDEST PUSH1 0x0 PUSH2 0x859 PUSH1 0x25 DUP4 PUSH2 0x59E JUMP JUMPDEST SWAP2 POP PUSH2 0x864 DUP3 PUSH2 0x7FD JUMP JUMPDEST PUSH1 0x40 DUP3 ADD SWAP1 POP SWAP2 SWAP1 POP JUMP JUMPDEST PUSH1 0x0 PUSH1 0x20 DUP3 ADD SWAP1 POP DUP2 DUP2 SUB PUSH1 0x0 DUP4 ADD MSTORE PUSH2 0x888 DUP2 PUSH2 0x84C JUMP JUMPDEST SWAP1 POP SWAP2 SWAP1 POP JUMP JUMPDEST PUSH32 0x4E487B7100000000000000000000000000000000000000000000000000000000 PUSH1 0x0 MSTORE PUSH1 0x12 PUSH1 0x4 MSTORE PUSH1 0x24 PUSH1 0x0 REVERT JUMPDEST PUSH1 0x0 PUSH2 0x8C9 DUP3 PUSH2 0x641 JUMP JUMPDEST SWAP2 POP PUSH2 0x8D4 DUP4 PUSH2 0x641 JUMP JUMPDEST SWAP3 POP DUP3 PUSH2 0x8E4 JUMPI PUSH2 0x8E3 PUSH2 0x88F JUMP JUMPDEST JUMPDEST DUP3 DUP3 MOD SWAP1 POP SWAP3 SWAP2 POP POP JUMP JUMPDEST PUSH32 0x4E487B7100000000000000000000000000000000000000000000000000000000 PUSH1 0x0 MSTORE PUSH1 0x32 PUSH1 0x4 MSTORE PUSH1 0x24 PUSH1 0x0 REVERT JUMPDEST PUSH32 0x4E487B7100000000000000000000000000000000000000000000000000000000 PUSH1 0x0 MSTORE PUSH1 0x41 PUSH1 0x4 MSTORE PUSH1 0x24 PUSH1 0x0 REVERT JUMPDEST PUSH1 0x0 DUP2 SWAP1 POP SWAP2 SWAP1 POP JUMP JUMPDEST PUSH2 0x968 PUSH2 0x963 DUP3 PUSH2 0x641 JUMP JUMPDEST PUSH2 0x94D JUMP JUMPDEST DUP3 MSTORE POP POP JUMP JUMPDEST PUSH1 0x0 PUSH2 0x97A DUP3 DUP7 PUSH2 0x957 JUMP JUMPDEST PUSH1 0x20 DUP3 ADD SWAP2 POP PUSH2 0x98A DUP3 DUP6 PUSH2 0x957 JUMP JUMPDEST PUSH1 0x20 DUP3 ADD SWAP2 POP PUSH2 0x99A DUP3 DUP5 PUSH2 0x957 JUMP JUMPDEST PUSH1 0x20 DUP3 ADD SWAP2 POP DUP2 SWAP1 POP SWAP5 SWAP4 POP POP POP POP JUMP INVALID LOG2 PUSH5 0x6970667358 0x22 SLT KECCAK256 JUMPI PUSH14 0xD6E7EF2B81E95483F216758B978A CODECOPY MSTORE8 PUSH11 0x2DE461E94610CC84365A74 CALL ORIGIN PUSH5 0x736F6C6343 STOP ADDMOD 0xD STOP CALLER "
				},
				"gasEstimates": {
					"creation": {
						"codeDepositCost": "505800",
						"executionCost": "24809",
						"totalCost": "530609"
					},
					"external": {
						"announceWinner()": "infinite",
						"getBalance()": "2602",
						"owner()": "2555",
						"players(uint256)": "5022",
						"random()": "infinite"
					}
				},
				"methodIdentifiers": {
					"announceWinner()": "2d8cd096",
					"getBalance()": "12065fe0",
					"owner()": "8da5cb5b",
					"players(uint256)": "f71d96cb",
					"random()": "5ec01e4d"
				}
			},
			"storageLayout": {
				"storage": [
					{
						"astId": 3,
						"contract": "contracts/Lottery-App.sol:Lottery",
						"label": "owner",
						"offset": 0,
						"slot": "0",
						"type": "t_address"
					},
					{
						"astId": 6,
						"contract": "contracts/Lottery-App.sol:Lottery",
						"label": "players",
						"offset": 0,
						"slot": "1",
						"type": "t_array(t_address_payable)dyn_storage"
					}
				],
				"types": {
					"t_address": {
						"encoding": "inplace",
						"label": "address",
						"numberOfBytes": "20"
					},
					"t_address_payable": {
						"encoding": "inplace",
						"label": "address payable",
						"numberOfBytes": "20"
					},
					"t_array(t_address_payable)dyn_storage": {
						"base": "t_address_payable",
						"encoding": "dynamic_array",
						"label": "address payable[]",
						"numberOfBytes": "32"
					}
				}
			},
			"userdoc": {
				"kind": "user",
				"methods": {},
				"version": 1
			}
		}
	}
}