{
	"contracts/Lottery-App.sol": {
		"Lottery": {
			"abi": [
				{
					"inputs": [],
					"stateMutability": "nonpayable",
					"type": "constructor"
				},
				{
					"inputs": [],
					"name": "announceWinner",
					"outputs": [
						{
							"internalType": "address",
							"name": "",
							"type": "address"
						}
					],
					"stateMutability": "view",
					"type": "function"
				},
				{
					"inputs": [],
					"name": "getBalance",
					"outputs": [
						{
							"internalType": "uint256",
							"name": "",
							"type": "uint256"
						}
					],
					"stateMutability": "view",
					"type": "function"
				},
				{
					"inputs": [],
					"name": "owner",
					"outputs": [
						{
							"internalType": "address",
							"name": "",
							"type": "address"
						}
					],
					"stateMutability": "view",
					"type": "function"
				},
				{
					"inputs": [
						{
							"internalType": "uint256",
							"name": "",
							"type": "uint256"
						}
					],
					"name": "players",
					"outputs": [
						{
							"internalType": "address payable",
							"name": "",
							"type": "address"
						}
					],
					"stateMutability": "view",
					"type": "function"
				},
				{
					"inputs": [],
					"name": "random",
					"outputs": [
						{
							"internalType": "uint256",
							"name": "",
							"type": "uint256"
						}
					],
					"stateMutability": "view",
					"type": "function"
				},
				{
					"stateMutability": "payable",
					"type": "receive"
				}
			],
			"devdoc": {
				"kind": "dev",
				"methods": {},
				"version": 1
			},
			"evm": {
				"assembly": "    /* \"contracts/Lottery-App.sol\":70:1088  contract Lottery {... */\n  mstore(0x40, 0x80)\n    /* \"contracts/Lottery-App.sol\":164:215  constructor() {... */\n  callvalue\n  dup1\n  iszero\n  tag_1\n  jumpi\n  0x00\n  dup1\n  revert\ntag_1:\n  pop\n    /* \"contracts/Lottery-App.sol\":197:207  msg.sender */\n  caller\n    /* \"contracts/Lottery-App.sol\":189:194  owner */\n  0x00\n  dup1\n    /* \"contracts/Lottery-App.sol\":189:207  owner = msg.sender */\n  0x0100\n  exp\n  dup2\n  sload\n  dup2\n  0xffffffffffffffffffffffffffffffffffffffff\n  mul\n  not\n  and\n  swap1\n  dup4\n  0xffffffffffffffffffffffffffffffffffffffff\n  and\n  mul\n  or\n  swap1\n  sstore\n  pop\n    /* \"contracts/Lottery-App.sol\":70:1088  contract Lottery {... */\n  dataSize(sub_0)\n  dup1\n  dataOffset(sub_0)\n  0x00\n  codecopy\n  0x00\n  return\nstop\n\nsub_0: assembly {\n        /* \"contracts/Lottery-App.sol\":70:1088  contract Lottery {... */\n      mstore(0x40, 0x80)\n      jumpi(tag_1, lt(calldatasize, 0x04))\n      shr(0xe0, calldataload(0x00))\n      dup1\n      0x12065fe0\n      eq\n      tag_3\n      jumpi\n      dup1\n      0x2d8cd096\n      eq\n      tag_4\n      jumpi\n      dup1\n      0x5ec01e4d\n      eq\n      tag_5\n      jumpi\n      dup1\n      0x8da5cb5b\n      eq\n      tag_6\n      jumpi\n      dup1\n      0xf71d96cb\n      eq\n      tag_7\n      jumpi\n      jump(tag_2)\n    tag_1:\n      jumpi(tag_2, calldatasize)\n        /* \"contracts/Lottery-App.sol\":341:348  500 wei */\n      0x01f4\n        /* \"contracts/Lottery-App.sol\":328:337  msg.value */\n      callvalue\n        /* \"contracts/Lottery-App.sol\":328:348  msg.value >= 500 wei */\n      lt\n      iszero\n        /* \"contracts/Lottery-App.sol\":320:392  require(msg.value >= 500 wei, \"You cannot participate with low balance\") */\n      tag_10\n      jumpi\n      mload(0x40)\n      0x08c379a000000000000000000000000000000000000000000000000000000000\n      dup2\n      mstore\n      0x04\n      add\n      tag_11\n      swap1\n      tag_12\n      jump\t// in\n    tag_11:\n      mload(0x40)\n      dup1\n      swap2\n      sub\n      swap1\n      revert\n    tag_10:\n        /* \"contracts/Lottery-App.sol\":403:410  players */\n      0x01\n        /* \"contracts/Lottery-App.sol\":424:434  msg.sender */\n      caller\n        /* \"contracts/Lottery-App.sol\":403:436  players.push(payable(msg.sender)) */\n      swap1\n      dup1\n      0x01\n      dup2\n      sload\n      add\n      dup1\n      dup3\n      sstore\n      dup1\n      swap2\n      pop\n      pop\n      0x01\n      swap1\n      sub\n      swap1\n      0x00\n      mstore\n      keccak256(0x00, 0x20)\n      add\n      0x00\n      swap1\n      swap2\n      swap1\n      swap2\n      swap1\n      swap2\n      0x0100\n      exp\n      dup2\n      sload\n      dup2\n      0xffffffffffffffffffffffffffffffffffffffff\n      mul\n      not\n      and\n      swap1\n      dup4\n      0xffffffffffffffffffffffffffffffffffffffff\n      and\n      mul\n      or\n      swap1\n      sstore\n      stop\n        /* \"contracts/Lottery-App.sol\":70:1088  contract Lottery {... */\n    tag_2:\n      0x00\n      dup1\n      revert\n        /* \"contracts/Lottery-App.sol\":500:674  function getBalance() public view returns(uint) {... */\n    tag_3:\n      callvalue\n      dup1\n      iszero\n      tag_14\n      jumpi\n      0x00\n      dup1\n      revert\n    tag_14:\n      pop\n      tag_15\n      tag_16\n      jump\t// in\n    tag_15:\n      mload(0x40)\n      tag_17\n      swap2\n      swap1\n      tag_18\n      jump\t// in\n    tag_17:\n      mload(0x40)\n      dup1\n      swap2\n      sub\n      swap1\n      return\n        /* \"contracts/Lottery-App.sol\":874:1083  function announceWinner() public view returns(address) {... */\n    tag_4:\n      callvalue\n      dup1\n      iszero\n      tag_19\n      jumpi\n      0x00\n      dup1\n      revert\n    tag_19:\n      pop\n      tag_20\n      tag_21\n      jump\t// in\n    tag_20:\n      mload(0x40)\n      tag_22\n      swap2\n      swap1\n      tag_23\n      jump\t// in\n    tag_22:\n      mload(0x40)\n      dup1\n      swap2\n      sub\n      swap1\n      return\n        /* \"contracts/Lottery-App.sol\":714:866  function random() public view returns(uint) {... */\n    tag_5:\n      callvalue\n      dup1\n      iszero\n      tag_24\n      jumpi\n      0x00\n      dup1\n      revert\n    tag_24:\n      pop\n      tag_25\n      tag_26\n      jump\t// in\n    tag_25:\n      mload(0x40)\n      tag_27\n      swap2\n      swap1\n      tag_18\n      jump\t// in\n    tag_27:\n      mload(0x40)\n      dup1\n      swap2\n      sub\n      swap1\n      return\n        /* \"contracts/Lottery-App.sol\":96:116  address public owner */\n    tag_6:\n      callvalue\n      dup1\n      iszero\n      tag_28\n      jumpi\n      0x00\n      dup1\n      revert\n    tag_28:\n      pop\n      tag_29\n      tag_30\n      jump\t// in\n    tag_29:\n      mload(0x40)\n      tag_31\n      swap2\n      swap1\n      tag_23\n      jump\t// in\n    tag_31:\n      mload(0x40)\n      dup1\n      swap2\n      sub\n      swap1\n      return\n        /* \"contracts/Lottery-App.sol\":123:155  address payable[] public players */\n    tag_7:\n      callvalue\n      dup1\n      iszero\n      tag_32\n      jumpi\n      0x00\n      dup1\n      revert\n    tag_32:\n      pop\n      tag_33\n      0x04\n      dup1\n      calldatasize\n      sub\n      dup2\n      add\n      swap1\n      tag_34\n      swap2\n      swap1\n      tag_35\n      jump\t// in\n    tag_34:\n      tag_36\n      jump\t// in\n    tag_33:\n      mload(0x40)\n      tag_37\n      swap2\n      swap1\n      tag_38\n      jump\t// in\n    tag_37:\n      mload(0x40)\n      dup1\n      swap2\n      sub\n      swap1\n      return\n        /* \"contracts/Lottery-App.sol\":500:674  function getBalance() public view returns(uint) {... */\n    tag_16:\n        /* \"contracts/Lottery-App.sol\":542:546  uint */\n      0x00\n        /* \"contracts/Lottery-App.sol\":581:586  owner */\n      dup1\n      0x00\n      swap1\n      sload\n      swap1\n      0x0100\n      exp\n      swap1\n      div\n      0xffffffffffffffffffffffffffffffffffffffff\n      and\n        /* \"contracts/Lottery-App.sol\":567:586  msg.sender == owner */\n      0xffffffffffffffffffffffffffffffffffffffff\n      and\n        /* \"contracts/Lottery-App.sol\":567:577  msg.sender */\n      caller\n        /* \"contracts/Lottery-App.sol\":567:586  msg.sender == owner */\n      0xffffffffffffffffffffffffffffffffffffffff\n      and\n      eq\n        /* \"contracts/Lottery-App.sol\":559:627  require(msg.sender == owner, \"You are not the owner of the Lottery\") */\n      tag_40\n      jumpi\n      mload(0x40)\n      0x08c379a000000000000000000000000000000000000000000000000000000000\n      dup2\n      mstore\n      0x04\n      add\n      tag_41\n      swap1\n      tag_42\n      jump\t// in\n    tag_41:\n      mload(0x40)\n      dup1\n      swap2\n      sub\n      swap1\n      revert\n    tag_40:\n        /* \"contracts/Lottery-App.sol\":645:666  address(this).balance */\n      selfbalance\n        /* \"contracts/Lottery-App.sol\":638:666  return address(this).balance */\n      swap1\n      pop\n        /* \"contracts/Lottery-App.sol\":500:674  function getBalance() public view returns(uint) {... */\n      swap1\n      jump\t// out\n        /* \"contracts/Lottery-App.sol\":874:1083  function announceWinner() public view returns(address) {... */\n    tag_21:\n        /* \"contracts/Lottery-App.sol\":920:927  address */\n      0x00\n        /* \"contracts/Lottery-App.sol\":963:968  owner */\n      dup1\n      0x00\n      swap1\n      sload\n      swap1\n      0x0100\n      exp\n      swap1\n      div\n      0xffffffffffffffffffffffffffffffffffffffff\n      and\n        /* \"contracts/Lottery-App.sol\":949:968  msg.sender == owner */\n      0xffffffffffffffffffffffffffffffffffffffff\n      and\n        /* \"contracts/Lottery-App.sol\":949:959  msg.sender */\n      caller\n        /* \"contracts/Lottery-App.sol\":949:968  msg.sender == owner */\n      0xffffffffffffffffffffffffffffffffffffffff\n      and\n      eq\n        /* \"contracts/Lottery-App.sol\":941:1009  require(msg.sender == owner, \"You are not the owner of the Lottery\") */\n      tag_44\n      jumpi\n      mload(0x40)\n      0x08c379a000000000000000000000000000000000000000000000000000000000\n      dup2\n      mstore\n      0x04\n      add\n      tag_45\n      swap1\n      tag_42\n      jump\t// in\n    tag_45:\n      mload(0x40)\n      dup1\n      swap2\n      sub\n      swap1\n      revert\n    tag_44:\n        /* \"contracts/Lottery-App.sol\":1047:1048  3 */\n      0x03\n        /* \"contracts/Lottery-App.sol\":1029:1036  players */\n      0x01\n        /* \"contracts/Lottery-App.sol\":1029:1043  players.length */\n      dup1\n      sload\n      swap1\n      pop\n        /* \"contracts/Lottery-App.sol\":1029:1048  players.length >= 3 */\n      lt\n      iszero\n        /* \"contracts/Lottery-App.sol\":1021:1075  require(players.length >= 3, \"Players must be at lea\") */\n      tag_46\n      jumpi\n      mload(0x40)\n      0x08c379a000000000000000000000000000000000000000000000000000000000\n      dup2\n      mstore\n      0x04\n      add\n      tag_47\n      swap1\n      tag_48\n      jump\t// in\n    tag_47:\n      mload(0x40)\n      dup1\n      swap2\n      sub\n      swap1\n      revert\n    tag_46:\n        /* \"contracts/Lottery-App.sol\":874:1083  function announceWinner() public view returns(address) {... */\n      swap1\n      jump\t// out\n        /* \"contracts/Lottery-App.sol\":714:866  function random() public view returns(uint) {... */\n    tag_26:\n        /* \"contracts/Lottery-App.sol\":752:756  uint */\n      0x00\n        /* \"contracts/Lottery-App.sol\":807:823  block.difficulty */\n      difficulty\n        /* \"contracts/Lottery-App.sol\":824:839  block.timestamp */\n      timestamp\n        /* \"contracts/Lottery-App.sol\":841:848  players */\n      0x01\n        /* \"contracts/Lottery-App.sol\":841:855  players.length */\n      dup1\n      sload\n      swap1\n      pop\n        /* \"contracts/Lottery-App.sol\":790:856  abi.encodePacked(block.difficulty,block.timestamp, players.length) */\n      add(0x20, mload(0x40))\n      tag_50\n      swap4\n      swap3\n      swap2\n      swap1\n      tag_51\n      jump\t// in\n    tag_50:\n      mload(0x40)\n      0x20\n      dup2\n      dup4\n      sub\n      sub\n      dup2\n      mstore\n      swap1\n      0x40\n      mstore\n        /* \"contracts/Lottery-App.sol\":780:857  keccak256(abi.encodePacked(block.difficulty,block.timestamp, players.length)) */\n      dup1\n      mload\n      swap1\n      0x20\n      add\n      keccak256\n        /* \"contracts/Lottery-App.sol\":775:858  uint(keccak256(abi.encodePacked(block.difficulty,block.timestamp, players.length))) */\n      0x00\n      shr\n        /* \"contracts/Lottery-App.sol\":768:858  return uint(keccak256(abi.encodePacked(block.difficulty,block.timestamp, players.length))) */\n      swap1\n      pop\n        /* \"contracts/Lottery-App.sol\":714:866  function random() public view returns(uint) {... */\n      swap1\n      jump\t// out\n        /* \"contracts/Lottery-App.sol\":96:116  address public owner */\n    tag_30:\n      0x00\n      dup1\n      sload\n      swap1\n      0x0100\n      exp\n      swap1\n      div\n      0xffffffffffffffffffffffffffffffffffffffff\n      and\n      dup2\n      jump\t// out\n        /* \"contracts/Lottery-App.sol\":123:155  address payable[] public players */\n    tag_36:\n      0x01\n      dup2\n      dup2\n      sload\n      dup2\n      lt\n      tag_52\n      jumpi\n      0x00\n      dup1\n      revert\n    tag_52:\n      swap1\n      0x00\n      mstore\n      keccak256(0x00, 0x20)\n      add\n      0x00\n      swap2\n      pop\n      sload\n      swap1\n      0x0100\n      exp\n      swap1\n      div\n      0xffffffffffffffffffffffffffffffffffffffff\n      and\n      dup2\n      jump\t// out\n        /* \"#utility.yul\":7:176   */\n    tag_54:\n        /* \"#utility.yul\":91:102   */\n      0x00\n        /* \"#utility.yul\":125:131   */\n      dup3\n        /* \"#utility.yul\":120:123   */\n      dup3\n        /* \"#utility.yul\":113:132   */\n      mstore\n        /* \"#utility.yul\":165:169   */\n      0x20\n        /* \"#utility.yul\":160:163   */\n      dup3\n        /* \"#utility.yul\":156:170   */\n      add\n        /* \"#utility.yul\":141:170   */\n      swap1\n      pop\n        /* \"#utility.yul\":7:176   */\n      swap3\n      swap2\n      pop\n      pop\n      jump\t// out\n        /* \"#utility.yul\":182:408   */\n    tag_55:\n        /* \"#utility.yul\":322:356   */\n      0x596f752063616e6e6f742070617274696369706174652077697468206c6f7720\n        /* \"#utility.yul\":318:319   */\n      0x00\n        /* \"#utility.yul\":310:316   */\n      dup3\n        /* \"#utility.yul\":306:320   */\n      add\n        /* \"#utility.yul\":299:357   */\n      mstore\n        /* \"#utility.yul\":391:400   */\n      0x62616c616e636500000000000000000000000000000000000000000000000000\n        /* \"#utility.yul\":386:388   */\n      0x20\n        /* \"#utility.yul\":378:384   */\n      dup3\n        /* \"#utility.yul\":374:389   */\n      add\n        /* \"#utility.yul\":367:401   */\n      mstore\n        /* \"#utility.yul\":182:408   */\n      pop\n      jump\t// out\n        /* \"#utility.yul\":414:780   */\n    tag_56:\n        /* \"#utility.yul\":556:559   */\n      0x00\n        /* \"#utility.yul\":577:644   */\n      tag_79\n        /* \"#utility.yul\":641:643   */\n      0x27\n        /* \"#utility.yul\":636:639   */\n      dup4\n        /* \"#utility.yul\":577:644   */\n      tag_54\n      jump\t// in\n    tag_79:\n        /* \"#utility.yul\":570:644   */\n      swap2\n      pop\n        /* \"#utility.yul\":653:746   */\n      tag_80\n        /* \"#utility.yul\":742:745   */\n      dup3\n        /* \"#utility.yul\":653:746   */\n      tag_55\n      jump\t// in\n    tag_80:\n        /* \"#utility.yul\":771:773   */\n      0x40\n        /* \"#utility.yul\":766:769   */\n      dup3\n        /* \"#utility.yul\":762:774   */\n      add\n        /* \"#utility.yul\":755:774   */\n      swap1\n      pop\n        /* \"#utility.yul\":414:780   */\n      swap2\n      swap1\n      pop\n      jump\t// out\n        /* \"#utility.yul\":786:1205   */\n    tag_12:\n        /* \"#utility.yul\":952:956   */\n      0x00\n        /* \"#utility.yul\":990:992   */\n      0x20\n        /* \"#utility.yul\":979:988   */\n      dup3\n        /* \"#utility.yul\":975:993   */\n      add\n        /* \"#utility.yul\":967:993   */\n      swap1\n      pop\n        /* \"#utility.yul\":1039:1048   */\n      dup2\n        /* \"#utility.yul\":1033:1037   */\n      dup2\n        /* \"#utility.yul\":1029:1049   */\n      sub\n        /* \"#utility.yul\":1025:1026   */\n      0x00\n        /* \"#utility.yul\":1014:1023   */\n      dup4\n        /* \"#utility.yul\":1010:1027   */\n      add\n        /* \"#utility.yul\":1003:1050   */\n      mstore\n        /* \"#utility.yul\":1067:1198   */\n      tag_82\n        /* \"#utility.yul\":1193:1197   */\n      dup2\n        /* \"#utility.yul\":1067:1198   */\n      tag_56\n      jump\t// in\n    tag_82:\n        /* \"#utility.yul\":1059:1198   */\n      swap1\n      pop\n        /* \"#utility.yul\":786:1205   */\n      swap2\n      swap1\n      pop\n      jump\t// out\n        /* \"#utility.yul\":1211:1288   */\n    tag_57:\n        /* \"#utility.yul\":1248:1255   */\n      0x00\n        /* \"#utility.yul\":1277:1282   */\n      dup2\n        /* \"#utility.yul\":1266:1282   */\n      swap1\n      pop\n        /* \"#utility.yul\":1211:1288   */\n      swap2\n      swap1\n      pop\n      jump\t// out\n        /* \"#utility.yul\":1294:1412   */\n    tag_58:\n        /* \"#utility.yul\":1381:1405   */\n      tag_85\n        /* \"#utility.yul\":1399:1404   */\n      dup2\n        /* \"#utility.yul\":1381:1405   */\n      tag_57\n      jump\t// in\n    tag_85:\n        /* \"#utility.yul\":1376:1379   */\n      dup3\n        /* \"#utility.yul\":1369:1406   */\n      mstore\n        /* \"#utility.yul\":1294:1412   */\n      pop\n      pop\n      jump\t// out\n        /* \"#utility.yul\":1418:1640   */\n    tag_18:\n        /* \"#utility.yul\":1511:1515   */\n      0x00\n        /* \"#utility.yul\":1549:1551   */\n      0x20\n        /* \"#utility.yul\":1538:1547   */\n      dup3\n        /* \"#utility.yul\":1534:1552   */\n      add\n        /* \"#utility.yul\":1526:1552   */\n      swap1\n      pop\n        /* \"#utility.yul\":1562:1633   */\n      tag_87\n        /* \"#utility.yul\":1630:1631   */\n      0x00\n        /* \"#utility.yul\":1619:1628   */\n      dup4\n        /* \"#utility.yul\":1615:1632   */\n      add\n        /* \"#utility.yul\":1606:1612   */\n      dup5\n        /* \"#utility.yul\":1562:1633   */\n      tag_58\n      jump\t// in\n    tag_87:\n        /* \"#utility.yul\":1418:1640   */\n      swap3\n      swap2\n      pop\n      pop\n      jump\t// out\n        /* \"#utility.yul\":1646:1772   */\n    tag_59:\n        /* \"#utility.yul\":1683:1690   */\n      0x00\n        /* \"#utility.yul\":1723:1765   */\n      0xffffffffffffffffffffffffffffffffffffffff\n        /* \"#utility.yul\":1716:1721   */\n      dup3\n        /* \"#utility.yul\":1712:1766   */\n      and\n        /* \"#utility.yul\":1701:1766   */\n      swap1\n      pop\n        /* \"#utility.yul\":1646:1772   */\n      swap2\n      swap1\n      pop\n      jump\t// out\n        /* \"#utility.yul\":1778:1874   */\n    tag_60:\n        /* \"#utility.yul\":1815:1822   */\n      0x00\n        /* \"#utility.yul\":1844:1868   */\n      tag_90\n        /* \"#utility.yul\":1862:1867   */\n      dup3\n        /* \"#utility.yul\":1844:1868   */\n      tag_59\n      jump\t// in\n    tag_90:\n        /* \"#utility.yul\":1833:1868   */\n      swap1\n      pop\n        /* \"#utility.yul\":1778:1874   */\n      swap2\n      swap1\n      pop\n      jump\t// out\n        /* \"#utility.yul\":1880:1998   */\n    tag_61:\n        /* \"#utility.yul\":1967:1991   */\n      tag_92\n        /* \"#utility.yul\":1985:1990   */\n      dup2\n        /* \"#utility.yul\":1967:1991   */\n      tag_60\n      jump\t// in\n    tag_92:\n        /* \"#utility.yul\":1962:1965   */\n      dup3\n        /* \"#utility.yul\":1955:1992   */\n      mstore\n        /* \"#utility.yul\":1880:1998   */\n      pop\n      pop\n      jump\t// out\n        /* \"#utility.yul\":2004:2226   */\n    tag_23:\n        /* \"#utility.yul\":2097:2101   */\n      0x00\n        /* \"#utility.yul\":2135:2137   */\n      0x20\n        /* \"#utility.yul\":2124:2133   */\n      dup3\n        /* \"#utility.yul\":2120:2138   */\n      add\n        /* \"#utility.yul\":2112:2138   */\n      swap1\n      pop\n        /* \"#utility.yul\":2148:2219   */\n      tag_94\n        /* \"#utility.yul\":2216:2217   */\n      0x00\n        /* \"#utility.yul\":2205:2214   */\n      dup4\n        /* \"#utility.yul\":2201:2218   */\n      add\n        /* \"#utility.yul\":2192:2198   */\n      dup5\n        /* \"#utility.yul\":2148:2219   */\n      tag_61\n      jump\t// in\n    tag_94:\n        /* \"#utility.yul\":2004:2226   */\n      swap3\n      swap2\n      pop\n      pop\n      jump\t// out\n        /* \"#utility.yul\":2313:2430   */\n    tag_63:\n        /* \"#utility.yul\":2422:2423   */\n      0x00\n        /* \"#utility.yul\":2419:2420   */\n      dup1\n        /* \"#utility.yul\":2412:2424   */\n      revert\n        /* \"#utility.yul\":2559:2681   */\n    tag_65:\n        /* \"#utility.yul\":2632:2656   */\n      tag_99\n        /* \"#utility.yul\":2650:2655   */\n      dup2\n        /* \"#utility.yul\":2632:2656   */\n      tag_57\n      jump\t// in\n    tag_99:\n        /* \"#utility.yul\":2625:2630   */\n      dup2\n        /* \"#utility.yul\":2622:2657   */\n      eq\n        /* \"#utility.yul\":2612:2675   */\n      tag_100\n      jumpi\n        /* \"#utility.yul\":2671:2672   */\n      0x00\n        /* \"#utility.yul\":2668:2669   */\n      dup1\n        /* \"#utility.yul\":2661:2673   */\n      revert\n        /* \"#utility.yul\":2612:2675   */\n    tag_100:\n        /* \"#utility.yul\":2559:2681   */\n      pop\n      jump\t// out\n        /* \"#utility.yul\":2687:2826   */\n    tag_66:\n        /* \"#utility.yul\":2733:2738   */\n      0x00\n        /* \"#utility.yul\":2771:2777   */\n      dup2\n        /* \"#utility.yul\":2758:2778   */\n      calldataload\n        /* \"#utility.yul\":2749:2778   */\n      swap1\n      pop\n        /* \"#utility.yul\":2787:2820   */\n      tag_102\n        /* \"#utility.yul\":2814:2819   */\n      dup2\n        /* \"#utility.yul\":2787:2820   */\n      tag_65\n      jump\t// in\n    tag_102:\n        /* \"#utility.yul\":2687:2826   */\n      swap3\n      swap2\n      pop\n      pop\n      jump\t// out\n        /* \"#utility.yul\":2832:3161   */\n    tag_35:\n        /* \"#utility.yul\":2891:2897   */\n      0x00\n        /* \"#utility.yul\":2940:2942   */\n      0x20\n        /* \"#utility.yul\":2928:2937   */\n      dup3\n        /* \"#utility.yul\":2919:2926   */\n      dup5\n        /* \"#utility.yul\":2915:2938   */\n      sub\n        /* \"#utility.yul\":2911:2943   */\n      slt\n        /* \"#utility.yul\":2908:3027   */\n      iszero\n      tag_104\n      jumpi\n        /* \"#utility.yul\":2946:3025   */\n      tag_105\n      tag_63\n      jump\t// in\n    tag_105:\n        /* \"#utility.yul\":2908:3027   */\n    tag_104:\n        /* \"#utility.yul\":3066:3067   */\n      0x00\n        /* \"#utility.yul\":3091:3144   */\n      tag_106\n        /* \"#utility.yul\":3136:3143   */\n      dup5\n        /* \"#utility.yul\":3127:3133   */\n      dup3\n        /* \"#utility.yul\":3116:3125   */\n      dup6\n        /* \"#utility.yul\":3112:3134   */\n      add\n        /* \"#utility.yul\":3091:3144   */\n      tag_66\n      jump\t// in\n    tag_106:\n        /* \"#utility.yul\":3081:3144   */\n      swap2\n      pop\n        /* \"#utility.yul\":3037:3154   */\n      pop\n        /* \"#utility.yul\":2832:3161   */\n      swap3\n      swap2\n      pop\n      pop\n      jump\t// out\n        /* \"#utility.yul\":3167:3271   */\n    tag_67:\n        /* \"#utility.yul\":3212:3219   */\n      0x00\n        /* \"#utility.yul\":3241:3265   */\n      tag_108\n        /* \"#utility.yul\":3259:3264   */\n      dup3\n        /* \"#utility.yul\":3241:3265   */\n      tag_59\n      jump\t// in\n    tag_108:\n        /* \"#utility.yul\":3230:3265   */\n      swap1\n      pop\n        /* \"#utility.yul\":3167:3271   */\n      swap2\n      swap1\n      pop\n      jump\t// out\n        /* \"#utility.yul\":3277:3419   */\n    tag_68:\n        /* \"#utility.yul\":3380:3412   */\n      tag_110\n        /* \"#utility.yul\":3406:3411   */\n      dup2\n        /* \"#utility.yul\":3380:3412   */\n      tag_67\n      jump\t// in\n    tag_110:\n        /* \"#utility.yul\":3375:3378   */\n      dup3\n        /* \"#utility.yul\":3368:3413   */\n      mstore\n        /* \"#utility.yul\":3277:3419   */\n      pop\n      pop\n      jump\t// out\n        /* \"#utility.yul\":3425:3679   */\n    tag_38:\n        /* \"#utility.yul\":3534:3538   */\n      0x00\n        /* \"#utility.yul\":3572:3574   */\n      0x20\n        /* \"#utility.yul\":3561:3570   */\n      dup3\n        /* \"#utility.yul\":3557:3575   */\n      add\n        /* \"#utility.yul\":3549:3575   */\n      swap1\n      pop\n        /* \"#utility.yul\":3585:3672   */\n      tag_112\n        /* \"#utility.yul\":3669:3670   */\n      0x00\n        /* \"#utility.yul\":3658:3667   */\n      dup4\n        /* \"#utility.yul\":3654:3671   */\n      add\n        /* \"#utility.yul\":3645:3651   */\n      dup5\n        /* \"#utility.yul\":3585:3672   */\n      tag_68\n      jump\t// in\n    tag_112:\n        /* \"#utility.yul\":3425:3679   */\n      swap3\n      swap2\n      pop\n      pop\n      jump\t// out\n        /* \"#utility.yul\":3685:3908   */\n    tag_69:\n        /* \"#utility.yul\":3825:3859   */\n      0x596f7520617265206e6f7420746865206f776e6572206f6620746865204c6f74\n        /* \"#utility.yul\":3821:3822   */\n      0x00\n        /* \"#utility.yul\":3813:3819   */\n      dup3\n        /* \"#utility.yul\":3809:3823   */\n      add\n        /* \"#utility.yul\":3802:3860   */\n      mstore\n        /* \"#utility.yul\":3894:3900   */\n      0x7465727900000000000000000000000000000000000000000000000000000000\n        /* \"#utility.yul\":3889:3891   */\n      0x20\n        /* \"#utility.yul\":3881:3887   */\n      dup3\n        /* \"#utility.yul\":3877:3892   */\n      add\n        /* \"#utility.yul\":3870:3901   */\n      mstore\n        /* \"#utility.yul\":3685:3908   */\n      pop\n      jump\t// out\n        /* \"#utility.yul\":3914:4280   */\n    tag_70:\n        /* \"#utility.yul\":4056:4059   */\n      0x00\n        /* \"#utility.yul\":4077:4144   */\n      tag_115\n        /* \"#utility.yul\":4141:4143   */\n      0x24\n        /* \"#utility.yul\":4136:4139   */\n      dup4\n        /* \"#utility.yul\":4077:4144   */\n      tag_54\n      jump\t// in\n    tag_115:\n        /* \"#utility.yul\":4070:4144   */\n      swap2\n      pop\n        /* \"#utility.yul\":4153:4246   */\n      tag_116\n        /* \"#utility.yul\":4242:4245   */\n      dup3\n        /* \"#utility.yul\":4153:4246   */\n      tag_69\n      jump\t// in\n    tag_116:\n        /* \"#utility.yul\":4271:4273   */\n      0x40\n        /* \"#utility.yul\":4266:4269   */\n      dup3\n        /* \"#utility.yul\":4262:4274   */\n      add\n        /* \"#utility.yul\":4255:4274   */\n      swap1\n      pop\n        /* \"#utility.yul\":3914:4280   */\n      swap2\n      swap1\n      pop\n      jump\t// out\n        /* \"#utility.yul\":4286:4705   */\n    tag_42:\n        /* \"#utility.yul\":4452:4456   */\n      0x00\n        /* \"#utility.yul\":4490:4492   */\n      0x20\n        /* \"#utility.yul\":4479:4488   */\n      dup3\n        /* \"#utility.yul\":4475:4493   */\n      add\n        /* \"#utility.yul\":4467:4493   */\n      swap1\n      pop\n        /* \"#utility.yul\":4539:4548   */\n      dup2\n        /* \"#utility.yul\":4533:4537   */\n      dup2\n        /* \"#utility.yul\":4529:4549   */\n      sub\n        /* \"#utility.yul\":4525:4526   */\n      0x00\n        /* \"#utility.yul\":4514:4523   */\n      dup4\n        /* \"#utility.yul\":4510:4527   */\n      add\n        /* \"#utility.yul\":4503:4550   */\n      mstore\n        /* \"#utility.yul\":4567:4698   */\n      tag_118\n        /* \"#utility.yul\":4693:4697   */\n      dup2\n        /* \"#utility.yul\":4567:4698   */\n      tag_70\n      jump\t// in\n    tag_118:\n        /* \"#utility.yul\":4559:4698   */\n      swap1\n      pop\n        /* \"#utility.yul\":4286:4705   */\n      swap2\n      swap1\n      pop\n      jump\t// out\n        /* \"#utility.yul\":4711:4883   */\n    tag_71:\n        /* \"#utility.yul\":4851:4875   */\n      0x506c6179657273206d757374206265206174206c656100000000000000000000\n        /* \"#utility.yul\":4847:4848   */\n      0x00\n        /* \"#utility.yul\":4839:4845   */\n      dup3\n        /* \"#utility.yul\":4835:4849   */\n      add\n        /* \"#utility.yul\":4828:4876   */\n      mstore\n        /* \"#utility.yul\":4711:4883   */\n      pop\n      jump\t// out\n        /* \"#utility.yul\":4889:5255   */\n    tag_72:\n        /* \"#utility.yul\":5031:5034   */\n      0x00\n        /* \"#utility.yul\":5052:5119   */\n      tag_121\n        /* \"#utility.yul\":5116:5118   */\n      0x16\n        /* \"#utility.yul\":5111:5114   */\n      dup4\n        /* \"#utility.yul\":5052:5119   */\n      tag_54\n      jump\t// in\n    tag_121:\n        /* \"#utility.yul\":5045:5119   */\n      swap2\n      pop\n        /* \"#utility.yul\":5128:5221   */\n      tag_122\n        /* \"#utility.yul\":5217:5220   */\n      dup3\n        /* \"#utility.yul\":5128:5221   */\n      tag_71\n      jump\t// in\n    tag_122:\n        /* \"#utility.yul\":5246:5248   */\n      0x20\n        /* \"#utility.yul\":5241:5244   */\n      dup3\n        /* \"#utility.yul\":5237:5249   */\n      add\n        /* \"#utility.yul\":5230:5249   */\n      swap1\n      pop\n        /* \"#utility.yul\":4889:5255   */\n      swap2\n      swap1\n      pop\n      jump\t// out\n        /* \"#utility.yul\":5261:5680   */\n    tag_48:\n        /* \"#utility.yul\":5427:5431   */\n      0x00\n        /* \"#utility.yul\":5465:5467   */\n      0x20\n        /* \"#utility.yul\":5454:5463   */\n      dup3\n        /* \"#utility.yul\":5450:5468   */\n      add\n        /* \"#utility.yul\":5442:5468   */\n      swap1\n      pop\n        /* \"#utility.yul\":5514:5523   */\n      dup2\n        /* \"#utility.yul\":5508:5512   */\n      dup2\n        /* \"#utility.yul\":5504:5524   */\n      sub\n        /* \"#utility.yul\":5500:5501   */\n      0x00\n        /* \"#utility.yul\":5489:5498   */\n      dup4\n        /* \"#utility.yul\":5485:5502   */\n      add\n        /* \"#utility.yul\":5478:5525   */\n      mstore\n        /* \"#utility.yul\":5542:5673   */\n      tag_124\n        /* \"#utility.yul\":5668:5672   */\n      dup2\n        /* \"#utility.yul\":5542:5673   */\n      tag_72\n      jump\t// in\n    tag_124:\n        /* \"#utility.yul\":5534:5673   */\n      swap1\n      pop\n        /* \"#utility.yul\":5261:5680   */\n      swap2\n      swap1\n      pop\n      jump\t// out\n        /* \"#utility.yul\":5686:5765   */\n    tag_73:\n        /* \"#utility.yul\":5725:5732   */\n      0x00\n        /* \"#utility.yul\":5754:5759   */\n      dup2\n        /* \"#utility.yul\":5743:5759   */\n      swap1\n      pop\n        /* \"#utility.yul\":5686:5765   */\n      swap2\n      swap1\n      pop\n      jump\t// out\n        /* \"#utility.yul\":5771:5928   */\n    tag_74:\n        /* \"#utility.yul\":5876:5921   */\n      tag_127\n        /* \"#utility.yul\":5896:5920   */\n      tag_128\n        /* \"#utility.yul\":5914:5919   */\n      dup3\n        /* \"#utility.yul\":5896:5920   */\n      tag_57\n      jump\t// in\n    tag_128:\n        /* \"#utility.yul\":5876:5921   */\n      tag_73\n      jump\t// in\n    tag_127:\n        /* \"#utility.yul\":5871:5874   */\n      dup3\n        /* \"#utility.yul\":5864:5922   */\n      mstore\n        /* \"#utility.yul\":5771:5928   */\n      pop\n      pop\n      jump\t// out\n        /* \"#utility.yul\":5934:6472   */\n    tag_51:\n        /* \"#utility.yul\":6102:6105   */\n      0x00\n        /* \"#utility.yul\":6117:6192   */\n      tag_130\n        /* \"#utility.yul\":6188:6191   */\n      dup3\n        /* \"#utility.yul\":6179:6185   */\n      dup7\n        /* \"#utility.yul\":6117:6192   */\n      tag_74\n      jump\t// in\n    tag_130:\n        /* \"#utility.yul\":6217:6219   */\n      0x20\n        /* \"#utility.yul\":6212:6215   */\n      dup3\n        /* \"#utility.yul\":6208:6220   */\n      add\n        /* \"#utility.yul\":6201:6220   */\n      swap2\n      pop\n        /* \"#utility.yul\":6230:6305   */\n      tag_131\n        /* \"#utility.yul\":6301:6304   */\n      dup3\n        /* \"#utility.yul\":6292:6298   */\n      dup6\n        /* \"#utility.yul\":6230:6305   */\n      tag_74\n      jump\t// in\n    tag_131:\n        /* \"#utility.yul\":6330:6332   */\n      0x20\n        /* \"#utility.yul\":6325:6328   */\n      dup3\n        /* \"#utility.yul\":6321:6333   */\n      add\n        /* \"#utility.yul\":6314:6333   */\n      swap2\n      pop\n        /* \"#utility.yul\":6343:6418   */\n      tag_132\n        /* \"#utility.yul\":6414:6417   */\n      dup3\n        /* \"#utility.yul\":6405:6411   */\n      dup5\n        /* \"#utility.yul\":6343:6418   */\n      tag_74\n      jump\t// in\n    tag_132:\n        /* \"#utility.yul\":6443:6445   */\n      0x20\n        /* \"#utility.yul\":6438:6441   */\n      dup3\n        /* \"#utility.yul\":6434:6446   */\n      add\n        /* \"#utility.yul\":6427:6446   */\n      swap2\n      pop\n        /* \"#utility.yul\":6463:6466   */\n      dup2\n        /* \"#utility.yul\":6456:6466   */\n      swap1\n      pop\n        /* \"#utility.yul\":5934:6472   */\n      swap5\n      swap4\n      pop\n      pop\n      pop\n      pop\n      jump\t// out\n\n    auxdata: 0xa2646970667358221220429ccbe1d1ee4b8e6621f465cd452d44ad13167a1d166ebaed30f5c891912bda64736f6c634300080d0033\n}\n",
				"bytecode": {
					"linkReferences": {},
					"object": "608060405234801561001057600080fd5b50336000806101000a81548173ffffffffffffffffffffffffffffffffffffffff021916908373ffffffffffffffffffffffffffffffffffffffff16021790555061075a806100606000396000f3fe60806040526004361061004e5760003560e01c806312065fe0146101015780632d8cd0961461012c5780635ec01e4d146101575780638da5cb5b14610182578063f71d96cb146101ad576100fc565b366100fc576101f4341015610098576040517f08c379a000000000000000000000000000000000000000000000000000000000815260040161008f9061047e565b60405180910390fd5b6001339080600181540180825580915050600190039060005260206000200160009091909190916101000a81548173ffffffffffffffffffffffffffffffffffffffff021916908373ffffffffffffffffffffffffffffffffffffffff1602179055005b600080fd5b34801561010d57600080fd5b506101166101ea565b60405161012391906104b7565b60405180910390f35b34801561013857600080fd5b50610141610281565b60405161014e9190610513565b60405180910390f35b34801561016357600080fd5b5061016c61035e565b60405161017991906104b7565b60405180910390f35b34801561018e57600080fd5b50610197610398565b6040516101a49190610513565b60405180910390f35b3480156101b957600080fd5b506101d460048036038101906101cf919061055f565b6103bc565b6040516101e191906105ad565b60405180910390f35b60008060009054906101000a900473ffffffffffffffffffffffffffffffffffffffff1673ffffffffffffffffffffffffffffffffffffffff163373ffffffffffffffffffffffffffffffffffffffff161461027b576040517f08c379a00000000000000000000000000000000000000000000000000000000081526004016102729061063a565b60405180910390fd5b47905090565b60008060009054906101000a900473ffffffffffffffffffffffffffffffffffffffff1673ffffffffffffffffffffffffffffffffffffffff163373ffffffffffffffffffffffffffffffffffffffff1614610312576040517f08c379a00000000000000000000000000000000000000000000000000000000081526004016103099061063a565b60405180910390fd5b6003600180549050101561035b576040517f08c379a0000000000000000000000000000000000000000000000000000000008152600401610352906106a6565b60405180910390fd5b90565b6000444260018054905060405160200161037a939291906106e7565b6040516020818303038152906040528051906020012060001c905090565b60008054906101000a900473ffffffffffffffffffffffffffffffffffffffff1681565b600181815481106103cc57600080fd5b906000526020600020016000915054906101000a900473ffffffffffffffffffffffffffffffffffffffff1681565b600082825260208201905092915050565b7f596f752063616e6e6f742070617274696369706174652077697468206c6f772060008201527f62616c616e636500000000000000000000000000000000000000000000000000602082015250565b60006104686027836103fb565b91506104738261040c565b604082019050919050565b600060208201905081810360008301526104978161045b565b9050919050565b6000819050919050565b6104b18161049e565b82525050565b60006020820190506104cc60008301846104a8565b92915050565b600073ffffffffffffffffffffffffffffffffffffffff82169050919050565b60006104fd826104d2565b9050919050565b61050d816104f2565b82525050565b60006020820190506105286000830184610504565b92915050565b600080fd5b61053c8161049e565b811461054757600080fd5b50565b60008135905061055981610533565b92915050565b6000602082840312156105755761057461052e565b5b60006105838482850161054a565b91505092915050565b6000610597826104d2565b9050919050565b6105a78161058c565b82525050565b60006020820190506105c2600083018461059e565b92915050565b7f596f7520617265206e6f7420746865206f776e6572206f6620746865204c6f7460008201527f7465727900000000000000000000000000000000000000000000000000000000602082015250565b60006106246024836103fb565b915061062f826105c8565b604082019050919050565b6000602082019050818103600083015261065381610617565b9050919050565b7f506c6179657273206d757374206265206174206c656100000000000000000000600082015250565b60006106906016836103fb565b915061069b8261065a565b602082019050919050565b600060208201905081810360008301526106bf81610683565b9050919050565b6000819050919050565b6106e16106dc8261049e565b6106c6565b82525050565b60006106f382866106d0565b60208201915061070382856106d0565b60208201915061071382846106d0565b60208201915081905094935050505056fea2646970667358221220429ccbe1d1ee4b8e6621f465cd452d44ad13167a1d166ebaed30f5c891912bda64736f6c634300080d0033",
					"opcodes": "PUSH1 0x80 PUSH1 0x40 MSTORE CALLVALUE DUP1 ISZERO PUSH2 0x10 JUMPI PUSH1 0x0 DUP1 REVERT JUMPDEST POP CALLER PUSH1 0x0 DUP1 PUSH2 0x100 EXP DUP2 SLOAD DUP2 PUSH20 0xFFFFFFFFFFFFFFFFFFFFFFFFFFFFFFFFFFFFFFFF MUL NOT AND SWAP1 DUP4 PUSH20 0xFFFFFFFFFFFFFFFFFFFFFFFFFFFFFFFFFFFFFFFF AND MUL OR SWAP1 SSTORE POP PUSH2 0x75A DUP1 PUSH2 0x60 PUSH1 0x0 CODECOPY PUSH1 0x0 RETURN INVALID PUSH1 0x80 PUSH1 0x40 MSTORE PUSH1 0x4 CALLDATASIZE LT PUSH2 0x4E JUMPI PUSH1 0x0 CALLDATALOAD PUSH1 0xE0 SHR DUP1 PUSH4 0x12065FE0 EQ PUSH2 0x101 JUMPI DUP1 PUSH4 0x2D8CD096 EQ PUSH2 0x12C JUMPI DUP1 PUSH4 0x5EC01E4D EQ PUSH2 0x157 JUMPI DUP1 PUSH4 0x8DA5CB5B EQ PUSH2 0x182 JUMPI DUP1 PUSH4 0xF71D96CB EQ PUSH2 0x1AD JUMPI PUSH2 0xFC JUMP JUMPDEST CALLDATASIZE PUSH2 0xFC JUMPI PUSH2 0x1F4 CALLVALUE LT ISZERO PUSH2 0x98 JUMPI PUSH1 0x40 MLOAD PUSH32 0x8C379A000000000000000000000000000000000000000000000000000000000 DUP2 MSTORE PUSH1 0x4 ADD PUSH2 0x8F SWAP1 PUSH2 0x47E JUMP JUMPDEST PUSH1 0x40 MLOAD DUP1 SWAP2 SUB SWAP1 REVERT JUMPDEST PUSH1 0x1 CALLER SWAP1 DUP1 PUSH1 0x1 DUP2 SLOAD ADD DUP1 DUP3 SSTORE DUP1 SWAP2 POP POP PUSH1 0x1 SWAP1 SUB SWAP1 PUSH1 0x0 MSTORE PUSH1 0x20 PUSH1 0x0 KECCAK256 ADD PUSH1 0x0 SWAP1 SWAP2 SWAP1 SWAP2 SWAP1 SWAP2 PUSH2 0x100 EXP DUP2 SLOAD DUP2 PUSH20 0xFFFFFFFFFFFFFFFFFFFFFFFFFFFFFFFFFFFFFFFF MUL NOT AND SWAP1 DUP4 PUSH20 0xFFFFFFFFFFFFFFFFFFFFFFFFFFFFFFFFFFFFFFFF AND MUL OR SWAP1 SSTORE STOP JUMPDEST PUSH1 0x0 DUP1 REVERT JUMPDEST CALLVALUE DUP1 ISZERO PUSH2 0x10D JUMPI PUSH1 0x0 DUP1 REVERT JUMPDEST POP PUSH2 0x116 PUSH2 0x1EA JUMP JUMPDEST PUSH1 0x40 MLOAD PUSH2 0x123 SWAP2 SWAP1 PUSH2 0x4B7 JUMP JUMPDEST PUSH1 0x40 MLOAD DUP1 SWAP2 SUB SWAP1 RETURN JUMPDEST CALLVALUE DUP1 ISZERO PUSH2 0x138 JUMPI PUSH1 0x0 DUP1 REVERT JUMPDEST POP PUSH2 0x141 PUSH2 0x281 JUMP JUMPDEST PUSH1 0x40 MLOAD PUSH2 0x14E SWAP2 SWAP1 PUSH2 0x513 JUMP JUMPDEST PUSH1 0x40 MLOAD DUP1 SWAP2 SUB SWAP1 RETURN JUMPDEST CALLVALUE DUP1 ISZERO PUSH2 0x163 JUMPI PUSH1 0x0 DUP1 REVERT JUMPDEST POP PUSH2 0x16C PUSH2 0x35E JUMP JUMPDEST PUSH1 0x40 MLOAD PUSH2 0x179 SWAP2 SWAP1 PUSH2 0x4B7 JUMP JUMPDEST PUSH1 0x40 MLOAD DUP1 SWAP2 SUB SWAP1 RETURN JUMPDEST CALLVALUE DUP1 ISZERO PUSH2 0x18E JUMPI PUSH1 0x0 DUP1 REVERT JUMPDEST POP PUSH2 0x197 PUSH2 0x398 JUMP JUMPDEST PUSH1 0x40 MLOAD PUSH2 0x1A4 SWAP2 SWAP1 PUSH2 0x513 JUMP JUMPDEST PUSH1 0x40 MLOAD DUP1 SWAP2 SUB SWAP1 RETURN JUMPDEST CALLVALUE DUP1 ISZERO PUSH2 0x1B9 JUMPI PUSH1 0x0 DUP1 REVERT JUMPDEST POP PUSH2 0x1D4 PUSH1 0x4 DUP1 CALLDATASIZE SUB DUP2 ADD SWAP1 PUSH2 0x1CF SWAP2 SWAP1 PUSH2 0x55F JUMP JUMPDEST PUSH2 0x3BC JUMP JUMPDEST PUSH1 0x40 MLOAD PUSH2 0x1E1 SWAP2 SWAP1 PUSH2 0x5AD JUMP JUMPDEST PUSH1 0x40 MLOAD DUP1 SWAP2 SUB SWAP1 RETURN JUMPDEST PUSH1 0x0 DUP1 PUSH1 0x0 SWAP1 SLOAD SWAP1 PUSH2 0x100 EXP SWAP1 DIV PUSH20 0xFFFFFFFFFFFFFFFFFFFFFFFFFFFFFFFFFFFFFFFF AND PUSH20 0xFFFFFFFFFFFFFFFFFFFFFFFFFFFFFFFFFFFFFFFF AND CALLER PUSH20 0xFFFFFFFFFFFFFFFFFFFFFFFFFFFFFFFFFFFFFFFF AND EQ PUSH2 0x27B JUMPI PUSH1 0x40 MLOAD PUSH32 0x8C379A000000000000000000000000000000000000000000000000000000000 DUP2 MSTORE PUSH1 0x4 ADD PUSH2 0x272 SWAP1 PUSH2 0x63A JUMP JUMPDEST PUSH1 0x40 MLOAD DUP1 SWAP2 SUB SWAP1 REVERT JUMPDEST SELFBALANCE SWAP1 POP SWAP1 JUMP JUMPDEST PUSH1 0x0 DUP1 PUSH1 0x0 SWAP1 SLOAD SWAP1 PUSH2 0x100 EXP SWAP1 DIV PUSH20 0xFFFFFFFFFFFFFFFFFFFFFFFFFFFFFFFFFFFFFFFF AND PUSH20 0xFFFFFFFFFFFFFFFFFFFFFFFFFFFFFFFFFFFFFFFF AND CALLER PUSH20 0xFFFFFFFFFFFFFFFFFFFFFFFFFFFFFFFFFFFFFFFF AND EQ PUSH2 0x312 JUMPI PUSH1 0x40 MLOAD PUSH32 0x8C379A000000000000000000000000000000000000000000000000000000000 DUP2 MSTORE PUSH1 0x4 ADD PUSH2 0x309 SWAP1 PUSH2 0x63A JUMP JUMPDEST PUSH1 0x40 MLOAD DUP1 SWAP2 SUB SWAP1 REVERT JUMPDEST PUSH1 0x3 PUSH1 0x1 DUP1 SLOAD SWAP1 POP LT ISZERO PUSH2 0x35B JUMPI PUSH1 0x40 MLOAD PUSH32 0x8C379A000000000000000000000000000000000000000000000000000000000 DUP2 MSTORE PUSH1 0x4 ADD PUSH2 0x352 SWAP1 PUSH2 0x6A6 JUMP JUMPDEST PUSH1 0x40 MLOAD DUP1 SWAP2 SUB SWAP1 REVERT JUMPDEST SWAP1 JUMP JUMPDEST PUSH1 0x0 DIFFICULTY TIMESTAMP PUSH1 0x1 DUP1 SLOAD SWAP1 POP PUSH1 0x40 MLOAD PUSH1 0x20 ADD PUSH2 0x37A SWAP4 SWAP3 SWAP2 SWAP1 PUSH2 0x6E7 JUMP JUMPDEST PUSH1 0x40 MLOAD PUSH1 0x20 DUP2 DUP4 SUB SUB DUP2 MSTORE SWAP1 PUSH1 0x40 MSTORE DUP1 MLOAD SWAP1 PUSH1 0x20 ADD KECCAK256 PUSH1 0x0 SHR SWAP1 POP SWAP1 JUMP JUMPDEST PUSH1 0x0 DUP1 SLOAD SWAP1 PUSH2 0x100 EXP SWAP1 DIV PUSH20 0xFFFFFFFFFFFFFFFFFFFFFFFFFFFFFFFFFFFFFFFF AND DUP2 JUMP JUMPDEST PUSH1 0x1 DUP2 DUP2 SLOAD DUP2 LT PUSH2 0x3CC JUMPI PUSH1 0x0 DUP1 REVERT JUMPDEST SWAP1 PUSH1 0x0 MSTORE PUSH1 0x20 PUSH1 0x0 KECCAK256 ADD PUSH1 0x0 SWAP2 POP SLOAD SWAP1 PUSH2 0x100 EXP SWAP1 DIV PUSH20 0xFFFFFFFFFFFFFFFFFFFFFFFFFFFFFFFFFFFFFFFF AND DUP2 JUMP JUMPDEST PUSH1 0x0 DUP3 DUP3 MSTORE PUSH1 0x20 DUP3 ADD SWAP1 POP SWAP3 SWAP2 POP POP JUMP JUMPDEST PUSH32 0x596F752063616E6E6F742070617274696369706174652077697468206C6F7720 PUSH1 0x0 DUP3 ADD MSTORE PUSH32 0x62616C616E636500000000000000000000000000000000000000000000000000 PUSH1 0x20 DUP3 ADD MSTORE POP JUMP JUMPDEST PUSH1 0x0 PUSH2 0x468 PUSH1 0x27 DUP4 PUSH2 0x3FB JUMP JUMPDEST SWAP2 POP PUSH2 0x473 DUP3 PUSH2 0x40C JUMP JUMPDEST PUSH1 0x40 DUP3 ADD SWAP1 POP SWAP2 SWAP1 POP JUMP JUMPDEST PUSH1 0x0 PUSH1 0x20 DUP3 ADD SWAP1 POP DUP2 DUP2 SUB PUSH1 0x0 DUP4 ADD MSTORE PUSH2 0x497 DUP2 PUSH2 0x45B JUMP JUMPDEST SWAP1 POP SWAP2 SWAP1 POP JUMP JUMPDEST PUSH1 0x0 DUP2 SWAP1 POP SWAP2 SWAP1 POP JUMP JUMPDEST PUSH2 0x4B1 DUP2 PUSH2 0x49E JUMP JUMPDEST DUP3 MSTORE POP POP JUMP JUMPDEST PUSH1 0x0 PUSH1 0x20 DUP3 ADD SWAP1 POP PUSH2 0x4CC PUSH1 0x0 DUP4 ADD DUP5 PUSH2 0x4A8 JUMP JUMPDEST SWAP3 SWAP2 POP POP JUMP JUMPDEST PUSH1 0x0 PUSH20 0xFFFFFFFFFFFFFFFFFFFFFFFFFFFFFFFFFFFFFFFF DUP3 AND SWAP1 POP SWAP2 SWAP1 POP JUMP JUMPDEST PUSH1 0x0 PUSH2 0x4FD DUP3 PUSH2 0x4D2 JUMP JUMPDEST SWAP1 POP SWAP2 SWAP1 POP JUMP JUMPDEST PUSH2 0x50D DUP2 PUSH2 0x4F2 JUMP JUMPDEST DUP3 MSTORE POP POP JUMP JUMPDEST PUSH1 0x0 PUSH1 0x20 DUP3 ADD SWAP1 POP PUSH2 0x528 PUSH1 0x0 DUP4 ADD DUP5 PUSH2 0x504 JUMP JUMPDEST SWAP3 SWAP2 POP POP JUMP JUMPDEST PUSH1 0x0 DUP1 REVERT JUMPDEST PUSH2 0x53C DUP2 PUSH2 0x49E JUMP JUMPDEST DUP2 EQ PUSH2 0x547 JUMPI PUSH1 0x0 DUP1 REVERT JUMPDEST POP JUMP JUMPDEST PUSH1 0x0 DUP2 CALLDATALOAD SWAP1 POP PUSH2 0x559 DUP2 PUSH2 0x533 JUMP JUMPDEST SWAP3 SWAP2 POP POP JUMP JUMPDEST PUSH1 0x0 PUSH1 0x20 DUP3 DUP5 SUB SLT ISZERO PUSH2 0x575 JUMPI PUSH2 0x574 PUSH2 0x52E JUMP JUMPDEST JUMPDEST PUSH1 0x0 PUSH2 0x583 DUP5 DUP3 DUP6 ADD PUSH2 0x54A JUMP JUMPDEST SWAP2 POP POP SWAP3 SWAP2 POP POP JUMP JUMPDEST PUSH1 0x0 PUSH2 0x597 DUP3 PUSH2 0x4D2 JUMP JUMPDEST SWAP1 POP SWAP2 SWAP1 POP JUMP JUMPDEST PUSH2 0x5A7 DUP2 PUSH2 0x58C JUMP JUMPDEST DUP3 MSTORE POP POP JUMP JUMPDEST PUSH1 0x0 PUSH1 0x20 DUP3 ADD SWAP1 POP PUSH2 0x5C2 PUSH1 0x0 DUP4 ADD DUP5 PUSH2 0x59E JUMP JUMPDEST SWAP3 SWAP2 POP POP JUMP JUMPDEST PUSH32 0x596F7520617265206E6F7420746865206F776E6572206F6620746865204C6F74 PUSH1 0x0 DUP3 ADD MSTORE PUSH32 0x7465727900000000000000000000000000000000000000000000000000000000 PUSH1 0x20 DUP3 ADD MSTORE POP JUMP JUMPDEST PUSH1 0x0 PUSH2 0x624 PUSH1 0x24 DUP4 PUSH2 0x3FB JUMP JUMPDEST SWAP2 POP PUSH2 0x62F DUP3 PUSH2 0x5C8 JUMP JUMPDEST PUSH1 0x40 DUP3 ADD SWAP1 POP SWAP2 SWAP1 POP JUMP JUMPDEST PUSH1 0x0 PUSH1 0x20 DUP3 ADD SWAP1 POP DUP2 DUP2 SUB PUSH1 0x0 DUP4 ADD MSTORE PUSH2 0x653 DUP2 PUSH2 0x617 JUMP JUMPDEST SWAP1 POP SWAP2 SWAP1 POP JUMP JUMPDEST PUSH32 0x506C6179657273206D757374206265206174206C656100000000000000000000 PUSH1 0x0 DUP3 ADD MSTORE POP JUMP JUMPDEST PUSH1 0x0 PUSH2 0x690 PUSH1 0x16 DUP4 PUSH2 0x3FB JUMP JUMPDEST SWAP2 POP PUSH2 0x69B DUP3 PUSH2 0x65A JUMP JUMPDEST PUSH1 0x20 DUP3 ADD SWAP1 POP SWAP2 SWAP1 POP JUMP JUMPDEST PUSH1 0x0 PUSH1 0x20 DUP3 ADD SWAP1 POP DUP2 DUP2 SUB PUSH1 0x0 DUP4 ADD MSTORE PUSH2 0x6BF DUP2 PUSH2 0x683 JUMP JUMPDEST SWAP1 POP SWAP2 SWAP1 POP JUMP JUMPDEST PUSH1 0x0 DUP2 SWAP1 POP SWAP2 SWAP1 POP JUMP JUMPDEST PUSH2 0x6E1 PUSH2 0x6DC DUP3 PUSH2 0x49E JUMP JUMPDEST PUSH2 0x6C6 JUMP JUMPDEST DUP3 MSTORE POP POP JUMP JUMPDEST PUSH1 0x0 PUSH2 0x6F3 DUP3 DUP7 PUSH2 0x6D0 JUMP JUMPDEST PUSH1 0x20 DUP3 ADD SWAP2 POP PUSH2 0x703 DUP3 DUP6 PUSH2 0x6D0 JUMP JUMPDEST PUSH1 0x20 DUP3 ADD SWAP2 POP PUSH2 0x713 DUP3 DUP5 PUSH2 0x6D0 JUMP JUMPDEST PUSH1 0x20 DUP3 ADD SWAP2 POP DUP2 SWAP1 POP SWAP5 SWAP4 POP POP POP POP JUMP INVALID LOG2 PUSH5 0x6970667358 0x22 SLT KECCAK256 TIMESTAMP SWAP13 0xCB 0xE1 0xD1 0xEE 0x4B DUP15 PUSH7 0x21F465CD452D44 0xAD SGT AND PUSH27 0x1D166EBAED30F5C891912BDA64736F6C634300080D003300000000 "
				},
				"gasEstimates": {
					"creation": {
						"codeDepositCost": "376400",
						"executionCost": "24677",
						"totalCost": "401077"
					},
					"external": {
						"announceWinner()": "4740",
						"getBalance()": "2602",
						"owner()": "2555",
						"players(uint256)": "5022",
						"random()": "infinite"
					}
				},
				"methodIdentifiers": {
					"announceWinner()": "2d8cd096",
					"getBalance()": "12065fe0",
					"owner()": "8da5cb5b",
					"players(uint256)": "f71d96cb",
					"random()": "5ec01e4d"
				}
			},
			"storageLayout": {
				"storage": [
					{
						"astId": 3,
						"contract": "contracts/Lottery-App.sol:Lottery",
						"label": "owner",
						"offset": 0,
						"slot": "0",
						"type": "t_address"
					},
					{
						"astId": 6,
						"contract": "contracts/Lottery-App.sol:Lottery",
						"label": "players",
						"offset": 0,
						"slot": "1",
						"type": "t_array(t_address_payable)dyn_storage"
					}
				],
				"types": {
					"t_address": {
						"encoding": "inplace",
						"label": "address",
						"numberOfBytes": "20"
					},
					"t_address_payable": {
						"encoding": "inplace",
						"label": "address payable",
						"numberOfBytes": "20"
					},
					"t_array(t_address_payable)dyn_storage": {
						"base": "t_address_payable",
						"encoding": "dynamic_array",
						"label": "address payable[]",
						"numberOfBytes": "32"
					}
				}
			},
			"userdoc": {
				"kind": "user",
				"methods": {},
				"version": 1
			}
		}
	}
}