{
	"contracts/mapping.sol": {
		"mappingInSolidity": {
			"abi": [
				{
					"inputs": [
						{
							"internalType": "uint256",
							"name": "",
							"type": "uint256"
						}
					],
					"name": "myData",
					"outputs": [
						{
							"internalType": "string",
							"name": "",
							"type": "string"
						}
					],
					"stateMutability": "view",
					"type": "function"
				},
				{
					"inputs": [
						{
							"internalType": "uint256",
							"name": "key",
							"type": "uint256"
						},
						{
							"internalType": "string",
							"name": "value",
							"type": "string"
						}
					],
					"name": "setter",
					"outputs": [],
					"stateMutability": "nonpayable",
					"type": "function"
				}
			],
			"devdoc": {
				"kind": "dev",
				"methods": {},
				"version": 1
			},
			"evm": {
				"assembly": "    /* \"contracts/mapping.sol\":70:257  contract mappingInSolidity {... */\n  mstore(0x40, 0x80)\n  callvalue\n  dup1\n  iszero\n  tag_1\n  jumpi\n  0x00\n  dup1\n  revert\ntag_1:\n  pop\n  dataSize(sub_0)\n  dup1\n  dataOffset(sub_0)\n  0x00\n  codecopy\n  0x00\n  return\nstop\n\nsub_0: assembly {\n        /* \"contracts/mapping.sol\":70:257  contract mappingInSolidity {... */\n      mstore(0x40, 0x80)\n      callvalue\n      dup1\n      iszero\n      tag_1\n      jumpi\n      0x00\n      dup1\n      revert\n    tag_1:\n      pop\n      jumpi(tag_2, lt(calldatasize, 0x04))\n      shr(0xe0, calldataload(0x00))\n      dup1\n      0x0955da98\n      eq\n      tag_3\n      jumpi\n      dup1\n      0xbcb131c9\n      eq\n      tag_4\n      jumpi\n    tag_2:\n      0x00\n      dup1\n      revert\n        /* \"contracts/mapping.sol\":114:151  mapping(uint => string) public myData */\n    tag_3:\n      tag_5\n      0x04\n      dup1\n      calldatasize\n      sub\n      dup2\n      add\n      swap1\n      tag_6\n      swap2\n      swap1\n      tag_7\n      jump\t// in\n    tag_6:\n      tag_8\n      jump\t// in\n    tag_5:\n      mload(0x40)\n      tag_9\n      swap2\n      swap1\n      tag_10\n      jump\t// in\n    tag_9:\n      mload(0x40)\n      dup1\n      swap2\n      sub\n      swap1\n      return\n        /* \"contracts/mapping.sol\":162:254  function setter(uint key, string memory value) public {... */\n    tag_4:\n      tag_11\n      0x04\n      dup1\n      calldatasize\n      sub\n      dup2\n      add\n      swap1\n      tag_12\n      swap2\n      swap1\n      tag_13\n      jump\t// in\n    tag_12:\n      tag_14\n      jump\t// in\n    tag_11:\n      stop\n        /* \"contracts/mapping.sol\":114:151  mapping(uint => string) public myData */\n    tag_8:\n      mstore(0x20, 0x00)\n      dup1\n      0x00\n      mstore\n      keccak256(0x00, 0x40)\n      0x00\n      swap2\n      pop\n      swap1\n      pop\n      dup1\n      sload\n      tag_15\n      swap1\n      tag_16\n      jump\t// in\n    tag_15:\n      dup1\n      0x1f\n      add\n      0x20\n      dup1\n      swap2\n      div\n      mul\n      0x20\n      add\n      mload(0x40)\n      swap1\n      dup2\n      add\n      0x40\n      mstore\n      dup1\n      swap3\n      swap2\n      swap1\n      dup2\n      dup2\n      mstore\n      0x20\n      add\n      dup3\n      dup1\n      sload\n      tag_17\n      swap1\n      tag_16\n      jump\t// in\n    tag_17:\n      dup1\n      iszero\n      tag_18\n      jumpi\n      dup1\n      0x1f\n      lt\n      tag_19\n      jumpi\n      0x0100\n      dup1\n      dup4\n      sload\n      div\n      mul\n      dup4\n      mstore\n      swap2\n      0x20\n      add\n      swap2\n      jump(tag_18)\n    tag_19:\n      dup3\n      add\n      swap2\n      swap1\n      0x00\n      mstore\n      keccak256(0x00, 0x20)\n      swap1\n    tag_20:\n      dup2\n      sload\n      dup2\n      mstore\n      swap1\n      0x01\n      add\n      swap1\n      0x20\n      add\n      dup1\n      dup4\n      gt\n      tag_20\n      jumpi\n      dup3\n      swap1\n      sub\n      0x1f\n      and\n      dup3\n      add\n      swap2\n    tag_18:\n      pop\n      pop\n      pop\n      pop\n      pop\n      dup2\n      jump\t// out\n        /* \"contracts/mapping.sol\":162:254  function setter(uint key, string memory value) public {... */\n    tag_14:\n        /* \"contracts/mapping.sol\":241:246  value */\n      dup1\n        /* \"contracts/mapping.sol\":227:233  myData */\n      0x00\n        /* \"contracts/mapping.sol\":227:238  myData[key] */\n      dup1\n        /* \"contracts/mapping.sol\":234:237  key */\n      dup5\n        /* \"contracts/mapping.sol\":227:238  myData[key] */\n      dup2\n      mstore\n      0x20\n      add\n      swap1\n      dup2\n      mstore\n      0x20\n      add\n      0x00\n      keccak256\n        /* \"contracts/mapping.sol\":227:246  myData[key] = value */\n      swap1\n      dup1\n      mload\n      swap1\n      0x20\n      add\n      swap1\n      tag_22\n      swap3\n      swap2\n      swap1\n      tag_23\n      jump\t// in\n    tag_22:\n      pop\n        /* \"contracts/mapping.sol\":162:254  function setter(uint key, string memory value) public {... */\n      pop\n      pop\n      jump\t// out\n    tag_23:\n      dup3\n      dup1\n      sload\n      tag_24\n      swap1\n      tag_16\n      jump\t// in\n    tag_24:\n      swap1\n      0x00\n      mstore\n      keccak256(0x00, 0x20)\n      swap1\n      0x1f\n      add\n      0x20\n      swap1\n      div\n      dup2\n      add\n      swap3\n      dup3\n      tag_26\n      jumpi\n      0x00\n      dup6\n      sstore\n      jump(tag_25)\n    tag_26:\n      dup3\n      0x1f\n      lt\n      tag_27\n      jumpi\n      dup1\n      mload\n      not(0xff)\n      and\n      dup4\n      dup1\n      add\n      or\n      dup6\n      sstore\n      jump(tag_25)\n    tag_27:\n      dup3\n      dup1\n      add\n      0x01\n      add\n      dup6\n      sstore\n      dup3\n      iszero\n      tag_25\n      jumpi\n      swap2\n      dup3\n      add\n    tag_28:\n      dup3\n      dup2\n      gt\n      iszero\n      tag_29\n      jumpi\n      dup3\n      mload\n      dup3\n      sstore\n      swap2\n      0x20\n      add\n      swap2\n      swap1\n      0x01\n      add\n      swap1\n      jump(tag_28)\n    tag_29:\n    tag_25:\n      pop\n      swap1\n      pop\n      tag_30\n      swap2\n      swap1\n      tag_31\n      jump\t// in\n    tag_30:\n      pop\n      swap1\n      jump\t// out\n    tag_31:\n    tag_32:\n      dup1\n      dup3\n      gt\n      iszero\n      tag_33\n      jumpi\n      0x00\n      dup2\n      0x00\n      swap1\n      sstore\n      pop\n      0x01\n      add\n      jump(tag_32)\n    tag_33:\n      pop\n      swap1\n      jump\t// out\n        /* \"#utility.yul\":7:82   */\n    tag_34:\n        /* \"#utility.yul\":40:46   */\n      0x00\n        /* \"#utility.yul\":73:75   */\n      0x40\n        /* \"#utility.yul\":67:76   */\n      mload\n        /* \"#utility.yul\":57:76   */\n      swap1\n      pop\n        /* \"#utility.yul\":7:82   */\n      swap1\n      jump\t// out\n        /* \"#utility.yul\":88:205   */\n    tag_35:\n        /* \"#utility.yul\":197:198   */\n      0x00\n        /* \"#utility.yul\":194:195   */\n      dup1\n        /* \"#utility.yul\":187:199   */\n      revert\n        /* \"#utility.yul\":211:328   */\n    tag_36:\n        /* \"#utility.yul\":320:321   */\n      0x00\n        /* \"#utility.yul\":317:318   */\n      dup1\n        /* \"#utility.yul\":310:322   */\n      revert\n        /* \"#utility.yul\":334:411   */\n    tag_37:\n        /* \"#utility.yul\":371:378   */\n      0x00\n        /* \"#utility.yul\":400:405   */\n      dup2\n        /* \"#utility.yul\":389:405   */\n      swap1\n      pop\n        /* \"#utility.yul\":334:411   */\n      swap2\n      swap1\n      pop\n      jump\t// out\n        /* \"#utility.yul\":417:539   */\n    tag_38:\n        /* \"#utility.yul\":490:514   */\n      tag_61\n        /* \"#utility.yul\":508:513   */\n      dup2\n        /* \"#utility.yul\":490:514   */\n      tag_37\n      jump\t// in\n    tag_61:\n        /* \"#utility.yul\":483:488   */\n      dup2\n        /* \"#utility.yul\":480:515   */\n      eq\n        /* \"#utility.yul\":470:533   */\n      tag_62\n      jumpi\n        /* \"#utility.yul\":529:530   */\n      0x00\n        /* \"#utility.yul\":526:527   */\n      dup1\n        /* \"#utility.yul\":519:531   */\n      revert\n        /* \"#utility.yul\":470:533   */\n    tag_62:\n        /* \"#utility.yul\":417:539   */\n      pop\n      jump\t// out\n        /* \"#utility.yul\":545:684   */\n    tag_39:\n        /* \"#utility.yul\":591:596   */\n      0x00\n        /* \"#utility.yul\":629:635   */\n      dup2\n        /* \"#utility.yul\":616:636   */\n      calldataload\n        /* \"#utility.yul\":607:636   */\n      swap1\n      pop\n        /* \"#utility.yul\":645:678   */\n      tag_64\n        /* \"#utility.yul\":672:677   */\n      dup2\n        /* \"#utility.yul\":645:678   */\n      tag_38\n      jump\t// in\n    tag_64:\n        /* \"#utility.yul\":545:684   */\n      swap3\n      swap2\n      pop\n      pop\n      jump\t// out\n        /* \"#utility.yul\":690:1019   */\n    tag_7:\n        /* \"#utility.yul\":749:755   */\n      0x00\n        /* \"#utility.yul\":798:800   */\n      0x20\n        /* \"#utility.yul\":786:795   */\n      dup3\n        /* \"#utility.yul\":777:784   */\n      dup5\n        /* \"#utility.yul\":773:796   */\n      sub\n        /* \"#utility.yul\":769:801   */\n      slt\n        /* \"#utility.yul\":766:885   */\n      iszero\n      tag_66\n      jumpi\n        /* \"#utility.yul\":804:883   */\n      tag_67\n      tag_35\n      jump\t// in\n    tag_67:\n        /* \"#utility.yul\":766:885   */\n    tag_66:\n        /* \"#utility.yul\":924:925   */\n      0x00\n        /* \"#utility.yul\":949:1002   */\n      tag_68\n        /* \"#utility.yul\":994:1001   */\n      dup5\n        /* \"#utility.yul\":985:991   */\n      dup3\n        /* \"#utility.yul\":974:983   */\n      dup6\n        /* \"#utility.yul\":970:992   */\n      add\n        /* \"#utility.yul\":949:1002   */\n      tag_39\n      jump\t// in\n    tag_68:\n        /* \"#utility.yul\":939:1002   */\n      swap2\n      pop\n        /* \"#utility.yul\":895:1012   */\n      pop\n        /* \"#utility.yul\":690:1019   */\n      swap3\n      swap2\n      pop\n      pop\n      jump\t// out\n        /* \"#utility.yul\":1025:1124   */\n    tag_40:\n        /* \"#utility.yul\":1077:1083   */\n      0x00\n        /* \"#utility.yul\":1111:1116   */\n      dup2\n        /* \"#utility.yul\":1105:1117   */\n      mload\n        /* \"#utility.yul\":1095:1117   */\n      swap1\n      pop\n        /* \"#utility.yul\":1025:1124   */\n      swap2\n      swap1\n      pop\n      jump\t// out\n        /* \"#utility.yul\":1130:1299   */\n    tag_41:\n        /* \"#utility.yul\":1214:1225   */\n      0x00\n        /* \"#utility.yul\":1248:1254   */\n      dup3\n        /* \"#utility.yul\":1243:1246   */\n      dup3\n        /* \"#utility.yul\":1236:1255   */\n      mstore\n        /* \"#utility.yul\":1288:1292   */\n      0x20\n        /* \"#utility.yul\":1283:1286   */\n      dup3\n        /* \"#utility.yul\":1279:1293   */\n      add\n        /* \"#utility.yul\":1264:1293   */\n      swap1\n      pop\n        /* \"#utility.yul\":1130:1299   */\n      swap3\n      swap2\n      pop\n      pop\n      jump\t// out\n        /* \"#utility.yul\":1305:1612   */\n    tag_42:\n        /* \"#utility.yul\":1373:1374   */\n      0x00\n        /* \"#utility.yul\":1383:1496   */\n    tag_72:\n        /* \"#utility.yul\":1397:1403   */\n      dup4\n        /* \"#utility.yul\":1394:1395   */\n      dup2\n        /* \"#utility.yul\":1391:1404   */\n      lt\n        /* \"#utility.yul\":1383:1496   */\n      iszero\n      tag_74\n      jumpi\n        /* \"#utility.yul\":1482:1483   */\n      dup1\n        /* \"#utility.yul\":1477:1480   */\n      dup3\n        /* \"#utility.yul\":1473:1484   */\n      add\n        /* \"#utility.yul\":1467:1485   */\n      mload\n        /* \"#utility.yul\":1463:1464   */\n      dup2\n        /* \"#utility.yul\":1458:1461   */\n      dup5\n        /* \"#utility.yul\":1454:1465   */\n      add\n        /* \"#utility.yul\":1447:1486   */\n      mstore\n        /* \"#utility.yul\":1419:1421   */\n      0x20\n        /* \"#utility.yul\":1416:1417   */\n      dup2\n        /* \"#utility.yul\":1412:1422   */\n      add\n        /* \"#utility.yul\":1407:1422   */\n      swap1\n      pop\n        /* \"#utility.yul\":1383:1496   */\n      jump(tag_72)\n    tag_74:\n        /* \"#utility.yul\":1514:1520   */\n      dup4\n        /* \"#utility.yul\":1511:1512   */\n      dup2\n        /* \"#utility.yul\":1508:1521   */\n      gt\n        /* \"#utility.yul\":1505:1606   */\n      iszero\n      tag_75\n      jumpi\n        /* \"#utility.yul\":1594:1595   */\n      0x00\n        /* \"#utility.yul\":1585:1591   */\n      dup5\n        /* \"#utility.yul\":1580:1583   */\n      dup5\n        /* \"#utility.yul\":1576:1592   */\n      add\n        /* \"#utility.yul\":1569:1596   */\n      mstore\n        /* \"#utility.yul\":1505:1606   */\n    tag_75:\n        /* \"#utility.yul\":1354:1612   */\n      pop\n        /* \"#utility.yul\":1305:1612   */\n      pop\n      pop\n      pop\n      jump\t// out\n        /* \"#utility.yul\":1618:1720   */\n    tag_43:\n        /* \"#utility.yul\":1659:1665   */\n      0x00\n        /* \"#utility.yul\":1710:1712   */\n      0x1f\n        /* \"#utility.yul\":1706:1713   */\n      not\n        /* \"#utility.yul\":1701:1703   */\n      0x1f\n        /* \"#utility.yul\":1694:1699   */\n      dup4\n        /* \"#utility.yul\":1690:1704   */\n      add\n        /* \"#utility.yul\":1686:1714   */\n      and\n        /* \"#utility.yul\":1676:1714   */\n      swap1\n      pop\n        /* \"#utility.yul\":1618:1720   */\n      swap2\n      swap1\n      pop\n      jump\t// out\n        /* \"#utility.yul\":1726:2090   */\n    tag_44:\n        /* \"#utility.yul\":1814:1817   */\n      0x00\n        /* \"#utility.yul\":1842:1881   */\n      tag_78\n        /* \"#utility.yul\":1875:1880   */\n      dup3\n        /* \"#utility.yul\":1842:1881   */\n      tag_40\n      jump\t// in\n    tag_78:\n        /* \"#utility.yul\":1897:1968   */\n      tag_79\n        /* \"#utility.yul\":1961:1967   */\n      dup2\n        /* \"#utility.yul\":1956:1959   */\n      dup6\n        /* \"#utility.yul\":1897:1968   */\n      tag_41\n      jump\t// in\n    tag_79:\n        /* \"#utility.yul\":1890:1968   */\n      swap4\n      pop\n        /* \"#utility.yul\":1977:2029   */\n      tag_80\n        /* \"#utility.yul\":2022:2028   */\n      dup2\n        /* \"#utility.yul\":2017:2020   */\n      dup6\n        /* \"#utility.yul\":2010:2014   */\n      0x20\n        /* \"#utility.yul\":2003:2008   */\n      dup7\n        /* \"#utility.yul\":1999:2015   */\n      add\n        /* \"#utility.yul\":1977:2029   */\n      tag_42\n      jump\t// in\n    tag_80:\n        /* \"#utility.yul\":2054:2083   */\n      tag_81\n        /* \"#utility.yul\":2076:2082   */\n      dup2\n        /* \"#utility.yul\":2054:2083   */\n      tag_43\n      jump\t// in\n    tag_81:\n        /* \"#utility.yul\":2049:2052   */\n      dup5\n        /* \"#utility.yul\":2045:2084   */\n      add\n        /* \"#utility.yul\":2038:2084   */\n      swap2\n      pop\n        /* \"#utility.yul\":1818:2090   */\n      pop\n        /* \"#utility.yul\":1726:2090   */\n      swap3\n      swap2\n      pop\n      pop\n      jump\t// out\n        /* \"#utility.yul\":2096:2409   */\n    tag_10:\n        /* \"#utility.yul\":2209:2213   */\n      0x00\n        /* \"#utility.yul\":2247:2249   */\n      0x20\n        /* \"#utility.yul\":2236:2245   */\n      dup3\n        /* \"#utility.yul\":2232:2250   */\n      add\n        /* \"#utility.yul\":2224:2250   */\n      swap1\n      pop\n        /* \"#utility.yul\":2296:2305   */\n      dup2\n        /* \"#utility.yul\":2290:2294   */\n      dup2\n        /* \"#utility.yul\":2286:2306   */\n      sub\n        /* \"#utility.yul\":2282:2283   */\n      0x00\n        /* \"#utility.yul\":2271:2280   */\n      dup4\n        /* \"#utility.yul\":2267:2284   */\n      add\n        /* \"#utility.yul\":2260:2307   */\n      mstore\n        /* \"#utility.yul\":2324:2402   */\n      tag_83\n        /* \"#utility.yul\":2397:2401   */\n      dup2\n        /* \"#utility.yul\":2388:2394   */\n      dup5\n        /* \"#utility.yul\":2324:2402   */\n      tag_44\n      jump\t// in\n    tag_83:\n        /* \"#utility.yul\":2316:2402   */\n      swap1\n      pop\n        /* \"#utility.yul\":2096:2409   */\n      swap3\n      swap2\n      pop\n      pop\n      jump\t// out\n        /* \"#utility.yul\":2415:2532   */\n    tag_45:\n        /* \"#utility.yul\":2524:2525   */\n      0x00\n        /* \"#utility.yul\":2521:2522   */\n      dup1\n        /* \"#utility.yul\":2514:2526   */\n      revert\n        /* \"#utility.yul\":2538:2655   */\n    tag_46:\n        /* \"#utility.yul\":2647:2648   */\n      0x00\n        /* \"#utility.yul\":2644:2645   */\n      dup1\n        /* \"#utility.yul\":2637:2649   */\n      revert\n        /* \"#utility.yul\":2661:2841   */\n    tag_47:\n        /* \"#utility.yul\":2709:2786   */\n      0x4e487b7100000000000000000000000000000000000000000000000000000000\n        /* \"#utility.yul\":2706:2707   */\n      0x00\n        /* \"#utility.yul\":2699:2787   */\n      mstore\n        /* \"#utility.yul\":2806:2810   */\n      0x41\n        /* \"#utility.yul\":2803:2804   */\n      0x04\n        /* \"#utility.yul\":2796:2811   */\n      mstore\n        /* \"#utility.yul\":2830:2834   */\n      0x24\n        /* \"#utility.yul\":2827:2828   */\n      0x00\n        /* \"#utility.yul\":2820:2835   */\n      revert\n        /* \"#utility.yul\":2847:3128   */\n    tag_48:\n        /* \"#utility.yul\":2930:2957   */\n      tag_88\n        /* \"#utility.yul\":2952:2956   */\n      dup3\n        /* \"#utility.yul\":2930:2957   */\n      tag_43\n      jump\t// in\n    tag_88:\n        /* \"#utility.yul\":2922:2928   */\n      dup2\n        /* \"#utility.yul\":2918:2958   */\n      add\n        /* \"#utility.yul\":3060:3066   */\n      dup2\n        /* \"#utility.yul\":3048:3058   */\n      dup2\n        /* \"#utility.yul\":3045:3067   */\n      lt\n        /* \"#utility.yul\":3024:3042   */\n      0xffffffffffffffff\n        /* \"#utility.yul\":3012:3022   */\n      dup3\n        /* \"#utility.yul\":3009:3043   */\n      gt\n        /* \"#utility.yul\":3006:3068   */\n      or\n        /* \"#utility.yul\":3003:3091   */\n      iszero\n      tag_89\n      jumpi\n        /* \"#utility.yul\":3071:3089   */\n      tag_90\n      tag_47\n      jump\t// in\n    tag_90:\n        /* \"#utility.yul\":3003:3091   */\n    tag_89:\n        /* \"#utility.yul\":3111:3121   */\n      dup1\n        /* \"#utility.yul\":3107:3109   */\n      0x40\n        /* \"#utility.yul\":3100:3122   */\n      mstore\n        /* \"#utility.yul\":2890:3128   */\n      pop\n        /* \"#utility.yul\":2847:3128   */\n      pop\n      pop\n      jump\t// out\n        /* \"#utility.yul\":3134:3263   */\n    tag_49:\n        /* \"#utility.yul\":3168:3174   */\n      0x00\n        /* \"#utility.yul\":3195:3215   */\n      tag_92\n      tag_34\n      jump\t// in\n    tag_92:\n        /* \"#utility.yul\":3185:3215   */\n      swap1\n      pop\n        /* \"#utility.yul\":3224:3257   */\n      tag_93\n        /* \"#utility.yul\":3252:3256   */\n      dup3\n        /* \"#utility.yul\":3244:3250   */\n      dup3\n        /* \"#utility.yul\":3224:3257   */\n      tag_48\n      jump\t// in\n    tag_93:\n        /* \"#utility.yul\":3134:3263   */\n      swap2\n      swap1\n      pop\n      jump\t// out\n        /* \"#utility.yul\":3269:3577   */\n    tag_50:\n        /* \"#utility.yul\":3331:3335   */\n      0x00\n        /* \"#utility.yul\":3421:3439   */\n      0xffffffffffffffff\n        /* \"#utility.yul\":3413:3419   */\n      dup3\n        /* \"#utility.yul\":3410:3440   */\n      gt\n        /* \"#utility.yul\":3407:3463   */\n      iszero\n      tag_95\n      jumpi\n        /* \"#utility.yul\":3443:3461   */\n      tag_96\n      tag_47\n      jump\t// in\n    tag_96:\n        /* \"#utility.yul\":3407:3463   */\n    tag_95:\n        /* \"#utility.yul\":3481:3510   */\n      tag_97\n        /* \"#utility.yul\":3503:3509   */\n      dup3\n        /* \"#utility.yul\":3481:3510   */\n      tag_43\n      jump\t// in\n    tag_97:\n        /* \"#utility.yul\":3473:3510   */\n      swap1\n      pop\n        /* \"#utility.yul\":3565:3569   */\n      0x20\n        /* \"#utility.yul\":3559:3563   */\n      dup2\n        /* \"#utility.yul\":3555:3570   */\n      add\n        /* \"#utility.yul\":3547:3570   */\n      swap1\n      pop\n        /* \"#utility.yul\":3269:3577   */\n      swap2\n      swap1\n      pop\n      jump\t// out\n        /* \"#utility.yul\":3583:3737   */\n    tag_51:\n        /* \"#utility.yul\":3667:3673   */\n      dup3\n        /* \"#utility.yul\":3662:3665   */\n      dup2\n        /* \"#utility.yul\":3657:3660   */\n      dup4\n        /* \"#utility.yul\":3644:3674   */\n      calldatacopy\n        /* \"#utility.yul\":3729:3730   */\n      0x00\n        /* \"#utility.yul\":3720:3726   */\n      dup4\n        /* \"#utility.yul\":3715:3718   */\n      dup4\n        /* \"#utility.yul\":3711:3727   */\n      add\n        /* \"#utility.yul\":3704:3731   */\n      mstore\n        /* \"#utility.yul\":3583:3737   */\n      pop\n      pop\n      pop\n      jump\t// out\n        /* \"#utility.yul\":3743:4155   */\n    tag_52:\n        /* \"#utility.yul\":3821:3826   */\n      0x00\n        /* \"#utility.yul\":3846:3912   */\n      tag_100\n        /* \"#utility.yul\":3862:3911   */\n      tag_101\n        /* \"#utility.yul\":3904:3910   */\n      dup5\n        /* \"#utility.yul\":3862:3911   */\n      tag_50\n      jump\t// in\n    tag_101:\n        /* \"#utility.yul\":3846:3912   */\n      tag_49\n      jump\t// in\n    tag_100:\n        /* \"#utility.yul\":3837:3912   */\n      swap1\n      pop\n        /* \"#utility.yul\":3935:3941   */\n      dup3\n        /* \"#utility.yul\":3928:3933   */\n      dup2\n        /* \"#utility.yul\":3921:3942   */\n      mstore\n        /* \"#utility.yul\":3973:3977   */\n      0x20\n        /* \"#utility.yul\":3966:3971   */\n      dup2\n        /* \"#utility.yul\":3962:3978   */\n      add\n        /* \"#utility.yul\":4011:4014   */\n      dup5\n        /* \"#utility.yul\":4002:4008   */\n      dup5\n        /* \"#utility.yul\":3997:4000   */\n      dup5\n        /* \"#utility.yul\":3993:4009   */\n      add\n        /* \"#utility.yul\":3990:4015   */\n      gt\n        /* \"#utility.yul\":3987:4099   */\n      iszero\n      tag_102\n      jumpi\n        /* \"#utility.yul\":4018:4097   */\n      tag_103\n      tag_46\n      jump\t// in\n    tag_103:\n        /* \"#utility.yul\":3987:4099   */\n    tag_102:\n        /* \"#utility.yul\":4108:4149   */\n      tag_104\n        /* \"#utility.yul\":4142:4148   */\n      dup5\n        /* \"#utility.yul\":4137:4140   */\n      dup3\n        /* \"#utility.yul\":4132:4135   */\n      dup6\n        /* \"#utility.yul\":4108:4149   */\n      tag_51\n      jump\t// in\n    tag_104:\n        /* \"#utility.yul\":3827:4155   */\n      pop\n        /* \"#utility.yul\":3743:4155   */\n      swap4\n      swap3\n      pop\n      pop\n      pop\n      jump\t// out\n        /* \"#utility.yul\":4175:4515   */\n    tag_53:\n        /* \"#utility.yul\":4231:4236   */\n      0x00\n        /* \"#utility.yul\":4280:4283   */\n      dup3\n        /* \"#utility.yul\":4273:4277   */\n      0x1f\n        /* \"#utility.yul\":4265:4271   */\n      dup4\n        /* \"#utility.yul\":4261:4278   */\n      add\n        /* \"#utility.yul\":4257:4284   */\n      slt\n        /* \"#utility.yul\":4247:4369   */\n      tag_106\n      jumpi\n        /* \"#utility.yul\":4288:4367   */\n      tag_107\n      tag_45\n      jump\t// in\n    tag_107:\n        /* \"#utility.yul\":4247:4369   */\n    tag_106:\n        /* \"#utility.yul\":4405:4411   */\n      dup2\n        /* \"#utility.yul\":4392:4412   */\n      calldataload\n        /* \"#utility.yul\":4430:4509   */\n      tag_108\n        /* \"#utility.yul\":4505:4508   */\n      dup5\n        /* \"#utility.yul\":4497:4503   */\n      dup3\n        /* \"#utility.yul\":4490:4494   */\n      0x20\n        /* \"#utility.yul\":4482:4488   */\n      dup7\n        /* \"#utility.yul\":4478:4495   */\n      add\n        /* \"#utility.yul\":4430:4509   */\n      tag_52\n      jump\t// in\n    tag_108:\n        /* \"#utility.yul\":4421:4509   */\n      swap2\n      pop\n        /* \"#utility.yul\":4237:4515   */\n      pop\n        /* \"#utility.yul\":4175:4515   */\n      swap3\n      swap2\n      pop\n      pop\n      jump\t// out\n        /* \"#utility.yul\":4521:5175   */\n    tag_13:\n        /* \"#utility.yul\":4599:4605   */\n      0x00\n        /* \"#utility.yul\":4607:4613   */\n      dup1\n        /* \"#utility.yul\":4656:4658   */\n      0x40\n        /* \"#utility.yul\":4644:4653   */\n      dup4\n        /* \"#utility.yul\":4635:4642   */\n      dup6\n        /* \"#utility.yul\":4631:4654   */\n      sub\n        /* \"#utility.yul\":4627:4659   */\n      slt\n        /* \"#utility.yul\":4624:4743   */\n      iszero\n      tag_110\n      jumpi\n        /* \"#utility.yul\":4662:4741   */\n      tag_111\n      tag_35\n      jump\t// in\n    tag_111:\n        /* \"#utility.yul\":4624:4743   */\n    tag_110:\n        /* \"#utility.yul\":4782:4783   */\n      0x00\n        /* \"#utility.yul\":4807:4860   */\n      tag_112\n        /* \"#utility.yul\":4852:4859   */\n      dup6\n        /* \"#utility.yul\":4843:4849   */\n      dup3\n        /* \"#utility.yul\":4832:4841   */\n      dup7\n        /* \"#utility.yul\":4828:4850   */\n      add\n        /* \"#utility.yul\":4807:4860   */\n      tag_39\n      jump\t// in\n    tag_112:\n        /* \"#utility.yul\":4797:4860   */\n      swap3\n      pop\n        /* \"#utility.yul\":4753:4870   */\n      pop\n        /* \"#utility.yul\":4937:4939   */\n      0x20\n        /* \"#utility.yul\":4926:4935   */\n      dup4\n        /* \"#utility.yul\":4922:4940   */\n      add\n        /* \"#utility.yul\":4909:4941   */\n      calldataload\n        /* \"#utility.yul\":4968:4986   */\n      0xffffffffffffffff\n        /* \"#utility.yul\":4960:4966   */\n      dup2\n        /* \"#utility.yul\":4957:4987   */\n      gt\n        /* \"#utility.yul\":4954:5071   */\n      iszero\n      tag_113\n      jumpi\n        /* \"#utility.yul\":4990:5069   */\n      tag_114\n      tag_36\n      jump\t// in\n    tag_114:\n        /* \"#utility.yul\":4954:5071   */\n    tag_113:\n        /* \"#utility.yul\":5095:5158   */\n      tag_115\n        /* \"#utility.yul\":5150:5157   */\n      dup6\n        /* \"#utility.yul\":5141:5147   */\n      dup3\n        /* \"#utility.yul\":5130:5139   */\n      dup7\n        /* \"#utility.yul\":5126:5148   */\n      add\n        /* \"#utility.yul\":5095:5158   */\n      tag_53\n      jump\t// in\n    tag_115:\n        /* \"#utility.yul\":5085:5158   */\n      swap2\n      pop\n        /* \"#utility.yul\":4880:5168   */\n      pop\n        /* \"#utility.yul\":4521:5175   */\n      swap3\n      pop\n      swap3\n      swap1\n      pop\n      jump\t// out\n        /* \"#utility.yul\":5181:5361   */\n    tag_54:\n        /* \"#utility.yul\":5229:5306   */\n      0x4e487b7100000000000000000000000000000000000000000000000000000000\n        /* \"#utility.yul\":5226:5227   */\n      0x00\n        /* \"#utility.yul\":5219:5307   */\n      mstore\n        /* \"#utility.yul\":5326:5330   */\n      0x22\n        /* \"#utility.yul\":5323:5324   */\n      0x04\n        /* \"#utility.yul\":5316:5331   */\n      mstore\n        /* \"#utility.yul\":5350:5354   */\n      0x24\n        /* \"#utility.yul\":5347:5348   */\n      0x00\n        /* \"#utility.yul\":5340:5355   */\n      revert\n        /* \"#utility.yul\":5367:5687   */\n    tag_16:\n        /* \"#utility.yul\":5411:5417   */\n      0x00\n        /* \"#utility.yul\":5448:5449   */\n      0x02\n        /* \"#utility.yul\":5442:5446   */\n      dup3\n        /* \"#utility.yul\":5438:5450   */\n      div\n        /* \"#utility.yul\":5428:5450   */\n      swap1\n      pop\n        /* \"#utility.yul\":5495:5496   */\n      0x01\n        /* \"#utility.yul\":5489:5493   */\n      dup3\n        /* \"#utility.yul\":5485:5497   */\n      and\n        /* \"#utility.yul\":5516:5534   */\n      dup1\n        /* \"#utility.yul\":5506:5587   */\n      tag_118\n      jumpi\n        /* \"#utility.yul\":5572:5576   */\n      0x7f\n        /* \"#utility.yul\":5564:5570   */\n      dup3\n        /* \"#utility.yul\":5560:5577   */\n      and\n        /* \"#utility.yul\":5550:5577   */\n      swap2\n      pop\n        /* \"#utility.yul\":5506:5587   */\n    tag_118:\n        /* \"#utility.yul\":5634:5636   */\n      0x20\n        /* \"#utility.yul\":5626:5632   */\n      dup3\n        /* \"#utility.yul\":5623:5637   */\n      lt\n        /* \"#utility.yul\":5603:5621   */\n      dup2\n        /* \"#utility.yul\":5600:5638   */\n      sub\n        /* \"#utility.yul\":5597:5681   */\n      tag_119\n      jumpi\n        /* \"#utility.yul\":5653:5671   */\n      tag_120\n      tag_54\n      jump\t// in\n    tag_120:\n        /* \"#utility.yul\":5597:5681   */\n    tag_119:\n        /* \"#utility.yul\":5418:5687   */\n      pop\n        /* \"#utility.yul\":5367:5687   */\n      swap2\n      swap1\n      pop\n      jump\t// out\n\n    auxdata: 0xa26469706673582212201f7cef7c356c4c2fc6f8a593b10e32ab23e4cf902e6975f642117c09c0402c4064736f6c634300080d0033\n}\n",
				"bytecode": {
					"linkReferences": {},
					"object": "608060405234801561001057600080fd5b5061054e806100206000396000f3fe608060405234801561001057600080fd5b50600436106100365760003560e01c80630955da981461003b578063bcb131c91461006b575b600080fd5b6100556004803603810190610050919061023f565b610087565b6040516100629190610305565b60405180910390f35b6100856004803603810190610080919061045c565b610127565b005b600060205280600052604060002060009150905080546100a6906104e7565b80601f01602080910402602001604051908101604052809291908181526020018280546100d2906104e7565b801561011f5780601f106100f45761010080835404028352916020019161011f565b820191906000526020600020905b81548152906001019060200180831161010257829003601f168201915b505050505081565b80600080848152602001908152602001600020908051906020019061014d929190610152565b505050565b82805461015e906104e7565b90600052602060002090601f01602090048101928261018057600085556101c7565b82601f1061019957805160ff19168380011785556101c7565b828001600101855582156101c7579182015b828111156101c65782518255916020019190600101906101ab565b5b5090506101d491906101d8565b5090565b5b808211156101f15760008160009055506001016101d9565b5090565b6000604051905090565b600080fd5b600080fd5b6000819050919050565b61021c81610209565b811461022757600080fd5b50565b60008135905061023981610213565b92915050565b600060208284031215610255576102546101ff565b5b60006102638482850161022a565b91505092915050565b600081519050919050565b600082825260208201905092915050565b60005b838110156102a657808201518184015260208101905061028b565b838111156102b5576000848401525b50505050565b6000601f19601f8301169050919050565b60006102d78261026c565b6102e18185610277565b93506102f1818560208601610288565b6102fa816102bb565b840191505092915050565b6000602082019050818103600083015261031f81846102cc565b905092915050565b600080fd5b600080fd5b7f4e487b7100000000000000000000000000000000000000000000000000000000600052604160045260246000fd5b610369826102bb565b810181811067ffffffffffffffff8211171561038857610387610331565b5b80604052505050565b600061039b6101f5565b90506103a78282610360565b919050565b600067ffffffffffffffff8211156103c7576103c6610331565b5b6103d0826102bb565b9050602081019050919050565b82818337600083830152505050565b60006103ff6103fa846103ac565b610391565b90508281526020810184848401111561041b5761041a61032c565b5b6104268482856103dd565b509392505050565b600082601f83011261044357610442610327565b5b81356104538482602086016103ec565b91505092915050565b60008060408385031215610473576104726101ff565b5b60006104818582860161022a565b925050602083013567ffffffffffffffff8111156104a2576104a1610204565b5b6104ae8582860161042e565b9150509250929050565b7f4e487b7100000000000000000000000000000000000000000000000000000000600052602260045260246000fd5b600060028204905060018216806104ff57607f821691505b602082108103610512576105116104b8565b5b5091905056fea26469706673582212201f7cef7c356c4c2fc6f8a593b10e32ab23e4cf902e6975f642117c09c0402c4064736f6c634300080d0033",
					"opcodes": "PUSH1 0x80 PUSH1 0x40 MSTORE CALLVALUE DUP1 ISZERO PUSH2 0x10 JUMPI PUSH1 0x0 DUP1 REVERT JUMPDEST POP PUSH2 0x54E DUP1 PUSH2 0x20 PUSH1 0x0 CODECOPY PUSH1 0x0 RETURN INVALID PUSH1 0x80 PUSH1 0x40 MSTORE CALLVALUE DUP1 ISZERO PUSH2 0x10 JUMPI PUSH1 0x0 DUP1 REVERT JUMPDEST POP PUSH1 0x4 CALLDATASIZE LT PUSH2 0x36 JUMPI PUSH1 0x0 CALLDATALOAD PUSH1 0xE0 SHR DUP1 PUSH4 0x955DA98 EQ PUSH2 0x3B JUMPI DUP1 PUSH4 0xBCB131C9 EQ PUSH2 0x6B JUMPI JUMPDEST PUSH1 0x0 DUP1 REVERT JUMPDEST PUSH2 0x55 PUSH1 0x4 DUP1 CALLDATASIZE SUB DUP2 ADD SWAP1 PUSH2 0x50 SWAP2 SWAP1 PUSH2 0x23F JUMP JUMPDEST PUSH2 0x87 JUMP JUMPDEST PUSH1 0x40 MLOAD PUSH2 0x62 SWAP2 SWAP1 PUSH2 0x305 JUMP JUMPDEST PUSH1 0x40 MLOAD DUP1 SWAP2 SUB SWAP1 RETURN JUMPDEST PUSH2 0x85 PUSH1 0x4 DUP1 CALLDATASIZE SUB DUP2 ADD SWAP1 PUSH2 0x80 SWAP2 SWAP1 PUSH2 0x45C JUMP JUMPDEST PUSH2 0x127 JUMP JUMPDEST STOP JUMPDEST PUSH1 0x0 PUSH1 0x20 MSTORE DUP1 PUSH1 0x0 MSTORE PUSH1 0x40 PUSH1 0x0 KECCAK256 PUSH1 0x0 SWAP2 POP SWAP1 POP DUP1 SLOAD PUSH2 0xA6 SWAP1 PUSH2 0x4E7 JUMP JUMPDEST DUP1 PUSH1 0x1F ADD PUSH1 0x20 DUP1 SWAP2 DIV MUL PUSH1 0x20 ADD PUSH1 0x40 MLOAD SWAP1 DUP2 ADD PUSH1 0x40 MSTORE DUP1 SWAP3 SWAP2 SWAP1 DUP2 DUP2 MSTORE PUSH1 0x20 ADD DUP3 DUP1 SLOAD PUSH2 0xD2 SWAP1 PUSH2 0x4E7 JUMP JUMPDEST DUP1 ISZERO PUSH2 0x11F JUMPI DUP1 PUSH1 0x1F LT PUSH2 0xF4 JUMPI PUSH2 0x100 DUP1 DUP4 SLOAD DIV MUL DUP4 MSTORE SWAP2 PUSH1 0x20 ADD SWAP2 PUSH2 0x11F JUMP JUMPDEST DUP3 ADD SWAP2 SWAP1 PUSH1 0x0 MSTORE PUSH1 0x20 PUSH1 0x0 KECCAK256 SWAP1 JUMPDEST DUP2 SLOAD DUP2 MSTORE SWAP1 PUSH1 0x1 ADD SWAP1 PUSH1 0x20 ADD DUP1 DUP4 GT PUSH2 0x102 JUMPI DUP3 SWAP1 SUB PUSH1 0x1F AND DUP3 ADD SWAP2 JUMPDEST POP POP POP POP POP DUP2 JUMP JUMPDEST DUP1 PUSH1 0x0 DUP1 DUP5 DUP2 MSTORE PUSH1 0x20 ADD SWAP1 DUP2 MSTORE PUSH1 0x20 ADD PUSH1 0x0 KECCAK256 SWAP1 DUP1 MLOAD SWAP1 PUSH1 0x20 ADD SWAP1 PUSH2 0x14D SWAP3 SWAP2 SWAP1 PUSH2 0x152 JUMP JUMPDEST POP POP POP JUMP JUMPDEST DUP3 DUP1 SLOAD PUSH2 0x15E SWAP1 PUSH2 0x4E7 JUMP JUMPDEST SWAP1 PUSH1 0x0 MSTORE PUSH1 0x20 PUSH1 0x0 KECCAK256 SWAP1 PUSH1 0x1F ADD PUSH1 0x20 SWAP1 DIV DUP2 ADD SWAP3 DUP3 PUSH2 0x180 JUMPI PUSH1 0x0 DUP6 SSTORE PUSH2 0x1C7 JUMP JUMPDEST DUP3 PUSH1 0x1F LT PUSH2 0x199 JUMPI DUP1 MLOAD PUSH1 0xFF NOT AND DUP4 DUP1 ADD OR DUP6 SSTORE PUSH2 0x1C7 JUMP JUMPDEST DUP3 DUP1 ADD PUSH1 0x1 ADD DUP6 SSTORE DUP3 ISZERO PUSH2 0x1C7 JUMPI SWAP2 DUP3 ADD JUMPDEST DUP3 DUP2 GT ISZERO PUSH2 0x1C6 JUMPI DUP3 MLOAD DUP3 SSTORE SWAP2 PUSH1 0x20 ADD SWAP2 SWAP1 PUSH1 0x1 ADD SWAP1 PUSH2 0x1AB JUMP JUMPDEST JUMPDEST POP SWAP1 POP PUSH2 0x1D4 SWAP2 SWAP1 PUSH2 0x1D8 JUMP JUMPDEST POP SWAP1 JUMP JUMPDEST JUMPDEST DUP1 DUP3 GT ISZERO PUSH2 0x1F1 JUMPI PUSH1 0x0 DUP2 PUSH1 0x0 SWAP1 SSTORE POP PUSH1 0x1 ADD PUSH2 0x1D9 JUMP JUMPDEST POP SWAP1 JUMP JUMPDEST PUSH1 0x0 PUSH1 0x40 MLOAD SWAP1 POP SWAP1 JUMP JUMPDEST PUSH1 0x0 DUP1 REVERT JUMPDEST PUSH1 0x0 DUP1 REVERT JUMPDEST PUSH1 0x0 DUP2 SWAP1 POP SWAP2 SWAP1 POP JUMP JUMPDEST PUSH2 0x21C DUP2 PUSH2 0x209 JUMP JUMPDEST DUP2 EQ PUSH2 0x227 JUMPI PUSH1 0x0 DUP1 REVERT JUMPDEST POP JUMP JUMPDEST PUSH1 0x0 DUP2 CALLDATALOAD SWAP1 POP PUSH2 0x239 DUP2 PUSH2 0x213 JUMP JUMPDEST SWAP3 SWAP2 POP POP JUMP JUMPDEST PUSH1 0x0 PUSH1 0x20 DUP3 DUP5 SUB SLT ISZERO PUSH2 0x255 JUMPI PUSH2 0x254 PUSH2 0x1FF JUMP JUMPDEST JUMPDEST PUSH1 0x0 PUSH2 0x263 DUP5 DUP3 DUP6 ADD PUSH2 0x22A JUMP JUMPDEST SWAP2 POP POP SWAP3 SWAP2 POP POP JUMP JUMPDEST PUSH1 0x0 DUP2 MLOAD SWAP1 POP SWAP2 SWAP1 POP JUMP JUMPDEST PUSH1 0x0 DUP3 DUP3 MSTORE PUSH1 0x20 DUP3 ADD SWAP1 POP SWAP3 SWAP2 POP POP JUMP JUMPDEST PUSH1 0x0 JUMPDEST DUP4 DUP2 LT ISZERO PUSH2 0x2A6 JUMPI DUP1 DUP3 ADD MLOAD DUP2 DUP5 ADD MSTORE PUSH1 0x20 DUP2 ADD SWAP1 POP PUSH2 0x28B JUMP JUMPDEST DUP4 DUP2 GT ISZERO PUSH2 0x2B5 JUMPI PUSH1 0x0 DUP5 DUP5 ADD MSTORE JUMPDEST POP POP POP POP JUMP JUMPDEST PUSH1 0x0 PUSH1 0x1F NOT PUSH1 0x1F DUP4 ADD AND SWAP1 POP SWAP2 SWAP1 POP JUMP JUMPDEST PUSH1 0x0 PUSH2 0x2D7 DUP3 PUSH2 0x26C JUMP JUMPDEST PUSH2 0x2E1 DUP2 DUP6 PUSH2 0x277 JUMP JUMPDEST SWAP4 POP PUSH2 0x2F1 DUP2 DUP6 PUSH1 0x20 DUP7 ADD PUSH2 0x288 JUMP JUMPDEST PUSH2 0x2FA DUP2 PUSH2 0x2BB JUMP JUMPDEST DUP5 ADD SWAP2 POP POP SWAP3 SWAP2 POP POP JUMP JUMPDEST PUSH1 0x0 PUSH1 0x20 DUP3 ADD SWAP1 POP DUP2 DUP2 SUB PUSH1 0x0 DUP4 ADD MSTORE PUSH2 0x31F DUP2 DUP5 PUSH2 0x2CC JUMP JUMPDEST SWAP1 POP SWAP3 SWAP2 POP POP JUMP JUMPDEST PUSH1 0x0 DUP1 REVERT JUMPDEST PUSH1 0x0 DUP1 REVERT JUMPDEST PUSH32 0x4E487B7100000000000000000000000000000000000000000000000000000000 PUSH1 0x0 MSTORE PUSH1 0x41 PUSH1 0x4 MSTORE PUSH1 0x24 PUSH1 0x0 REVERT JUMPDEST PUSH2 0x369 DUP3 PUSH2 0x2BB JUMP JUMPDEST DUP2 ADD DUP2 DUP2 LT PUSH8 0xFFFFFFFFFFFFFFFF DUP3 GT OR ISZERO PUSH2 0x388 JUMPI PUSH2 0x387 PUSH2 0x331 JUMP JUMPDEST JUMPDEST DUP1 PUSH1 0x40 MSTORE POP POP POP JUMP JUMPDEST PUSH1 0x0 PUSH2 0x39B PUSH2 0x1F5 JUMP JUMPDEST SWAP1 POP PUSH2 0x3A7 DUP3 DUP3 PUSH2 0x360 JUMP JUMPDEST SWAP2 SWAP1 POP JUMP JUMPDEST PUSH1 0x0 PUSH8 0xFFFFFFFFFFFFFFFF DUP3 GT ISZERO PUSH2 0x3C7 JUMPI PUSH2 0x3C6 PUSH2 0x331 JUMP JUMPDEST JUMPDEST PUSH2 0x3D0 DUP3 PUSH2 0x2BB JUMP JUMPDEST SWAP1 POP PUSH1 0x20 DUP2 ADD SWAP1 POP SWAP2 SWAP1 POP JUMP JUMPDEST DUP3 DUP2 DUP4 CALLDATACOPY PUSH1 0x0 DUP4 DUP4 ADD MSTORE POP POP POP JUMP JUMPDEST PUSH1 0x0 PUSH2 0x3FF PUSH2 0x3FA DUP5 PUSH2 0x3AC JUMP JUMPDEST PUSH2 0x391 JUMP JUMPDEST SWAP1 POP DUP3 DUP2 MSTORE PUSH1 0x20 DUP2 ADD DUP5 DUP5 DUP5 ADD GT ISZERO PUSH2 0x41B JUMPI PUSH2 0x41A PUSH2 0x32C JUMP JUMPDEST JUMPDEST PUSH2 0x426 DUP5 DUP3 DUP6 PUSH2 0x3DD JUMP JUMPDEST POP SWAP4 SWAP3 POP POP POP JUMP JUMPDEST PUSH1 0x0 DUP3 PUSH1 0x1F DUP4 ADD SLT PUSH2 0x443 JUMPI PUSH2 0x442 PUSH2 0x327 JUMP JUMPDEST JUMPDEST DUP2 CALLDATALOAD PUSH2 0x453 DUP5 DUP3 PUSH1 0x20 DUP7 ADD PUSH2 0x3EC JUMP JUMPDEST SWAP2 POP POP SWAP3 SWAP2 POP POP JUMP JUMPDEST PUSH1 0x0 DUP1 PUSH1 0x40 DUP4 DUP6 SUB SLT ISZERO PUSH2 0x473 JUMPI PUSH2 0x472 PUSH2 0x1FF JUMP JUMPDEST JUMPDEST PUSH1 0x0 PUSH2 0x481 DUP6 DUP3 DUP7 ADD PUSH2 0x22A JUMP JUMPDEST SWAP3 POP POP PUSH1 0x20 DUP4 ADD CALLDATALOAD PUSH8 0xFFFFFFFFFFFFFFFF DUP2 GT ISZERO PUSH2 0x4A2 JUMPI PUSH2 0x4A1 PUSH2 0x204 JUMP JUMPDEST JUMPDEST PUSH2 0x4AE DUP6 DUP3 DUP7 ADD PUSH2 0x42E JUMP JUMPDEST SWAP2 POP POP SWAP3 POP SWAP3 SWAP1 POP JUMP JUMPDEST PUSH32 0x4E487B7100000000000000000000000000000000000000000000000000000000 PUSH1 0x0 MSTORE PUSH1 0x22 PUSH1 0x4 MSTORE PUSH1 0x24 PUSH1 0x0 REVERT JUMPDEST PUSH1 0x0 PUSH1 0x2 DUP3 DIV SWAP1 POP PUSH1 0x1 DUP3 AND DUP1 PUSH2 0x4FF JUMPI PUSH1 0x7F DUP3 AND SWAP2 POP JUMPDEST PUSH1 0x20 DUP3 LT DUP2 SUB PUSH2 0x512 JUMPI PUSH2 0x511 PUSH2 0x4B8 JUMP JUMPDEST JUMPDEST POP SWAP2 SWAP1 POP JUMP INVALID LOG2 PUSH5 0x6970667358 0x22 SLT KECCAK256 0x1F PUSH29 0xEF7C356C4C2FC6F8A593B10E32AB23E4CF902E6975F642117C09C0402C BLOCKHASH PUSH5 0x736F6C6343 STOP ADDMOD 0xD STOP CALLER "
				},
				"gasEstimates": {
					"creation": {
						"codeDepositCost": "271600",
						"executionCost": "312",
						"totalCost": "271912"
					},
					"external": {
						"myData(uint256)": "infinite",
						"setter(uint256,string)": "infinite"
					}
				},
				"methodIdentifiers": {
					"myData(uint256)": "0955da98",
					"setter(uint256,string)": "bcb131c9"
				}
			},
			"storageLayout": {
				"storage": [
					{
						"astId": 5,
						"contract": "contracts/mapping.sol:mappingInSolidity",
						"label": "myData",
						"offset": 0,
						"slot": "0",
						"type": "t_mapping(t_uint256,t_string_storage)"
					}
				],
				"types": {
					"t_mapping(t_uint256,t_string_storage)": {
						"encoding": "mapping",
						"key": "t_uint256",
						"label": "mapping(uint256 => string)",
						"numberOfBytes": "32",
						"value": "t_string_storage"
					},
					"t_string_storage": {
						"encoding": "bytes",
						"label": "string",
						"numberOfBytes": "32"
					},
					"t_uint256": {
						"encoding": "inplace",
						"label": "uint256",
						"numberOfBytes": "32"
					}
				}
			},
			"userdoc": {
				"kind": "user",
				"methods": {},
				"version": 1
			}
		}
	}
}