{
	"contracts/structdatatype.sol": {
		"structDatatype": {
			"abi": [
				{
					"inputs": [
						{
							"internalType": "string",
							"name": "name",
							"type": "string"
						},
						{
							"internalType": "string",
							"name": "skills",
							"type": "string"
						},
						{
							"internalType": "int256",
							"name": "salary",
							"type": "int256"
						}
					],
					"stateMutability": "nonpayable",
					"type": "constructor"
				},
				{
					"inputs": [
						{
							"internalType": "string",
							"name": "name",
							"type": "string"
						},
						{
							"internalType": "string",
							"name": "skills",
							"type": "string"
						},
						{
							"internalType": "int256",
							"name": "salary",
							"type": "int256"
						}
					],
					"name": "changeEmployeeData",
					"outputs": [],
					"stateMutability": "nonpayable",
					"type": "function"
				},
				{
					"inputs": [],
					"name": "emp",
					"outputs": [
						{
							"internalType": "string",
							"name": "name",
							"type": "string"
						},
						{
							"internalType": "string",
							"name": "skills",
							"type": "string"
						},
						{
							"internalType": "int256",
							"name": "salary",
							"type": "int256"
						}
					],
					"stateMutability": "view",
					"type": "function"
				}
			],
			"devdoc": {
				"kind": "dev",
				"methods": {},
				"version": 1
			},
			"evm": {
				"assembly": "    /* \"contracts/structdatatype.sol\":148:487  contract structDatatype {... */\n  mstore(0x40, 0x80)\n    /* \"contracts/structdatatype.sol\":209:369  constructor(string memory name, string memory skills, int salary) {... */\n  callvalue\n  dup1\n  iszero\n  tag_1\n  jumpi\n  0x00\n  dup1\n  revert\ntag_1:\n  pop\n  mload(0x40)\n  sub(codesize, bytecodeSize)\n  dup1\n  bytecodeSize\n  dup4\n  codecopy\n  dup2\n  dup2\n  add\n  0x40\n  mstore\n  dup2\n  add\n  swap1\n  tag_2\n  swap2\n  swap1\n  tag_3\n  jump\t// in\ntag_2:\n    /* \"contracts/structdatatype.sol\":297:301  name */\n  dup3\n    /* \"contracts/structdatatype.sol\":286:289  emp */\n  0x00\n    /* \"contracts/structdatatype.sol\":286:294  emp.name */\n  dup1\n  add\n    /* \"contracts/structdatatype.sol\":286:301  emp.name = name */\n  swap1\n  dup1\n  mload\n  swap1\n  0x20\n  add\n  swap1\n  tag_6\n  swap3\n  swap2\n  swap1\n  tag_7\n  jump\t// in\ntag_6:\n  pop\n    /* \"contracts/structdatatype.sol\":325:331  skills */\n  dup2\n    /* \"contracts/structdatatype.sol\":312:315  emp */\n  0x00\n    /* \"contracts/structdatatype.sol\":312:322  emp.skills */\n  0x01\n  add\n    /* \"contracts/structdatatype.sol\":312:331  emp.skills = skills */\n  swap1\n  dup1\n  mload\n  swap1\n  0x20\n  add\n  swap1\n  tag_8\n  swap3\n  swap2\n  swap1\n  tag_7\n  jump\t// in\ntag_8:\n  pop\n    /* \"contracts/structdatatype.sol\":355:361  salary */\n  dup1\n    /* \"contracts/structdatatype.sol\":342:345  emp */\n  0x00\n    /* \"contracts/structdatatype.sol\":342:352  emp.salary */\n  0x02\n  add\n    /* \"contracts/structdatatype.sol\":342:361  emp.salary = salary */\n  dup2\n  swap1\n  sstore\n  pop\n    /* \"contracts/structdatatype.sol\":209:369  constructor(string memory name, string memory skills, int salary) {... */\n  pop\n  pop\n  pop\n    /* \"contracts/structdatatype.sol\":148:487  contract structDatatype {... */\n  jump(tag_9)\ntag_7:\n  dup3\n  dup1\n  sload\n  tag_10\n  swap1\n  tag_11\n  jump\t// in\ntag_10:\n  swap1\n  0x00\n  mstore\n  keccak256(0x00, 0x20)\n  swap1\n  0x1f\n  add\n  0x20\n  swap1\n  div\n  dup2\n  add\n  swap3\n  dup3\n  tag_13\n  jumpi\n  0x00\n  dup6\n  sstore\n  jump(tag_12)\ntag_13:\n  dup3\n  0x1f\n  lt\n  tag_14\n  jumpi\n  dup1\n  mload\n  not(0xff)\n  and\n  dup4\n  dup1\n  add\n  or\n  dup6\n  sstore\n  jump(tag_12)\ntag_14:\n  dup3\n  dup1\n  add\n  0x01\n  add\n  dup6\n  sstore\n  dup3\n  iszero\n  tag_12\n  jumpi\n  swap2\n  dup3\n  add\ntag_15:\n  dup3\n  dup2\n  gt\n  iszero\n  tag_16\n  jumpi\n  dup3\n  mload\n  dup3\n  sstore\n  swap2\n  0x20\n  add\n  swap2\n  swap1\n  0x01\n  add\n  swap1\n  jump(tag_15)\ntag_16:\ntag_12:\n  pop\n  swap1\n  pop\n  tag_17\n  swap2\n  swap1\n  tag_18\n  jump\t// in\ntag_17:\n  pop\n  swap1\n  jump\t// out\ntag_18:\ntag_19:\n  dup1\n  dup3\n  gt\n  iszero\n  tag_20\n  jumpi\n  0x00\n  dup2\n  0x00\n  swap1\n  sstore\n  pop\n  0x01\n  add\n  jump(tag_19)\ntag_20:\n  pop\n  swap1\n  jump\t// out\n    /* \"#utility.yul\":7:82   */\ntag_21:\n    /* \"#utility.yul\":40:46   */\n  0x00\n    /* \"#utility.yul\":73:75   */\n  0x40\n    /* \"#utility.yul\":67:76   */\n  mload\n    /* \"#utility.yul\":57:76   */\n  swap1\n  pop\n    /* \"#utility.yul\":7:82   */\n  swap1\n  jump\t// out\n    /* \"#utility.yul\":88:205   */\ntag_22:\n    /* \"#utility.yul\":197:198   */\n  0x00\n    /* \"#utility.yul\":194:195   */\n  dup1\n    /* \"#utility.yul\":187:199   */\n  revert\n    /* \"#utility.yul\":211:328   */\ntag_23:\n    /* \"#utility.yul\":320:321   */\n  0x00\n    /* \"#utility.yul\":317:318   */\n  dup1\n    /* \"#utility.yul\":310:322   */\n  revert\n    /* \"#utility.yul\":334:451   */\ntag_24:\n    /* \"#utility.yul\":443:444   */\n  0x00\n    /* \"#utility.yul\":440:441   */\n  dup1\n    /* \"#utility.yul\":433:445   */\n  revert\n    /* \"#utility.yul\":457:574   */\ntag_25:\n    /* \"#utility.yul\":566:567   */\n  0x00\n    /* \"#utility.yul\":563:564   */\n  dup1\n    /* \"#utility.yul\":556:568   */\n  revert\n    /* \"#utility.yul\":580:682   */\ntag_26:\n    /* \"#utility.yul\":621:627   */\n  0x00\n    /* \"#utility.yul\":672:674   */\n  0x1f\n    /* \"#utility.yul\":668:675   */\n  not\n    /* \"#utility.yul\":663:665   */\n  0x1f\n    /* \"#utility.yul\":656:661   */\n  dup4\n    /* \"#utility.yul\":652:666   */\n  add\n    /* \"#utility.yul\":648:676   */\n  and\n    /* \"#utility.yul\":638:676   */\n  swap1\n  pop\n    /* \"#utility.yul\":580:682   */\n  swap2\n  swap1\n  pop\n  jump\t// out\n    /* \"#utility.yul\":688:868   */\ntag_27:\n    /* \"#utility.yul\":736:813   */\n  0x4e487b7100000000000000000000000000000000000000000000000000000000\n    /* \"#utility.yul\":733:734   */\n  0x00\n    /* \"#utility.yul\":726:814   */\n  mstore\n    /* \"#utility.yul\":833:837   */\n  0x41\n    /* \"#utility.yul\":830:831   */\n  0x04\n    /* \"#utility.yul\":823:838   */\n  mstore\n    /* \"#utility.yul\":857:861   */\n  0x24\n    /* \"#utility.yul\":854:855   */\n  0x00\n    /* \"#utility.yul\":847:862   */\n  revert\n    /* \"#utility.yul\":874:1155   */\ntag_28:\n    /* \"#utility.yul\":957:984   */\n  tag_47\n    /* \"#utility.yul\":979:983   */\n  dup3\n    /* \"#utility.yul\":957:984   */\n  tag_26\n  jump\t// in\ntag_47:\n    /* \"#utility.yul\":949:955   */\n  dup2\n    /* \"#utility.yul\":945:985   */\n  add\n    /* \"#utility.yul\":1087:1093   */\n  dup2\n    /* \"#utility.yul\":1075:1085   */\n  dup2\n    /* \"#utility.yul\":1072:1094   */\n  lt\n    /* \"#utility.yul\":1051:1069   */\n  0xffffffffffffffff\n    /* \"#utility.yul\":1039:1049   */\n  dup3\n    /* \"#utility.yul\":1036:1070   */\n  gt\n    /* \"#utility.yul\":1033:1095   */\n  or\n    /* \"#utility.yul\":1030:1118   */\n  iszero\n  tag_48\n  jumpi\n    /* \"#utility.yul\":1098:1116   */\n  tag_49\n  tag_27\n  jump\t// in\ntag_49:\n    /* \"#utility.yul\":1030:1118   */\ntag_48:\n    /* \"#utility.yul\":1138:1148   */\n  dup1\n    /* \"#utility.yul\":1134:1136   */\n  0x40\n    /* \"#utility.yul\":1127:1149   */\n  mstore\n    /* \"#utility.yul\":917:1155   */\n  pop\n    /* \"#utility.yul\":874:1155   */\n  pop\n  pop\n  jump\t// out\n    /* \"#utility.yul\":1161:1290   */\ntag_29:\n    /* \"#utility.yul\":1195:1201   */\n  0x00\n    /* \"#utility.yul\":1222:1242   */\n  tag_51\n  tag_21\n  jump\t// in\ntag_51:\n    /* \"#utility.yul\":1212:1242   */\n  swap1\n  pop\n    /* \"#utility.yul\":1251:1284   */\n  tag_52\n    /* \"#utility.yul\":1279:1283   */\n  dup3\n    /* \"#utility.yul\":1271:1277   */\n  dup3\n    /* \"#utility.yul\":1251:1284   */\n  tag_28\n  jump\t// in\ntag_52:\n    /* \"#utility.yul\":1161:1290   */\n  swap2\n  swap1\n  pop\n  jump\t// out\n    /* \"#utility.yul\":1296:1604   */\ntag_30:\n    /* \"#utility.yul\":1358:1362   */\n  0x00\n    /* \"#utility.yul\":1448:1466   */\n  0xffffffffffffffff\n    /* \"#utility.yul\":1440:1446   */\n  dup3\n    /* \"#utility.yul\":1437:1467   */\n  gt\n    /* \"#utility.yul\":1434:1490   */\n  iszero\n  tag_54\n  jumpi\n    /* \"#utility.yul\":1470:1488   */\n  tag_55\n  tag_27\n  jump\t// in\ntag_55:\n    /* \"#utility.yul\":1434:1490   */\ntag_54:\n    /* \"#utility.yul\":1508:1537   */\n  tag_56\n    /* \"#utility.yul\":1530:1536   */\n  dup3\n    /* \"#utility.yul\":1508:1537   */\n  tag_26\n  jump\t// in\ntag_56:\n    /* \"#utility.yul\":1500:1537   */\n  swap1\n  pop\n    /* \"#utility.yul\":1592:1596   */\n  0x20\n    /* \"#utility.yul\":1586:1590   */\n  dup2\n    /* \"#utility.yul\":1582:1597   */\n  add\n    /* \"#utility.yul\":1574:1597   */\n  swap1\n  pop\n    /* \"#utility.yul\":1296:1604   */\n  swap2\n  swap1\n  pop\n  jump\t// out\n    /* \"#utility.yul\":1610:1917   */\ntag_31:\n    /* \"#utility.yul\":1678:1679   */\n  0x00\n    /* \"#utility.yul\":1688:1801   */\ntag_58:\n    /* \"#utility.yul\":1702:1708   */\n  dup4\n    /* \"#utility.yul\":1699:1700   */\n  dup2\n    /* \"#utility.yul\":1696:1709   */\n  lt\n    /* \"#utility.yul\":1688:1801   */\n  iszero\n  tag_60\n  jumpi\n    /* \"#utility.yul\":1787:1788   */\n  dup1\n    /* \"#utility.yul\":1782:1785   */\n  dup3\n    /* \"#utility.yul\":1778:1789   */\n  add\n    /* \"#utility.yul\":1772:1790   */\n  mload\n    /* \"#utility.yul\":1768:1769   */\n  dup2\n    /* \"#utility.yul\":1763:1766   */\n  dup5\n    /* \"#utility.yul\":1759:1770   */\n  add\n    /* \"#utility.yul\":1752:1791   */\n  mstore\n    /* \"#utility.yul\":1724:1726   */\n  0x20\n    /* \"#utility.yul\":1721:1722   */\n  dup2\n    /* \"#utility.yul\":1717:1727   */\n  add\n    /* \"#utility.yul\":1712:1727   */\n  swap1\n  pop\n    /* \"#utility.yul\":1688:1801   */\n  jump(tag_58)\ntag_60:\n    /* \"#utility.yul\":1819:1825   */\n  dup4\n    /* \"#utility.yul\":1816:1817   */\n  dup2\n    /* \"#utility.yul\":1813:1826   */\n  gt\n    /* \"#utility.yul\":1810:1911   */\n  iszero\n  tag_61\n  jumpi\n    /* \"#utility.yul\":1899:1900   */\n  0x00\n    /* \"#utility.yul\":1890:1896   */\n  dup5\n    /* \"#utility.yul\":1885:1888   */\n  dup5\n    /* \"#utility.yul\":1881:1897   */\n  add\n    /* \"#utility.yul\":1874:1901   */\n  mstore\n    /* \"#utility.yul\":1810:1911   */\ntag_61:\n    /* \"#utility.yul\":1659:1917   */\n  pop\n    /* \"#utility.yul\":1610:1917   */\n  pop\n  pop\n  pop\n  jump\t// out\n    /* \"#utility.yul\":1923:2344   */\ntag_32:\n    /* \"#utility.yul\":2012:2017   */\n  0x00\n    /* \"#utility.yul\":2037:2103   */\n  tag_63\n    /* \"#utility.yul\":2053:2102   */\n  tag_64\n    /* \"#utility.yul\":2095:2101   */\n  dup5\n    /* \"#utility.yul\":2053:2102   */\n  tag_30\n  jump\t// in\ntag_64:\n    /* \"#utility.yul\":2037:2103   */\n  tag_29\n  jump\t// in\ntag_63:\n    /* \"#utility.yul\":2028:2103   */\n  swap1\n  pop\n    /* \"#utility.yul\":2126:2132   */\n  dup3\n    /* \"#utility.yul\":2119:2124   */\n  dup2\n    /* \"#utility.yul\":2112:2133   */\n  mstore\n    /* \"#utility.yul\":2164:2168   */\n  0x20\n    /* \"#utility.yul\":2157:2162   */\n  dup2\n    /* \"#utility.yul\":2153:2169   */\n  add\n    /* \"#utility.yul\":2202:2205   */\n  dup5\n    /* \"#utility.yul\":2193:2199   */\n  dup5\n    /* \"#utility.yul\":2188:2191   */\n  dup5\n    /* \"#utility.yul\":2184:2200   */\n  add\n    /* \"#utility.yul\":2181:2206   */\n  gt\n    /* \"#utility.yul\":2178:2290   */\n  iszero\n  tag_65\n  jumpi\n    /* \"#utility.yul\":2209:2288   */\n  tag_66\n  tag_25\n  jump\t// in\ntag_66:\n    /* \"#utility.yul\":2178:2290   */\ntag_65:\n    /* \"#utility.yul\":2299:2338   */\n  tag_67\n    /* \"#utility.yul\":2331:2337   */\n  dup5\n    /* \"#utility.yul\":2326:2329   */\n  dup3\n    /* \"#utility.yul\":2321:2324   */\n  dup6\n    /* \"#utility.yul\":2299:2338   */\n  tag_31\n  jump\t// in\ntag_67:\n    /* \"#utility.yul\":2018:2344   */\n  pop\n    /* \"#utility.yul\":1923:2344   */\n  swap4\n  swap3\n  pop\n  pop\n  pop\n  jump\t// out\n    /* \"#utility.yul\":2364:2719   */\ntag_33:\n    /* \"#utility.yul\":2431:2436   */\n  0x00\n    /* \"#utility.yul\":2480:2483   */\n  dup3\n    /* \"#utility.yul\":2473:2477   */\n  0x1f\n    /* \"#utility.yul\":2465:2471   */\n  dup4\n    /* \"#utility.yul\":2461:2478   */\n  add\n    /* \"#utility.yul\":2457:2484   */\n  slt\n    /* \"#utility.yul\":2447:2569   */\n  tag_69\n  jumpi\n    /* \"#utility.yul\":2488:2567   */\n  tag_70\n  tag_24\n  jump\t// in\ntag_70:\n    /* \"#utility.yul\":2447:2569   */\ntag_69:\n    /* \"#utility.yul\":2598:2604   */\n  dup2\n    /* \"#utility.yul\":2592:2605   */\n  mload\n    /* \"#utility.yul\":2623:2713   */\n  tag_71\n    /* \"#utility.yul\":2709:2712   */\n  dup5\n    /* \"#utility.yul\":2701:2707   */\n  dup3\n    /* \"#utility.yul\":2694:2698   */\n  0x20\n    /* \"#utility.yul\":2686:2692   */\n  dup7\n    /* \"#utility.yul\":2682:2699   */\n  add\n    /* \"#utility.yul\":2623:2713   */\n  tag_32\n  jump\t// in\ntag_71:\n    /* \"#utility.yul\":2614:2713   */\n  swap2\n  pop\n    /* \"#utility.yul\":2437:2719   */\n  pop\n    /* \"#utility.yul\":2364:2719   */\n  swap3\n  swap2\n  pop\n  pop\n  jump\t// out\n    /* \"#utility.yul\":2725:2801   */\ntag_34:\n    /* \"#utility.yul\":2761:2768   */\n  0x00\n    /* \"#utility.yul\":2790:2795   */\n  dup2\n    /* \"#utility.yul\":2779:2795   */\n  swap1\n  pop\n    /* \"#utility.yul\":2725:2801   */\n  swap2\n  swap1\n  pop\n  jump\t// out\n    /* \"#utility.yul\":2807:2927   */\ntag_35:\n    /* \"#utility.yul\":2879:2902   */\n  tag_74\n    /* \"#utility.yul\":2896:2901   */\n  dup2\n    /* \"#utility.yul\":2879:2902   */\n  tag_34\n  jump\t// in\ntag_74:\n    /* \"#utility.yul\":2872:2877   */\n  dup2\n    /* \"#utility.yul\":2869:2903   */\n  eq\n    /* \"#utility.yul\":2859:2921   */\n  tag_75\n  jumpi\n    /* \"#utility.yul\":2917:2918   */\n  0x00\n    /* \"#utility.yul\":2914:2915   */\n  dup1\n    /* \"#utility.yul\":2907:2919   */\n  revert\n    /* \"#utility.yul\":2859:2921   */\ntag_75:\n    /* \"#utility.yul\":2807:2927   */\n  pop\n  jump\t// out\n    /* \"#utility.yul\":2933:3074   */\ntag_36:\n    /* \"#utility.yul\":2989:2994   */\n  0x00\n    /* \"#utility.yul\":3020:3026   */\n  dup2\n    /* \"#utility.yul\":3014:3027   */\n  mload\n    /* \"#utility.yul\":3005:3027   */\n  swap1\n  pop\n    /* \"#utility.yul\":3036:3068   */\n  tag_77\n    /* \"#utility.yul\":3062:3067   */\n  dup2\n    /* \"#utility.yul\":3036:3068   */\n  tag_35\n  jump\t// in\ntag_77:\n    /* \"#utility.yul\":2933:3074   */\n  swap3\n  swap2\n  pop\n  pop\n  jump\t// out\n    /* \"#utility.yul\":3080:4087   */\ntag_3:\n    /* \"#utility.yul\":3187:3193   */\n  0x00\n    /* \"#utility.yul\":3195:3201   */\n  dup1\n    /* \"#utility.yul\":3203:3209   */\n  0x00\n    /* \"#utility.yul\":3252:3254   */\n  0x60\n    /* \"#utility.yul\":3240:3249   */\n  dup5\n    /* \"#utility.yul\":3231:3238   */\n  dup7\n    /* \"#utility.yul\":3227:3250   */\n  sub\n    /* \"#utility.yul\":3223:3255   */\n  slt\n    /* \"#utility.yul\":3220:3339   */\n  iszero\n  tag_79\n  jumpi\n    /* \"#utility.yul\":3258:3337   */\n  tag_80\n  tag_22\n  jump\t// in\ntag_80:\n    /* \"#utility.yul\":3220:3339   */\ntag_79:\n    /* \"#utility.yul\":3399:3400   */\n  0x00\n    /* \"#utility.yul\":3388:3397   */\n  dup5\n    /* \"#utility.yul\":3384:3401   */\n  add\n    /* \"#utility.yul\":3378:3402   */\n  mload\n    /* \"#utility.yul\":3429:3447   */\n  0xffffffffffffffff\n    /* \"#utility.yul\":3421:3427   */\n  dup2\n    /* \"#utility.yul\":3418:3448   */\n  gt\n    /* \"#utility.yul\":3415:3532   */\n  iszero\n  tag_81\n  jumpi\n    /* \"#utility.yul\":3451:3530   */\n  tag_82\n  tag_23\n  jump\t// in\ntag_82:\n    /* \"#utility.yul\":3415:3532   */\ntag_81:\n    /* \"#utility.yul\":3556:3630   */\n  tag_83\n    /* \"#utility.yul\":3622:3629   */\n  dup7\n    /* \"#utility.yul\":3613:3619   */\n  dup3\n    /* \"#utility.yul\":3602:3611   */\n  dup8\n    /* \"#utility.yul\":3598:3620   */\n  add\n    /* \"#utility.yul\":3556:3630   */\n  tag_33\n  jump\t// in\ntag_83:\n    /* \"#utility.yul\":3546:3630   */\n  swap4\n  pop\n    /* \"#utility.yul\":3349:3640   */\n  pop\n    /* \"#utility.yul\":3700:3702   */\n  0x20\n    /* \"#utility.yul\":3689:3698   */\n  dup5\n    /* \"#utility.yul\":3685:3703   */\n  add\n    /* \"#utility.yul\":3679:3704   */\n  mload\n    /* \"#utility.yul\":3731:3749   */\n  0xffffffffffffffff\n    /* \"#utility.yul\":3723:3729   */\n  dup2\n    /* \"#utility.yul\":3720:3750   */\n  gt\n    /* \"#utility.yul\":3717:3834   */\n  iszero\n  tag_84\n  jumpi\n    /* \"#utility.yul\":3753:3832   */\n  tag_85\n  tag_23\n  jump\t// in\ntag_85:\n    /* \"#utility.yul\":3717:3834   */\ntag_84:\n    /* \"#utility.yul\":3858:3932   */\n  tag_86\n    /* \"#utility.yul\":3924:3931   */\n  dup7\n    /* \"#utility.yul\":3915:3921   */\n  dup3\n    /* \"#utility.yul\":3904:3913   */\n  dup8\n    /* \"#utility.yul\":3900:3922   */\n  add\n    /* \"#utility.yul\":3858:3932   */\n  tag_33\n  jump\t// in\ntag_86:\n    /* \"#utility.yul\":3848:3932   */\n  swap3\n  pop\n    /* \"#utility.yul\":3650:3942   */\n  pop\n    /* \"#utility.yul\":3981:3983   */\n  0x40\n    /* \"#utility.yul\":4007:4070   */\n  tag_87\n    /* \"#utility.yul\":4062:4069   */\n  dup7\n    /* \"#utility.yul\":4053:4059   */\n  dup3\n    /* \"#utility.yul\":4042:4051   */\n  dup8\n    /* \"#utility.yul\":4038:4060   */\n  add\n    /* \"#utility.yul\":4007:4070   */\n  tag_36\n  jump\t// in\ntag_87:\n    /* \"#utility.yul\":3997:4070   */\n  swap2\n  pop\n    /* \"#utility.yul\":3952:4080   */\n  pop\n    /* \"#utility.yul\":3080:4087   */\n  swap3\n  pop\n  swap3\n  pop\n  swap3\n  jump\t// out\n    /* \"#utility.yul\":4093:4273   */\ntag_37:\n    /* \"#utility.yul\":4141:4218   */\n  0x4e487b7100000000000000000000000000000000000000000000000000000000\n    /* \"#utility.yul\":4138:4139   */\n  0x00\n    /* \"#utility.yul\":4131:4219   */\n  mstore\n    /* \"#utility.yul\":4238:4242   */\n  0x22\n    /* \"#utility.yul\":4235:4236   */\n  0x04\n    /* \"#utility.yul\":4228:4243   */\n  mstore\n    /* \"#utility.yul\":4262:4266   */\n  0x24\n    /* \"#utility.yul\":4259:4260   */\n  0x00\n    /* \"#utility.yul\":4252:4267   */\n  revert\n    /* \"#utility.yul\":4279:4599   */\ntag_11:\n    /* \"#utility.yul\":4323:4329   */\n  0x00\n    /* \"#utility.yul\":4360:4361   */\n  0x02\n    /* \"#utility.yul\":4354:4358   */\n  dup3\n    /* \"#utility.yul\":4350:4362   */\n  div\n    /* \"#utility.yul\":4340:4362   */\n  swap1\n  pop\n    /* \"#utility.yul\":4407:4408   */\n  0x01\n    /* \"#utility.yul\":4401:4405   */\n  dup3\n    /* \"#utility.yul\":4397:4409   */\n  and\n    /* \"#utility.yul\":4428:4446   */\n  dup1\n    /* \"#utility.yul\":4418:4499   */\n  tag_90\n  jumpi\n    /* \"#utility.yul\":4484:4488   */\n  0x7f\n    /* \"#utility.yul\":4476:4482   */\n  dup3\n    /* \"#utility.yul\":4472:4489   */\n  and\n    /* \"#utility.yul\":4462:4489   */\n  swap2\n  pop\n    /* \"#utility.yul\":4418:4499   */\ntag_90:\n    /* \"#utility.yul\":4546:4548   */\n  0x20\n    /* \"#utility.yul\":4538:4544   */\n  dup3\n    /* \"#utility.yul\":4535:4549   */\n  lt\n    /* \"#utility.yul\":4515:4533   */\n  dup2\n    /* \"#utility.yul\":4512:4550   */\n  sub\n    /* \"#utility.yul\":4509:4593   */\n  tag_91\n  jumpi\n    /* \"#utility.yul\":4565:4583   */\n  tag_92\n  tag_37\n  jump\t// in\ntag_92:\n    /* \"#utility.yul\":4509:4593   */\ntag_91:\n    /* \"#utility.yul\":4330:4599   */\n  pop\n    /* \"#utility.yul\":4279:4599   */\n  swap2\n  swap1\n  pop\n  jump\t// out\n    /* \"contracts/structdatatype.sol\":148:487  contract structDatatype {... */\ntag_9:\n  dataSize(sub_0)\n  dup1\n  dataOffset(sub_0)\n  0x00\n  codecopy\n  0x00\n  return\nstop\n\nsub_0: assembly {\n        /* \"contracts/structdatatype.sol\":148:487  contract structDatatype {... */\n      mstore(0x40, 0x80)\n      callvalue\n      dup1\n      iszero\n      tag_1\n      jumpi\n      0x00\n      dup1\n      revert\n    tag_1:\n      pop\n      jumpi(tag_2, lt(calldatasize, 0x04))\n      shr(0xe0, calldataload(0x00))\n      dup1\n      0xb34fad41\n      eq\n      tag_3\n      jumpi\n      dup1\n      0xf6d0dc41\n      eq\n      tag_4\n      jumpi\n    tag_2:\n      0x00\n      dup1\n      revert\n        /* \"contracts/structdatatype.sol\":181:200  Employee public emp */\n    tag_3:\n      tag_5\n      tag_6\n      jump\t// in\n    tag_5:\n      mload(0x40)\n      tag_7\n      swap4\n      swap3\n      swap2\n      swap1\n      tag_8\n      jump\t// in\n    tag_7:\n      mload(0x40)\n      dup1\n      swap2\n      sub\n      swap1\n      return\n        /* \"contracts/structdatatype.sol\":377:484  function changeEmployeeData(string memory name, string memory skills, int salary) public {... */\n    tag_4:\n      tag_9\n      0x04\n      dup1\n      calldatasize\n      sub\n      dup2\n      add\n      swap1\n      tag_10\n      swap2\n      swap1\n      tag_11\n      jump\t// in\n    tag_10:\n      tag_12\n      jump\t// in\n    tag_9:\n      stop\n        /* \"contracts/structdatatype.sol\":181:200  Employee public emp */\n    tag_6:\n      0x00\n      dup1\n      0x00\n      add\n      dup1\n      sload\n      tag_13\n      swap1\n      tag_14\n      jump\t// in\n    tag_13:\n      dup1\n      0x1f\n      add\n      0x20\n      dup1\n      swap2\n      div\n      mul\n      0x20\n      add\n      mload(0x40)\n      swap1\n      dup2\n      add\n      0x40\n      mstore\n      dup1\n      swap3\n      swap2\n      swap1\n      dup2\n      dup2\n      mstore\n      0x20\n      add\n      dup3\n      dup1\n      sload\n      tag_15\n      swap1\n      tag_14\n      jump\t// in\n    tag_15:\n      dup1\n      iszero\n      tag_16\n      jumpi\n      dup1\n      0x1f\n      lt\n      tag_17\n      jumpi\n      0x0100\n      dup1\n      dup4\n      sload\n      div\n      mul\n      dup4\n      mstore\n      swap2\n      0x20\n      add\n      swap2\n      jump(tag_16)\n    tag_17:\n      dup3\n      add\n      swap2\n      swap1\n      0x00\n      mstore\n      keccak256(0x00, 0x20)\n      swap1\n    tag_18:\n      dup2\n      sload\n      dup2\n      mstore\n      swap1\n      0x01\n      add\n      swap1\n      0x20\n      add\n      dup1\n      dup4\n      gt\n      tag_18\n      jumpi\n      dup3\n      swap1\n      sub\n      0x1f\n      and\n      dup3\n      add\n      swap2\n    tag_16:\n      pop\n      pop\n      pop\n      pop\n      pop\n      swap1\n      dup1\n      0x01\n      add\n      dup1\n      sload\n      tag_19\n      swap1\n      tag_14\n      jump\t// in\n    tag_19:\n      dup1\n      0x1f\n      add\n      0x20\n      dup1\n      swap2\n      div\n      mul\n      0x20\n      add\n      mload(0x40)\n      swap1\n      dup2\n      add\n      0x40\n      mstore\n      dup1\n      swap3\n      swap2\n      swap1\n      dup2\n      dup2\n      mstore\n      0x20\n      add\n      dup3\n      dup1\n      sload\n      tag_20\n      swap1\n      tag_14\n      jump\t// in\n    tag_20:\n      dup1\n      iszero\n      tag_21\n      jumpi\n      dup1\n      0x1f\n      lt\n      tag_22\n      jumpi\n      0x0100\n      dup1\n      dup4\n      sload\n      div\n      mul\n      dup4\n      mstore\n      swap2\n      0x20\n      add\n      swap2\n      jump(tag_21)\n    tag_22:\n      dup3\n      add\n      swap2\n      swap1\n      0x00\n      mstore\n      keccak256(0x00, 0x20)\n      swap1\n    tag_23:\n      dup2\n      sload\n      dup2\n      mstore\n      swap1\n      0x01\n      add\n      swap1\n      0x20\n      add\n      dup1\n      dup4\n      gt\n      tag_23\n      jumpi\n      dup3\n      swap1\n      sub\n      0x1f\n      and\n      dup3\n      add\n      swap2\n    tag_21:\n      pop\n      pop\n      pop\n      pop\n      pop\n      swap1\n      dup1\n      0x02\n      add\n      sload\n      swap1\n      pop\n      dup4\n      jump\t// out\n        /* \"contracts/structdatatype.sol\":377:484  function changeEmployeeData(string memory name, string memory skills, int salary) public {... */\n    tag_12:\n      pop\n      pop\n      pop\n      jump\t// out\n        /* \"#utility.yul\":7:106   */\n    tag_25:\n        /* \"#utility.yul\":59:65   */\n      0x00\n        /* \"#utility.yul\":93:98   */\n      dup2\n        /* \"#utility.yul\":87:99   */\n      mload\n        /* \"#utility.yul\":77:99   */\n      swap1\n      pop\n        /* \"#utility.yul\":7:106   */\n      swap2\n      swap1\n      pop\n      jump\t// out\n        /* \"#utility.yul\":112:281   */\n    tag_26:\n        /* \"#utility.yul\":196:207   */\n      0x00\n        /* \"#utility.yul\":230:236   */\n      dup3\n        /* \"#utility.yul\":225:228   */\n      dup3\n        /* \"#utility.yul\":218:237   */\n      mstore\n        /* \"#utility.yul\":270:274   */\n      0x20\n        /* \"#utility.yul\":265:268   */\n      dup3\n        /* \"#utility.yul\":261:275   */\n      add\n        /* \"#utility.yul\":246:275   */\n      swap1\n      pop\n        /* \"#utility.yul\":112:281   */\n      swap3\n      swap2\n      pop\n      pop\n      jump\t// out\n        /* \"#utility.yul\":287:594   */\n    tag_27:\n        /* \"#utility.yul\":355:356   */\n      0x00\n        /* \"#utility.yul\":365:478   */\n    tag_51:\n        /* \"#utility.yul\":379:385   */\n      dup4\n        /* \"#utility.yul\":376:377   */\n      dup2\n        /* \"#utility.yul\":373:386   */\n      lt\n        /* \"#utility.yul\":365:478   */\n      iszero\n      tag_53\n      jumpi\n        /* \"#utility.yul\":464:465   */\n      dup1\n        /* \"#utility.yul\":459:462   */\n      dup3\n        /* \"#utility.yul\":455:466   */\n      add\n        /* \"#utility.yul\":449:467   */\n      mload\n        /* \"#utility.yul\":445:446   */\n      dup2\n        /* \"#utility.yul\":440:443   */\n      dup5\n        /* \"#utility.yul\":436:447   */\n      add\n        /* \"#utility.yul\":429:468   */\n      mstore\n        /* \"#utility.yul\":401:403   */\n      0x20\n        /* \"#utility.yul\":398:399   */\n      dup2\n        /* \"#utility.yul\":394:404   */\n      add\n        /* \"#utility.yul\":389:404   */\n      swap1\n      pop\n        /* \"#utility.yul\":365:478   */\n      jump(tag_51)\n    tag_53:\n        /* \"#utility.yul\":496:502   */\n      dup4\n        /* \"#utility.yul\":493:494   */\n      dup2\n        /* \"#utility.yul\":490:503   */\n      gt\n        /* \"#utility.yul\":487:588   */\n      iszero\n      tag_54\n      jumpi\n        /* \"#utility.yul\":576:577   */\n      0x00\n        /* \"#utility.yul\":567:573   */\n      dup5\n        /* \"#utility.yul\":562:565   */\n      dup5\n        /* \"#utility.yul\":558:574   */\n      add\n        /* \"#utility.yul\":551:578   */\n      mstore\n        /* \"#utility.yul\":487:588   */\n    tag_54:\n        /* \"#utility.yul\":336:594   */\n      pop\n        /* \"#utility.yul\":287:594   */\n      pop\n      pop\n      pop\n      jump\t// out\n        /* \"#utility.yul\":600:702   */\n    tag_28:\n        /* \"#utility.yul\":641:647   */\n      0x00\n        /* \"#utility.yul\":692:694   */\n      0x1f\n        /* \"#utility.yul\":688:695   */\n      not\n        /* \"#utility.yul\":683:685   */\n      0x1f\n        /* \"#utility.yul\":676:681   */\n      dup4\n        /* \"#utility.yul\":672:686   */\n      add\n        /* \"#utility.yul\":668:696   */\n      and\n        /* \"#utility.yul\":658:696   */\n      swap1\n      pop\n        /* \"#utility.yul\":600:702   */\n      swap2\n      swap1\n      pop\n      jump\t// out\n        /* \"#utility.yul\":708:1072   */\n    tag_29:\n        /* \"#utility.yul\":796:799   */\n      0x00\n        /* \"#utility.yul\":824:863   */\n      tag_57\n        /* \"#utility.yul\":857:862   */\n      dup3\n        /* \"#utility.yul\":824:863   */\n      tag_25\n      jump\t// in\n    tag_57:\n        /* \"#utility.yul\":879:950   */\n      tag_58\n        /* \"#utility.yul\":943:949   */\n      dup2\n        /* \"#utility.yul\":938:941   */\n      dup6\n        /* \"#utility.yul\":879:950   */\n      tag_26\n      jump\t// in\n    tag_58:\n        /* \"#utility.yul\":872:950   */\n      swap4\n      pop\n        /* \"#utility.yul\":959:1011   */\n      tag_59\n        /* \"#utility.yul\":1004:1010   */\n      dup2\n        /* \"#utility.yul\":999:1002   */\n      dup6\n        /* \"#utility.yul\":992:996   */\n      0x20\n        /* \"#utility.yul\":985:990   */\n      dup7\n        /* \"#utility.yul\":981:997   */\n      add\n        /* \"#utility.yul\":959:1011   */\n      tag_27\n      jump\t// in\n    tag_59:\n        /* \"#utility.yul\":1036:1065   */\n      tag_60\n        /* \"#utility.yul\":1058:1064   */\n      dup2\n        /* \"#utility.yul\":1036:1065   */\n      tag_28\n      jump\t// in\n    tag_60:\n        /* \"#utility.yul\":1031:1034   */\n      dup5\n        /* \"#utility.yul\":1027:1066   */\n      add\n        /* \"#utility.yul\":1020:1066   */\n      swap2\n      pop\n        /* \"#utility.yul\":800:1072   */\n      pop\n        /* \"#utility.yul\":708:1072   */\n      swap3\n      swap2\n      pop\n      pop\n      jump\t// out\n        /* \"#utility.yul\":1078:1154   */\n    tag_30:\n        /* \"#utility.yul\":1114:1121   */\n      0x00\n        /* \"#utility.yul\":1143:1148   */\n      dup2\n        /* \"#utility.yul\":1132:1148   */\n      swap1\n      pop\n        /* \"#utility.yul\":1078:1154   */\n      swap2\n      swap1\n      pop\n      jump\t// out\n        /* \"#utility.yul\":1160:1275   */\n    tag_31:\n        /* \"#utility.yul\":1245:1268   */\n      tag_63\n        /* \"#utility.yul\":1262:1267   */\n      dup2\n        /* \"#utility.yul\":1245:1268   */\n      tag_30\n      jump\t// in\n    tag_63:\n        /* \"#utility.yul\":1240:1243   */\n      dup3\n        /* \"#utility.yul\":1233:1269   */\n      mstore\n        /* \"#utility.yul\":1160:1275   */\n      pop\n      pop\n      jump\t// out\n        /* \"#utility.yul\":1281:1901   */\n    tag_8:\n        /* \"#utility.yul\":1468:1472   */\n      0x00\n        /* \"#utility.yul\":1506:1508   */\n      0x60\n        /* \"#utility.yul\":1495:1504   */\n      dup3\n        /* \"#utility.yul\":1491:1509   */\n      add\n        /* \"#utility.yul\":1483:1509   */\n      swap1\n      pop\n        /* \"#utility.yul\":1555:1564   */\n      dup2\n        /* \"#utility.yul\":1549:1553   */\n      dup2\n        /* \"#utility.yul\":1545:1565   */\n      sub\n        /* \"#utility.yul\":1541:1542   */\n      0x00\n        /* \"#utility.yul\":1530:1539   */\n      dup4\n        /* \"#utility.yul\":1526:1543   */\n      add\n        /* \"#utility.yul\":1519:1566   */\n      mstore\n        /* \"#utility.yul\":1583:1661   */\n      tag_65\n        /* \"#utility.yul\":1656:1660   */\n      dup2\n        /* \"#utility.yul\":1647:1653   */\n      dup7\n        /* \"#utility.yul\":1583:1661   */\n      tag_29\n      jump\t// in\n    tag_65:\n        /* \"#utility.yul\":1575:1661   */\n      swap1\n      pop\n        /* \"#utility.yul\":1708:1717   */\n      dup2\n        /* \"#utility.yul\":1702:1706   */\n      dup2\n        /* \"#utility.yul\":1698:1718   */\n      sub\n        /* \"#utility.yul\":1693:1695   */\n      0x20\n        /* \"#utility.yul\":1682:1691   */\n      dup4\n        /* \"#utility.yul\":1678:1696   */\n      add\n        /* \"#utility.yul\":1671:1719   */\n      mstore\n        /* \"#utility.yul\":1736:1814   */\n      tag_66\n        /* \"#utility.yul\":1809:1813   */\n      dup2\n        /* \"#utility.yul\":1800:1806   */\n      dup6\n        /* \"#utility.yul\":1736:1814   */\n      tag_29\n      jump\t// in\n    tag_66:\n        /* \"#utility.yul\":1728:1814   */\n      swap1\n      pop\n        /* \"#utility.yul\":1824:1894   */\n      tag_67\n        /* \"#utility.yul\":1890:1892   */\n      0x40\n        /* \"#utility.yul\":1879:1888   */\n      dup4\n        /* \"#utility.yul\":1875:1893   */\n      add\n        /* \"#utility.yul\":1866:1872   */\n      dup5\n        /* \"#utility.yul\":1824:1894   */\n      tag_31\n      jump\t// in\n    tag_67:\n        /* \"#utility.yul\":1281:1901   */\n      swap5\n      swap4\n      pop\n      pop\n      pop\n      pop\n      jump\t// out\n        /* \"#utility.yul\":1907:1982   */\n    tag_32:\n        /* \"#utility.yul\":1940:1946   */\n      0x00\n        /* \"#utility.yul\":1973:1975   */\n      0x40\n        /* \"#utility.yul\":1967:1976   */\n      mload\n        /* \"#utility.yul\":1957:1976   */\n      swap1\n      pop\n        /* \"#utility.yul\":1907:1982   */\n      swap1\n      jump\t// out\n        /* \"#utility.yul\":1988:2105   */\n    tag_33:\n        /* \"#utility.yul\":2097:2098   */\n      0x00\n        /* \"#utility.yul\":2094:2095   */\n      dup1\n        /* \"#utility.yul\":2087:2099   */\n      revert\n        /* \"#utility.yul\":2111:2228   */\n    tag_34:\n        /* \"#utility.yul\":2220:2221   */\n      0x00\n        /* \"#utility.yul\":2217:2218   */\n      dup1\n        /* \"#utility.yul\":2210:2222   */\n      revert\n        /* \"#utility.yul\":2234:2351   */\n    tag_35:\n        /* \"#utility.yul\":2343:2344   */\n      0x00\n        /* \"#utility.yul\":2340:2341   */\n      dup1\n        /* \"#utility.yul\":2333:2345   */\n      revert\n        /* \"#utility.yul\":2357:2474   */\n    tag_36:\n        /* \"#utility.yul\":2466:2467   */\n      0x00\n        /* \"#utility.yul\":2463:2464   */\n      dup1\n        /* \"#utility.yul\":2456:2468   */\n      revert\n        /* \"#utility.yul\":2480:2660   */\n    tag_37:\n        /* \"#utility.yul\":2528:2605   */\n      0x4e487b7100000000000000000000000000000000000000000000000000000000\n        /* \"#utility.yul\":2525:2526   */\n      0x00\n        /* \"#utility.yul\":2518:2606   */\n      mstore\n        /* \"#utility.yul\":2625:2629   */\n      0x41\n        /* \"#utility.yul\":2622:2623   */\n      0x04\n        /* \"#utility.yul\":2615:2630   */\n      mstore\n        /* \"#utility.yul\":2649:2653   */\n      0x24\n        /* \"#utility.yul\":2646:2647   */\n      0x00\n        /* \"#utility.yul\":2639:2654   */\n      revert\n        /* \"#utility.yul\":2666:2947   */\n    tag_38:\n        /* \"#utility.yul\":2749:2776   */\n      tag_75\n        /* \"#utility.yul\":2771:2775   */\n      dup3\n        /* \"#utility.yul\":2749:2776   */\n      tag_28\n      jump\t// in\n    tag_75:\n        /* \"#utility.yul\":2741:2747   */\n      dup2\n        /* \"#utility.yul\":2737:2777   */\n      add\n        /* \"#utility.yul\":2879:2885   */\n      dup2\n        /* \"#utility.yul\":2867:2877   */\n      dup2\n        /* \"#utility.yul\":2864:2886   */\n      lt\n        /* \"#utility.yul\":2843:2861   */\n      0xffffffffffffffff\n        /* \"#utility.yul\":2831:2841   */\n      dup3\n        /* \"#utility.yul\":2828:2862   */\n      gt\n        /* \"#utility.yul\":2825:2887   */\n      or\n        /* \"#utility.yul\":2822:2910   */\n      iszero\n      tag_76\n      jumpi\n        /* \"#utility.yul\":2890:2908   */\n      tag_77\n      tag_37\n      jump\t// in\n    tag_77:\n        /* \"#utility.yul\":2822:2910   */\n    tag_76:\n        /* \"#utility.yul\":2930:2940   */\n      dup1\n        /* \"#utility.yul\":2926:2928   */\n      0x40\n        /* \"#utility.yul\":2919:2941   */\n      mstore\n        /* \"#utility.yul\":2709:2947   */\n      pop\n        /* \"#utility.yul\":2666:2947   */\n      pop\n      pop\n      jump\t// out\n        /* \"#utility.yul\":2953:3082   */\n    tag_39:\n        /* \"#utility.yul\":2987:2993   */\n      0x00\n        /* \"#utility.yul\":3014:3034   */\n      tag_79\n      tag_32\n      jump\t// in\n    tag_79:\n        /* \"#utility.yul\":3004:3034   */\n      swap1\n      pop\n        /* \"#utility.yul\":3043:3076   */\n      tag_80\n        /* \"#utility.yul\":3071:3075   */\n      dup3\n        /* \"#utility.yul\":3063:3069   */\n      dup3\n        /* \"#utility.yul\":3043:3076   */\n      tag_38\n      jump\t// in\n    tag_80:\n        /* \"#utility.yul\":2953:3082   */\n      swap2\n      swap1\n      pop\n      jump\t// out\n        /* \"#utility.yul\":3088:3396   */\n    tag_40:\n        /* \"#utility.yul\":3150:3154   */\n      0x00\n        /* \"#utility.yul\":3240:3258   */\n      0xffffffffffffffff\n        /* \"#utility.yul\":3232:3238   */\n      dup3\n        /* \"#utility.yul\":3229:3259   */\n      gt\n        /* \"#utility.yul\":3226:3282   */\n      iszero\n      tag_82\n      jumpi\n        /* \"#utility.yul\":3262:3280   */\n      tag_83\n      tag_37\n      jump\t// in\n    tag_83:\n        /* \"#utility.yul\":3226:3282   */\n    tag_82:\n        /* \"#utility.yul\":3300:3329   */\n      tag_84\n        /* \"#utility.yul\":3322:3328   */\n      dup3\n        /* \"#utility.yul\":3300:3329   */\n      tag_28\n      jump\t// in\n    tag_84:\n        /* \"#utility.yul\":3292:3329   */\n      swap1\n      pop\n        /* \"#utility.yul\":3384:3388   */\n      0x20\n        /* \"#utility.yul\":3378:3382   */\n      dup2\n        /* \"#utility.yul\":3374:3389   */\n      add\n        /* \"#utility.yul\":3366:3389   */\n      swap1\n      pop\n        /* \"#utility.yul\":3088:3396   */\n      swap2\n      swap1\n      pop\n      jump\t// out\n        /* \"#utility.yul\":3402:3556   */\n    tag_41:\n        /* \"#utility.yul\":3486:3492   */\n      dup3\n        /* \"#utility.yul\":3481:3484   */\n      dup2\n        /* \"#utility.yul\":3476:3479   */\n      dup4\n        /* \"#utility.yul\":3463:3493   */\n      calldatacopy\n        /* \"#utility.yul\":3548:3549   */\n      0x00\n        /* \"#utility.yul\":3539:3545   */\n      dup4\n        /* \"#utility.yul\":3534:3537   */\n      dup4\n        /* \"#utility.yul\":3530:3546   */\n      add\n        /* \"#utility.yul\":3523:3550   */\n      mstore\n        /* \"#utility.yul\":3402:3556   */\n      pop\n      pop\n      pop\n      jump\t// out\n        /* \"#utility.yul\":3562:3974   */\n    tag_42:\n        /* \"#utility.yul\":3640:3645   */\n      0x00\n        /* \"#utility.yul\":3665:3731   */\n      tag_87\n        /* \"#utility.yul\":3681:3730   */\n      tag_88\n        /* \"#utility.yul\":3723:3729   */\n      dup5\n        /* \"#utility.yul\":3681:3730   */\n      tag_40\n      jump\t// in\n    tag_88:\n        /* \"#utility.yul\":3665:3731   */\n      tag_39\n      jump\t// in\n    tag_87:\n        /* \"#utility.yul\":3656:3731   */\n      swap1\n      pop\n        /* \"#utility.yul\":3754:3760   */\n      dup3\n        /* \"#utility.yul\":3747:3752   */\n      dup2\n        /* \"#utility.yul\":3740:3761   */\n      mstore\n        /* \"#utility.yul\":3792:3796   */\n      0x20\n        /* \"#utility.yul\":3785:3790   */\n      dup2\n        /* \"#utility.yul\":3781:3797   */\n      add\n        /* \"#utility.yul\":3830:3833   */\n      dup5\n        /* \"#utility.yul\":3821:3827   */\n      dup5\n        /* \"#utility.yul\":3816:3819   */\n      dup5\n        /* \"#utility.yul\":3812:3828   */\n      add\n        /* \"#utility.yul\":3809:3834   */\n      gt\n        /* \"#utility.yul\":3806:3918   */\n      iszero\n      tag_89\n      jumpi\n        /* \"#utility.yul\":3837:3916   */\n      tag_90\n      tag_36\n      jump\t// in\n    tag_90:\n        /* \"#utility.yul\":3806:3918   */\n    tag_89:\n        /* \"#utility.yul\":3927:3968   */\n      tag_91\n        /* \"#utility.yul\":3961:3967   */\n      dup5\n        /* \"#utility.yul\":3956:3959   */\n      dup3\n        /* \"#utility.yul\":3951:3954   */\n      dup6\n        /* \"#utility.yul\":3927:3968   */\n      tag_41\n      jump\t// in\n    tag_91:\n        /* \"#utility.yul\":3646:3974   */\n      pop\n        /* \"#utility.yul\":3562:3974   */\n      swap4\n      swap3\n      pop\n      pop\n      pop\n      jump\t// out\n        /* \"#utility.yul\":3994:4334   */\n    tag_43:\n        /* \"#utility.yul\":4050:4055   */\n      0x00\n        /* \"#utility.yul\":4099:4102   */\n      dup3\n        /* \"#utility.yul\":4092:4096   */\n      0x1f\n        /* \"#utility.yul\":4084:4090   */\n      dup4\n        /* \"#utility.yul\":4080:4097   */\n      add\n        /* \"#utility.yul\":4076:4103   */\n      slt\n        /* \"#utility.yul\":4066:4188   */\n      tag_93\n      jumpi\n        /* \"#utility.yul\":4107:4186   */\n      tag_94\n      tag_35\n      jump\t// in\n    tag_94:\n        /* \"#utility.yul\":4066:4188   */\n    tag_93:\n        /* \"#utility.yul\":4224:4230   */\n      dup2\n        /* \"#utility.yul\":4211:4231   */\n      calldataload\n        /* \"#utility.yul\":4249:4328   */\n      tag_95\n        /* \"#utility.yul\":4324:4327   */\n      dup5\n        /* \"#utility.yul\":4316:4322   */\n      dup3\n        /* \"#utility.yul\":4309:4313   */\n      0x20\n        /* \"#utility.yul\":4301:4307   */\n      dup7\n        /* \"#utility.yul\":4297:4314   */\n      add\n        /* \"#utility.yul\":4249:4328   */\n      tag_42\n      jump\t// in\n    tag_95:\n        /* \"#utility.yul\":4240:4328   */\n      swap2\n      pop\n        /* \"#utility.yul\":4056:4334   */\n      pop\n        /* \"#utility.yul\":3994:4334   */\n      swap3\n      swap2\n      pop\n      pop\n      jump\t// out\n        /* \"#utility.yul\":4340:4460   */\n    tag_44:\n        /* \"#utility.yul\":4412:4435   */\n      tag_97\n        /* \"#utility.yul\":4429:4434   */\n      dup2\n        /* \"#utility.yul\":4412:4435   */\n      tag_30\n      jump\t// in\n    tag_97:\n        /* \"#utility.yul\":4405:4410   */\n      dup2\n        /* \"#utility.yul\":4402:4436   */\n      eq\n        /* \"#utility.yul\":4392:4454   */\n      tag_98\n      jumpi\n        /* \"#utility.yul\":4450:4451   */\n      0x00\n        /* \"#utility.yul\":4447:4448   */\n      dup1\n        /* \"#utility.yul\":4440:4452   */\n      revert\n        /* \"#utility.yul\":4392:4454   */\n    tag_98:\n        /* \"#utility.yul\":4340:4460   */\n      pop\n      jump\t// out\n        /* \"#utility.yul\":4466:4603   */\n    tag_45:\n        /* \"#utility.yul\":4511:4516   */\n      0x00\n        /* \"#utility.yul\":4549:4555   */\n      dup2\n        /* \"#utility.yul\":4536:4556   */\n      calldataload\n        /* \"#utility.yul\":4527:4556   */\n      swap1\n      pop\n        /* \"#utility.yul\":4565:4597   */\n      tag_100\n        /* \"#utility.yul\":4591:4596   */\n      dup2\n        /* \"#utility.yul\":4565:4597   */\n      tag_44\n      jump\t// in\n    tag_100:\n        /* \"#utility.yul\":4466:4603   */\n      swap3\n      swap2\n      pop\n      pop\n      jump\t// out\n        /* \"#utility.yul\":4609:5586   */\n    tag_11:\n        /* \"#utility.yul\":4705:4711   */\n      0x00\n        /* \"#utility.yul\":4713:4719   */\n      dup1\n        /* \"#utility.yul\":4721:4727   */\n      0x00\n        /* \"#utility.yul\":4770:4772   */\n      0x60\n        /* \"#utility.yul\":4758:4767   */\n      dup5\n        /* \"#utility.yul\":4749:4756   */\n      dup7\n        /* \"#utility.yul\":4745:4768   */\n      sub\n        /* \"#utility.yul\":4741:4773   */\n      slt\n        /* \"#utility.yul\":4738:4857   */\n      iszero\n      tag_102\n      jumpi\n        /* \"#utility.yul\":4776:4855   */\n      tag_103\n      tag_33\n      jump\t// in\n    tag_103:\n        /* \"#utility.yul\":4738:4857   */\n    tag_102:\n        /* \"#utility.yul\":4924:4925   */\n      0x00\n        /* \"#utility.yul\":4913:4922   */\n      dup5\n        /* \"#utility.yul\":4909:4926   */\n      add\n        /* \"#utility.yul\":4896:4927   */\n      calldataload\n        /* \"#utility.yul\":4954:4972   */\n      0xffffffffffffffff\n        /* \"#utility.yul\":4946:4952   */\n      dup2\n        /* \"#utility.yul\":4943:4973   */\n      gt\n        /* \"#utility.yul\":4940:5057   */\n      iszero\n      tag_104\n      jumpi\n        /* \"#utility.yul\":4976:5055   */\n      tag_105\n      tag_34\n      jump\t// in\n    tag_105:\n        /* \"#utility.yul\":4940:5057   */\n    tag_104:\n        /* \"#utility.yul\":5081:5144   */\n      tag_106\n        /* \"#utility.yul\":5136:5143   */\n      dup7\n        /* \"#utility.yul\":5127:5133   */\n      dup3\n        /* \"#utility.yul\":5116:5125   */\n      dup8\n        /* \"#utility.yul\":5112:5134   */\n      add\n        /* \"#utility.yul\":5081:5144   */\n      tag_43\n      jump\t// in\n    tag_106:\n        /* \"#utility.yul\":5071:5144   */\n      swap4\n      pop\n        /* \"#utility.yul\":4867:5154   */\n      pop\n        /* \"#utility.yul\":5221:5223   */\n      0x20\n        /* \"#utility.yul\":5210:5219   */\n      dup5\n        /* \"#utility.yul\":5206:5224   */\n      add\n        /* \"#utility.yul\":5193:5225   */\n      calldataload\n        /* \"#utility.yul\":5252:5270   */\n      0xffffffffffffffff\n        /* \"#utility.yul\":5244:5250   */\n      dup2\n        /* \"#utility.yul\":5241:5271   */\n      gt\n        /* \"#utility.yul\":5238:5355   */\n      iszero\n      tag_107\n      jumpi\n        /* \"#utility.yul\":5274:5353   */\n      tag_108\n      tag_34\n      jump\t// in\n    tag_108:\n        /* \"#utility.yul\":5238:5355   */\n    tag_107:\n        /* \"#utility.yul\":5379:5442   */\n      tag_109\n        /* \"#utility.yul\":5434:5441   */\n      dup7\n        /* \"#utility.yul\":5425:5431   */\n      dup3\n        /* \"#utility.yul\":5414:5423   */\n      dup8\n        /* \"#utility.yul\":5410:5432   */\n      add\n        /* \"#utility.yul\":5379:5442   */\n      tag_43\n      jump\t// in\n    tag_109:\n        /* \"#utility.yul\":5369:5442   */\n      swap3\n      pop\n        /* \"#utility.yul\":5164:5452   */\n      pop\n        /* \"#utility.yul\":5491:5493   */\n      0x40\n        /* \"#utility.yul\":5517:5569   */\n      tag_110\n        /* \"#utility.yul\":5561:5568   */\n      dup7\n        /* \"#utility.yul\":5552:5558   */\n      dup3\n        /* \"#utility.yul\":5541:5550   */\n      dup8\n        /* \"#utility.yul\":5537:5559   */\n      add\n        /* \"#utility.yul\":5517:5569   */\n      tag_45\n      jump\t// in\n    tag_110:\n        /* \"#utility.yul\":5507:5569   */\n      swap2\n      pop\n        /* \"#utility.yul\":5462:5579   */\n      pop\n        /* \"#utility.yul\":4609:5586   */\n      swap3\n      pop\n      swap3\n      pop\n      swap3\n      jump\t// out\n        /* \"#utility.yul\":5592:5772   */\n    tag_46:\n        /* \"#utility.yul\":5640:5717   */\n      0x4e487b7100000000000000000000000000000000000000000000000000000000\n        /* \"#utility.yul\":5637:5638   */\n      0x00\n        /* \"#utility.yul\":5630:5718   */\n      mstore\n        /* \"#utility.yul\":5737:5741   */\n      0x22\n        /* \"#utility.yul\":5734:5735   */\n      0x04\n        /* \"#utility.yul\":5727:5742   */\n      mstore\n        /* \"#utility.yul\":5761:5765   */\n      0x24\n        /* \"#utility.yul\":5758:5759   */\n      0x00\n        /* \"#utility.yul\":5751:5766   */\n      revert\n        /* \"#utility.yul\":5778:6098   */\n    tag_14:\n        /* \"#utility.yul\":5822:5828   */\n      0x00\n        /* \"#utility.yul\":5859:5860   */\n      0x02\n        /* \"#utility.yul\":5853:5857   */\n      dup3\n        /* \"#utility.yul\":5849:5861   */\n      div\n        /* \"#utility.yul\":5839:5861   */\n      swap1\n      pop\n        /* \"#utility.yul\":5906:5907   */\n      0x01\n        /* \"#utility.yul\":5900:5904   */\n      dup3\n        /* \"#utility.yul\":5896:5908   */\n      and\n        /* \"#utility.yul\":5927:5945   */\n      dup1\n        /* \"#utility.yul\":5917:5998   */\n      tag_113\n      jumpi\n        /* \"#utility.yul\":5983:5987   */\n      0x7f\n        /* \"#utility.yul\":5975:5981   */\n      dup3\n        /* \"#utility.yul\":5971:5988   */\n      and\n        /* \"#utility.yul\":5961:5988   */\n      swap2\n      pop\n        /* \"#utility.yul\":5917:5998   */\n    tag_113:\n        /* \"#utility.yul\":6045:6047   */\n      0x20\n        /* \"#utility.yul\":6037:6043   */\n      dup3\n        /* \"#utility.yul\":6034:6048   */\n      lt\n        /* \"#utility.yul\":6014:6032   */\n      dup2\n        /* \"#utility.yul\":6011:6049   */\n      sub\n        /* \"#utility.yul\":6008:6092   */\n      tag_114\n      jumpi\n        /* \"#utility.yul\":6064:6082   */\n      tag_115\n      tag_46\n      jump\t// in\n    tag_115:\n        /* \"#utility.yul\":6008:6092   */\n    tag_114:\n        /* \"#utility.yul\":5829:6098   */\n      pop\n        /* \"#utility.yul\":5778:6098   */\n      swap2\n      swap1\n      pop\n      jump\t// out\n\n    auxdata: 0xa26469706673582212209c887df4fd32c41ea7b9071e141b8b99da7bff99d098a5e5098d6733e61512f564736f6c634300080d0033\n}\n",
				"bytecode": {
					"linkReferences": {},
					"object": "60806040523480156200001157600080fd5b506040516200094838038062000948833981810160405281019062000037919062000309565b826000800190805190602001906200005192919062000081565b5081600060010190805190602001906200006d92919062000081565b508060006002018190555050505062000407565b8280546200008f90620003d2565b90600052602060002090601f016020900481019282620000b35760008555620000ff565b82601f10620000ce57805160ff1916838001178555620000ff565b82800160010185558215620000ff579182015b82811115620000fe578251825591602001919060010190620000e1565b5b5090506200010e919062000112565b5090565b5b808211156200012d57600081600090555060010162000113565b5090565b6000604051905090565b600080fd5b600080fd5b600080fd5b600080fd5b6000601f19601f8301169050919050565b7f4e487b7100000000000000000000000000000000000000000000000000000000600052604160045260246000fd5b6200019a826200014f565b810181811067ffffffffffffffff82111715620001bc57620001bb62000160565b5b80604052505050565b6000620001d162000131565b9050620001df82826200018f565b919050565b600067ffffffffffffffff82111562000202576200020162000160565b5b6200020d826200014f565b9050602081019050919050565b60005b838110156200023a5780820151818401526020810190506200021d565b838111156200024a576000848401525b50505050565b6000620002676200026184620001e4565b620001c5565b9050828152602081018484840111156200028657620002856200014a565b5b620002938482856200021a565b509392505050565b600082601f830112620002b357620002b262000145565b5b8151620002c584826020860162000250565b91505092915050565b6000819050919050565b620002e381620002ce565b8114620002ef57600080fd5b50565b6000815190506200030381620002d8565b92915050565b6000806000606084860312156200032557620003246200013b565b5b600084015167ffffffffffffffff81111562000346576200034562000140565b5b62000354868287016200029b565b935050602084015167ffffffffffffffff81111562000378576200037762000140565b5b62000386868287016200029b565b92505060406200039986828701620002f2565b9150509250925092565b7f4e487b7100000000000000000000000000000000000000000000000000000000600052602260045260246000fd5b60006002820490506001821680620003eb57607f821691505b602082108103620004015762000400620003a3565b5b50919050565b61053180620004176000396000f3fe608060405234801561001057600080fd5b50600436106100365760003560e01c8063b34fad411461003b578063f6d0dc411461005b575b600080fd5b610043610077565b60405161005293929190610256565b60405180910390f35b61007560048036038101906100709190610410565b61019f565b005b6000806000018054610088906104ca565b80601f01602080910402602001604051908101604052809291908181526020018280546100b4906104ca565b80156101015780601f106100d657610100808354040283529160200191610101565b820191906000526020600020905b8154815290600101906020018083116100e457829003601f168201915b505050505090806001018054610116906104ca565b80601f0160208091040260200160405190810160405280929190818152602001828054610142906104ca565b801561018f5780601f106101645761010080835404028352916020019161018f565b820191906000526020600020905b81548152906001019060200180831161017257829003601f168201915b5050505050908060020154905083565b505050565b600081519050919050565b600082825260208201905092915050565b60005b838110156101de5780820151818401526020810190506101c3565b838111156101ed576000848401525b50505050565b6000601f19601f8301169050919050565b600061020f826101a4565b61021981856101af565b93506102298185602086016101c0565b610232816101f3565b840191505092915050565b6000819050919050565b6102508161023d565b82525050565b600060608201905081810360008301526102708186610204565b905081810360208301526102848185610204565b90506102936040830184610247565b949350505050565b6000604051905090565b600080fd5b600080fd5b600080fd5b600080fd5b7f4e487b7100000000000000000000000000000000000000000000000000000000600052604160045260246000fd5b6102f1826101f3565b810181811067ffffffffffffffff821117156103105761030f6102b9565b5b80604052505050565b600061032361029b565b905061032f82826102e8565b919050565b600067ffffffffffffffff82111561034f5761034e6102b9565b5b610358826101f3565b9050602081019050919050565b82818337600083830152505050565b600061038761038284610334565b610319565b9050828152602081018484840111156103a3576103a26102b4565b5b6103ae848285610365565b509392505050565b600082601f8301126103cb576103ca6102af565b5b81356103db848260208601610374565b91505092915050565b6103ed8161023d565b81146103f857600080fd5b50565b60008135905061040a816103e4565b92915050565b600080600060608486031215610429576104286102a5565b5b600084013567ffffffffffffffff811115610447576104466102aa565b5b610453868287016103b6565b935050602084013567ffffffffffffffff811115610474576104736102aa565b5b610480868287016103b6565b9250506040610491868287016103fb565b9150509250925092565b7f4e487b7100000000000000000000000000000000000000000000000000000000600052602260045260246000fd5b600060028204905060018216806104e257607f821691505b6020821081036104f5576104f461049b565b5b5091905056fea26469706673582212209c887df4fd32c41ea7b9071e141b8b99da7bff99d098a5e5098d6733e61512f564736f6c634300080d0033",
					"opcodes": "PUSH1 0x80 PUSH1 0x40 MSTORE CALLVALUE DUP1 ISZERO PUSH3 0x11 JUMPI PUSH1 0x0 DUP1 REVERT JUMPDEST POP PUSH1 0x40 MLOAD PUSH3 0x948 CODESIZE SUB DUP1 PUSH3 0x948 DUP4 CODECOPY DUP2 DUP2 ADD PUSH1 0x40 MSTORE DUP2 ADD SWAP1 PUSH3 0x37 SWAP2 SWAP1 PUSH3 0x309 JUMP JUMPDEST DUP3 PUSH1 0x0 DUP1 ADD SWAP1 DUP1 MLOAD SWAP1 PUSH1 0x20 ADD SWAP1 PUSH3 0x51 SWAP3 SWAP2 SWAP1 PUSH3 0x81 JUMP JUMPDEST POP DUP2 PUSH1 0x0 PUSH1 0x1 ADD SWAP1 DUP1 MLOAD SWAP1 PUSH1 0x20 ADD SWAP1 PUSH3 0x6D SWAP3 SWAP2 SWAP1 PUSH3 0x81 JUMP JUMPDEST POP DUP1 PUSH1 0x0 PUSH1 0x2 ADD DUP2 SWAP1 SSTORE POP POP POP POP PUSH3 0x407 JUMP JUMPDEST DUP3 DUP1 SLOAD PUSH3 0x8F SWAP1 PUSH3 0x3D2 JUMP JUMPDEST SWAP1 PUSH1 0x0 MSTORE PUSH1 0x20 PUSH1 0x0 KECCAK256 SWAP1 PUSH1 0x1F ADD PUSH1 0x20 SWAP1 DIV DUP2 ADD SWAP3 DUP3 PUSH3 0xB3 JUMPI PUSH1 0x0 DUP6 SSTORE PUSH3 0xFF JUMP JUMPDEST DUP3 PUSH1 0x1F LT PUSH3 0xCE JUMPI DUP1 MLOAD PUSH1 0xFF NOT AND DUP4 DUP1 ADD OR DUP6 SSTORE PUSH3 0xFF JUMP JUMPDEST DUP3 DUP1 ADD PUSH1 0x1 ADD DUP6 SSTORE DUP3 ISZERO PUSH3 0xFF JUMPI SWAP2 DUP3 ADD JUMPDEST DUP3 DUP2 GT ISZERO PUSH3 0xFE JUMPI DUP3 MLOAD DUP3 SSTORE SWAP2 PUSH1 0x20 ADD SWAP2 SWAP1 PUSH1 0x1 ADD SWAP1 PUSH3 0xE1 JUMP JUMPDEST JUMPDEST POP SWAP1 POP PUSH3 0x10E SWAP2 SWAP1 PUSH3 0x112 JUMP JUMPDEST POP SWAP1 JUMP JUMPDEST JUMPDEST DUP1 DUP3 GT ISZERO PUSH3 0x12D JUMPI PUSH1 0x0 DUP2 PUSH1 0x0 SWAP1 SSTORE POP PUSH1 0x1 ADD PUSH3 0x113 JUMP JUMPDEST POP SWAP1 JUMP JUMPDEST PUSH1 0x0 PUSH1 0x40 MLOAD SWAP1 POP SWAP1 JUMP JUMPDEST PUSH1 0x0 DUP1 REVERT JUMPDEST PUSH1 0x0 DUP1 REVERT JUMPDEST PUSH1 0x0 DUP1 REVERT JUMPDEST PUSH1 0x0 DUP1 REVERT JUMPDEST PUSH1 0x0 PUSH1 0x1F NOT PUSH1 0x1F DUP4 ADD AND SWAP1 POP SWAP2 SWAP1 POP JUMP JUMPDEST PUSH32 0x4E487B7100000000000000000000000000000000000000000000000000000000 PUSH1 0x0 MSTORE PUSH1 0x41 PUSH1 0x4 MSTORE PUSH1 0x24 PUSH1 0x0 REVERT JUMPDEST PUSH3 0x19A DUP3 PUSH3 0x14F JUMP JUMPDEST DUP2 ADD DUP2 DUP2 LT PUSH8 0xFFFFFFFFFFFFFFFF DUP3 GT OR ISZERO PUSH3 0x1BC JUMPI PUSH3 0x1BB PUSH3 0x160 JUMP JUMPDEST JUMPDEST DUP1 PUSH1 0x40 MSTORE POP POP POP JUMP JUMPDEST PUSH1 0x0 PUSH3 0x1D1 PUSH3 0x131 JUMP JUMPDEST SWAP1 POP PUSH3 0x1DF DUP3 DUP3 PUSH3 0x18F JUMP JUMPDEST SWAP2 SWAP1 POP JUMP JUMPDEST PUSH1 0x0 PUSH8 0xFFFFFFFFFFFFFFFF DUP3 GT ISZERO PUSH3 0x202 JUMPI PUSH3 0x201 PUSH3 0x160 JUMP JUMPDEST JUMPDEST PUSH3 0x20D DUP3 PUSH3 0x14F JUMP JUMPDEST SWAP1 POP PUSH1 0x20 DUP2 ADD SWAP1 POP SWAP2 SWAP1 POP JUMP JUMPDEST PUSH1 0x0 JUMPDEST DUP4 DUP2 LT ISZERO PUSH3 0x23A JUMPI DUP1 DUP3 ADD MLOAD DUP2 DUP5 ADD MSTORE PUSH1 0x20 DUP2 ADD SWAP1 POP PUSH3 0x21D JUMP JUMPDEST DUP4 DUP2 GT ISZERO PUSH3 0x24A JUMPI PUSH1 0x0 DUP5 DUP5 ADD MSTORE JUMPDEST POP POP POP POP JUMP JUMPDEST PUSH1 0x0 PUSH3 0x267 PUSH3 0x261 DUP5 PUSH3 0x1E4 JUMP JUMPDEST PUSH3 0x1C5 JUMP JUMPDEST SWAP1 POP DUP3 DUP2 MSTORE PUSH1 0x20 DUP2 ADD DUP5 DUP5 DUP5 ADD GT ISZERO PUSH3 0x286 JUMPI PUSH3 0x285 PUSH3 0x14A JUMP JUMPDEST JUMPDEST PUSH3 0x293 DUP5 DUP3 DUP6 PUSH3 0x21A JUMP JUMPDEST POP SWAP4 SWAP3 POP POP POP JUMP JUMPDEST PUSH1 0x0 DUP3 PUSH1 0x1F DUP4 ADD SLT PUSH3 0x2B3 JUMPI PUSH3 0x2B2 PUSH3 0x145 JUMP JUMPDEST JUMPDEST DUP2 MLOAD PUSH3 0x2C5 DUP5 DUP3 PUSH1 0x20 DUP7 ADD PUSH3 0x250 JUMP JUMPDEST SWAP2 POP POP SWAP3 SWAP2 POP POP JUMP JUMPDEST PUSH1 0x0 DUP2 SWAP1 POP SWAP2 SWAP1 POP JUMP JUMPDEST PUSH3 0x2E3 DUP2 PUSH3 0x2CE JUMP JUMPDEST DUP2 EQ PUSH3 0x2EF JUMPI PUSH1 0x0 DUP1 REVERT JUMPDEST POP JUMP JUMPDEST PUSH1 0x0 DUP2 MLOAD SWAP1 POP PUSH3 0x303 DUP2 PUSH3 0x2D8 JUMP JUMPDEST SWAP3 SWAP2 POP POP JUMP JUMPDEST PUSH1 0x0 DUP1 PUSH1 0x0 PUSH1 0x60 DUP5 DUP7 SUB SLT ISZERO PUSH3 0x325 JUMPI PUSH3 0x324 PUSH3 0x13B JUMP JUMPDEST JUMPDEST PUSH1 0x0 DUP5 ADD MLOAD PUSH8 0xFFFFFFFFFFFFFFFF DUP2 GT ISZERO PUSH3 0x346 JUMPI PUSH3 0x345 PUSH3 0x140 JUMP JUMPDEST JUMPDEST PUSH3 0x354 DUP7 DUP3 DUP8 ADD PUSH3 0x29B JUMP JUMPDEST SWAP4 POP POP PUSH1 0x20 DUP5 ADD MLOAD PUSH8 0xFFFFFFFFFFFFFFFF DUP2 GT ISZERO PUSH3 0x378 JUMPI PUSH3 0x377 PUSH3 0x140 JUMP JUMPDEST JUMPDEST PUSH3 0x386 DUP7 DUP3 DUP8 ADD PUSH3 0x29B JUMP JUMPDEST SWAP3 POP POP PUSH1 0x40 PUSH3 0x399 DUP7 DUP3 DUP8 ADD PUSH3 0x2F2 JUMP JUMPDEST SWAP2 POP POP SWAP3 POP SWAP3 POP SWAP3 JUMP JUMPDEST PUSH32 0x4E487B7100000000000000000000000000000000000000000000000000000000 PUSH1 0x0 MSTORE PUSH1 0x22 PUSH1 0x4 MSTORE PUSH1 0x24 PUSH1 0x0 REVERT JUMPDEST PUSH1 0x0 PUSH1 0x2 DUP3 DIV SWAP1 POP PUSH1 0x1 DUP3 AND DUP1 PUSH3 0x3EB JUMPI PUSH1 0x7F DUP3 AND SWAP2 POP JUMPDEST PUSH1 0x20 DUP3 LT DUP2 SUB PUSH3 0x401 JUMPI PUSH3 0x400 PUSH3 0x3A3 JUMP JUMPDEST JUMPDEST POP SWAP2 SWAP1 POP JUMP JUMPDEST PUSH2 0x531 DUP1 PUSH3 0x417 PUSH1 0x0 CODECOPY PUSH1 0x0 RETURN INVALID PUSH1 0x80 PUSH1 0x40 MSTORE CALLVALUE DUP1 ISZERO PUSH2 0x10 JUMPI PUSH1 0x0 DUP1 REVERT JUMPDEST POP PUSH1 0x4 CALLDATASIZE LT PUSH2 0x36 JUMPI PUSH1 0x0 CALLDATALOAD PUSH1 0xE0 SHR DUP1 PUSH4 0xB34FAD41 EQ PUSH2 0x3B JUMPI DUP1 PUSH4 0xF6D0DC41 EQ PUSH2 0x5B JUMPI JUMPDEST PUSH1 0x0 DUP1 REVERT JUMPDEST PUSH2 0x43 PUSH2 0x77 JUMP JUMPDEST PUSH1 0x40 MLOAD PUSH2 0x52 SWAP4 SWAP3 SWAP2 SWAP1 PUSH2 0x256 JUMP JUMPDEST PUSH1 0x40 MLOAD DUP1 SWAP2 SUB SWAP1 RETURN JUMPDEST PUSH2 0x75 PUSH1 0x4 DUP1 CALLDATASIZE SUB DUP2 ADD SWAP1 PUSH2 0x70 SWAP2 SWAP1 PUSH2 0x410 JUMP JUMPDEST PUSH2 0x19F JUMP JUMPDEST STOP JUMPDEST PUSH1 0x0 DUP1 PUSH1 0x0 ADD DUP1 SLOAD PUSH2 0x88 SWAP1 PUSH2 0x4CA JUMP JUMPDEST DUP1 PUSH1 0x1F ADD PUSH1 0x20 DUP1 SWAP2 DIV MUL PUSH1 0x20 ADD PUSH1 0x40 MLOAD SWAP1 DUP2 ADD PUSH1 0x40 MSTORE DUP1 SWAP3 SWAP2 SWAP1 DUP2 DUP2 MSTORE PUSH1 0x20 ADD DUP3 DUP1 SLOAD PUSH2 0xB4 SWAP1 PUSH2 0x4CA JUMP JUMPDEST DUP1 ISZERO PUSH2 0x101 JUMPI DUP1 PUSH1 0x1F LT PUSH2 0xD6 JUMPI PUSH2 0x100 DUP1 DUP4 SLOAD DIV MUL DUP4 MSTORE SWAP2 PUSH1 0x20 ADD SWAP2 PUSH2 0x101 JUMP JUMPDEST DUP3 ADD SWAP2 SWAP1 PUSH1 0x0 MSTORE PUSH1 0x20 PUSH1 0x0 KECCAK256 SWAP1 JUMPDEST DUP2 SLOAD DUP2 MSTORE SWAP1 PUSH1 0x1 ADD SWAP1 PUSH1 0x20 ADD DUP1 DUP4 GT PUSH2 0xE4 JUMPI DUP3 SWAP1 SUB PUSH1 0x1F AND DUP3 ADD SWAP2 JUMPDEST POP POP POP POP POP SWAP1 DUP1 PUSH1 0x1 ADD DUP1 SLOAD PUSH2 0x116 SWAP1 PUSH2 0x4CA JUMP JUMPDEST DUP1 PUSH1 0x1F ADD PUSH1 0x20 DUP1 SWAP2 DIV MUL PUSH1 0x20 ADD PUSH1 0x40 MLOAD SWAP1 DUP2 ADD PUSH1 0x40 MSTORE DUP1 SWAP3 SWAP2 SWAP1 DUP2 DUP2 MSTORE PUSH1 0x20 ADD DUP3 DUP1 SLOAD PUSH2 0x142 SWAP1 PUSH2 0x4CA JUMP JUMPDEST DUP1 ISZERO PUSH2 0x18F JUMPI DUP1 PUSH1 0x1F LT PUSH2 0x164 JUMPI PUSH2 0x100 DUP1 DUP4 SLOAD DIV MUL DUP4 MSTORE SWAP2 PUSH1 0x20 ADD SWAP2 PUSH2 0x18F JUMP JUMPDEST DUP3 ADD SWAP2 SWAP1 PUSH1 0x0 MSTORE PUSH1 0x20 PUSH1 0x0 KECCAK256 SWAP1 JUMPDEST DUP2 SLOAD DUP2 MSTORE SWAP1 PUSH1 0x1 ADD SWAP1 PUSH1 0x20 ADD DUP1 DUP4 GT PUSH2 0x172 JUMPI DUP3 SWAP1 SUB PUSH1 0x1F AND DUP3 ADD SWAP2 JUMPDEST POP POP POP POP POP SWAP1 DUP1 PUSH1 0x2 ADD SLOAD SWAP1 POP DUP4 JUMP JUMPDEST POP POP POP JUMP JUMPDEST PUSH1 0x0 DUP2 MLOAD SWAP1 POP SWAP2 SWAP1 POP JUMP JUMPDEST PUSH1 0x0 DUP3 DUP3 MSTORE PUSH1 0x20 DUP3 ADD SWAP1 POP SWAP3 SWAP2 POP POP JUMP JUMPDEST PUSH1 0x0 JUMPDEST DUP4 DUP2 LT ISZERO PUSH2 0x1DE JUMPI DUP1 DUP3 ADD MLOAD DUP2 DUP5 ADD MSTORE PUSH1 0x20 DUP2 ADD SWAP1 POP PUSH2 0x1C3 JUMP JUMPDEST DUP4 DUP2 GT ISZERO PUSH2 0x1ED JUMPI PUSH1 0x0 DUP5 DUP5 ADD MSTORE JUMPDEST POP POP POP POP JUMP JUMPDEST PUSH1 0x0 PUSH1 0x1F NOT PUSH1 0x1F DUP4 ADD AND SWAP1 POP SWAP2 SWAP1 POP JUMP JUMPDEST PUSH1 0x0 PUSH2 0x20F DUP3 PUSH2 0x1A4 JUMP JUMPDEST PUSH2 0x219 DUP2 DUP6 PUSH2 0x1AF JUMP JUMPDEST SWAP4 POP PUSH2 0x229 DUP2 DUP6 PUSH1 0x20 DUP7 ADD PUSH2 0x1C0 JUMP JUMPDEST PUSH2 0x232 DUP2 PUSH2 0x1F3 JUMP JUMPDEST DUP5 ADD SWAP2 POP POP SWAP3 SWAP2 POP POP JUMP JUMPDEST PUSH1 0x0 DUP2 SWAP1 POP SWAP2 SWAP1 POP JUMP JUMPDEST PUSH2 0x250 DUP2 PUSH2 0x23D JUMP JUMPDEST DUP3 MSTORE POP POP JUMP JUMPDEST PUSH1 0x0 PUSH1 0x60 DUP3 ADD SWAP1 POP DUP2 DUP2 SUB PUSH1 0x0 DUP4 ADD MSTORE PUSH2 0x270 DUP2 DUP7 PUSH2 0x204 JUMP JUMPDEST SWAP1 POP DUP2 DUP2 SUB PUSH1 0x20 DUP4 ADD MSTORE PUSH2 0x284 DUP2 DUP6 PUSH2 0x204 JUMP JUMPDEST SWAP1 POP PUSH2 0x293 PUSH1 0x40 DUP4 ADD DUP5 PUSH2 0x247 JUMP JUMPDEST SWAP5 SWAP4 POP POP POP POP JUMP JUMPDEST PUSH1 0x0 PUSH1 0x40 MLOAD SWAP1 POP SWAP1 JUMP JUMPDEST PUSH1 0x0 DUP1 REVERT JUMPDEST PUSH1 0x0 DUP1 REVERT JUMPDEST PUSH1 0x0 DUP1 REVERT JUMPDEST PUSH1 0x0 DUP1 REVERT JUMPDEST PUSH32 0x4E487B7100000000000000000000000000000000000000000000000000000000 PUSH1 0x0 MSTORE PUSH1 0x41 PUSH1 0x4 MSTORE PUSH1 0x24 PUSH1 0x0 REVERT JUMPDEST PUSH2 0x2F1 DUP3 PUSH2 0x1F3 JUMP JUMPDEST DUP2 ADD DUP2 DUP2 LT PUSH8 0xFFFFFFFFFFFFFFFF DUP3 GT OR ISZERO PUSH2 0x310 JUMPI PUSH2 0x30F PUSH2 0x2B9 JUMP JUMPDEST JUMPDEST DUP1 PUSH1 0x40 MSTORE POP POP POP JUMP JUMPDEST PUSH1 0x0 PUSH2 0x323 PUSH2 0x29B JUMP JUMPDEST SWAP1 POP PUSH2 0x32F DUP3 DUP3 PUSH2 0x2E8 JUMP JUMPDEST SWAP2 SWAP1 POP JUMP JUMPDEST PUSH1 0x0 PUSH8 0xFFFFFFFFFFFFFFFF DUP3 GT ISZERO PUSH2 0x34F JUMPI PUSH2 0x34E PUSH2 0x2B9 JUMP JUMPDEST JUMPDEST PUSH2 0x358 DUP3 PUSH2 0x1F3 JUMP JUMPDEST SWAP1 POP PUSH1 0x20 DUP2 ADD SWAP1 POP SWAP2 SWAP1 POP JUMP JUMPDEST DUP3 DUP2 DUP4 CALLDATACOPY PUSH1 0x0 DUP4 DUP4 ADD MSTORE POP POP POP JUMP JUMPDEST PUSH1 0x0 PUSH2 0x387 PUSH2 0x382 DUP5 PUSH2 0x334 JUMP JUMPDEST PUSH2 0x319 JUMP JUMPDEST SWAP1 POP DUP3 DUP2 MSTORE PUSH1 0x20 DUP2 ADD DUP5 DUP5 DUP5 ADD GT ISZERO PUSH2 0x3A3 JUMPI PUSH2 0x3A2 PUSH2 0x2B4 JUMP JUMPDEST JUMPDEST PUSH2 0x3AE DUP5 DUP3 DUP6 PUSH2 0x365 JUMP JUMPDEST POP SWAP4 SWAP3 POP POP POP JUMP JUMPDEST PUSH1 0x0 DUP3 PUSH1 0x1F DUP4 ADD SLT PUSH2 0x3CB JUMPI PUSH2 0x3CA PUSH2 0x2AF JUMP JUMPDEST JUMPDEST DUP2 CALLDATALOAD PUSH2 0x3DB DUP5 DUP3 PUSH1 0x20 DUP7 ADD PUSH2 0x374 JUMP JUMPDEST SWAP2 POP POP SWAP3 SWAP2 POP POP JUMP JUMPDEST PUSH2 0x3ED DUP2 PUSH2 0x23D JUMP JUMPDEST DUP2 EQ PUSH2 0x3F8 JUMPI PUSH1 0x0 DUP1 REVERT JUMPDEST POP JUMP JUMPDEST PUSH1 0x0 DUP2 CALLDATALOAD SWAP1 POP PUSH2 0x40A DUP2 PUSH2 0x3E4 JUMP JUMPDEST SWAP3 SWAP2 POP POP JUMP JUMPDEST PUSH1 0x0 DUP1 PUSH1 0x0 PUSH1 0x60 DUP5 DUP7 SUB SLT ISZERO PUSH2 0x429 JUMPI PUSH2 0x428 PUSH2 0x2A5 JUMP JUMPDEST JUMPDEST PUSH1 0x0 DUP5 ADD CALLDATALOAD PUSH8 0xFFFFFFFFFFFFFFFF DUP2 GT ISZERO PUSH2 0x447 JUMPI PUSH2 0x446 PUSH2 0x2AA JUMP JUMPDEST JUMPDEST PUSH2 0x453 DUP7 DUP3 DUP8 ADD PUSH2 0x3B6 JUMP JUMPDEST SWAP4 POP POP PUSH1 0x20 DUP5 ADD CALLDATALOAD PUSH8 0xFFFFFFFFFFFFFFFF DUP2 GT ISZERO PUSH2 0x474 JUMPI PUSH2 0x473 PUSH2 0x2AA JUMP JUMPDEST JUMPDEST PUSH2 0x480 DUP7 DUP3 DUP8 ADD PUSH2 0x3B6 JUMP JUMPDEST SWAP3 POP POP PUSH1 0x40 PUSH2 0x491 DUP7 DUP3 DUP8 ADD PUSH2 0x3FB JUMP JUMPDEST SWAP2 POP POP SWAP3 POP SWAP3 POP SWAP3 JUMP JUMPDEST PUSH32 0x4E487B7100000000000000000000000000000000000000000000000000000000 PUSH1 0x0 MSTORE PUSH1 0x22 PUSH1 0x4 MSTORE PUSH1 0x24 PUSH1 0x0 REVERT JUMPDEST PUSH1 0x0 PUSH1 0x2 DUP3 DIV SWAP1 POP PUSH1 0x1 DUP3 AND DUP1 PUSH2 0x4E2 JUMPI PUSH1 0x7F DUP3 AND SWAP2 POP JUMPDEST PUSH1 0x20 DUP3 LT DUP2 SUB PUSH2 0x4F5 JUMPI PUSH2 0x4F4 PUSH2 0x49B JUMP JUMPDEST JUMPDEST POP SWAP2 SWAP1 POP JUMP INVALID LOG2 PUSH5 0x6970667358 0x22 SLT KECCAK256 SWAP13 DUP9 PUSH30 0xF4FD32C41EA7B9071E141B8B99DA7BFF99D098A5E5098D6733E61512F564 PUSH20 0x6F6C634300080D00330000000000000000000000 "
				},
				"gasEstimates": {
					"creation": {
						"codeDepositCost": "265800",
						"executionCost": "infinite",
						"totalCost": "infinite"
					},
					"external": {
						"changeEmployeeData(string,string,int256)": "infinite",
						"emp()": "infinite"
					}
				},
				"methodIdentifiers": {
					"changeEmployeeData(string,string,int256)": "f6d0dc41",
					"emp()": "b34fad41"
				}
			},
			"storageLayout": {
				"storage": [
					{
						"astId": 11,
						"contract": "contracts/structdatatype.sol:structDatatype",
						"label": "emp",
						"offset": 0,
						"slot": "0",
						"type": "t_struct(Employee)8_storage"
					}
				],
				"types": {
					"t_int256": {
						"encoding": "inplace",
						"label": "int256",
						"numberOfBytes": "32"
					},
					"t_string_storage": {
						"encoding": "bytes",
						"label": "string",
						"numberOfBytes": "32"
					},
					"t_struct(Employee)8_storage": {
						"encoding": "inplace",
						"label": "struct Employee",
						"members": [
							{
								"astId": 3,
								"contract": "contracts/structdatatype.sol:structDatatype",
								"label": "name",
								"offset": 0,
								"slot": "0",
								"type": "t_string_storage"
							},
							{
								"astId": 5,
								"contract": "contracts/structdatatype.sol:structDatatype",
								"label": "skills",
								"offset": 0,
								"slot": "1",
								"type": "t_string_storage"
							},
							{
								"astId": 7,
								"contract": "contracts/structdatatype.sol:structDatatype",
								"label": "salary",
								"offset": 0,
								"slot": "2",
								"type": "t_int256"
							}
						],
						"numberOfBytes": "96"
					}
				}
			},
			"userdoc": {
				"kind": "user",
				"methods": {},
				"version": 1
			}
		}
	}
}